{"abi":[{"type":"function","name":"exerciseEquityCompensation","inputs":[{"name":"equity_comp_security_id","type":"bytes16","internalType":"bytes16"},{"name":"resulting_stock_security_id","type":"bytes16","internalType":"bytes16"},{"name":"quantity","type":"uint256","internalType":"uint256"}],"outputs":[],"stateMutability":"nonpayable"},{"type":"function","name":"getPosition","inputs":[{"name":"securityId","type":"bytes16","internalType":"bytes16"}],"outputs":[{"name":"","type":"tuple","internalType":"struct EquityCompensationActivePosition","components":[{"name":"stakeholder_id","type":"bytes16","internalType":"bytes16"},{"name":"quantity","type":"uint256","internalType":"uint256"},{"name":"timestamp","type":"uint40","internalType":"uint40"},{"name":"stock_class_id","type":"bytes16","internalType":"bytes16"},{"name":"stock_plan_id","type":"bytes16","internalType":"bytes16"}]}],"stateMutability":"view"},{"type":"function","name":"issueEquityCompensation","inputs":[{"name":"stakeholder_id","type":"bytes16","internalType":"bytes16"},{"name":"stock_class_id","type":"bytes16","internalType":"bytes16"},{"name":"stock_plan_id","type":"bytes16","internalType":"bytes16"},{"name":"quantity","type":"uint256","internalType":"uint256"},{"name":"security_id","type":"bytes16","internalType":"bytes16"}],"outputs":[],"stateMutability":"nonpayable"},{"type":"event","name":"TxCreated","inputs":[{"name":"txType","type":"uint8","indexed":false,"internalType":"enum TxType"},{"name":"txData","type":"bytes","indexed":false,"internalType":"bytes"}],"anonymous":false},{"type":"error","name":"InsufficientShares","inputs":[]},{"type":"error","name":"InvalidQuantity","inputs":[]},{"type":"error","name":"InvalidSecurity","inputs":[{"name":"security_id","type":"bytes16","internalType":"bytes16"}]},{"type":"error","name":"InvalidSecurityStakeholder","inputs":[{"name":"security_id","type":"bytes16","internalType":"bytes16"},{"name":"stakeholder_id","type":"bytes16","internalType":"bytes16"}]},{"type":"error","name":"InvalidStockClass","inputs":[{"name":"stock_class_id","type":"bytes16","internalType":"bytes16"}]},{"type":"error","name":"InvalidStockPlan","inputs":[{"name":"stock_plan_id","type":"bytes16","internalType":"bytes16"}]},{"type":"error","name":"NoStakeholder","inputs":[{"name":"stakeholder_id","type":"bytes16","internalType":"bytes16"}]}],"bytecode":{"object":"0x608060405234801561001057600080fd5b50610b4b806100206000396000f3fe608060405234801561001057600080fd5b50600436106100415760003560e01c80630d062fcb146100465780630d08aa0f1461005b5780636b5e3d221461017e575b600080fd5b610059610054366004610971565b610191565b005b6101226100693660046109cf565b6040805160a0808201835260008083526020808401829052838501829052606080850183905260809485018390526001600160801b031996871683527f2031468f0c30f7087de4da9398818763b546d7f89935fa65485c24ff1df26c04825291859020855193840186528054851b87168452600181015491840191909152600281015464ffffffffff81169584019590955265010000000000909404831b851690820152600390920154811b9092169181019190915290565b604051610175919081516001600160801b031990811682526020808401519083015260408084015164ffffffffff1690830152606080840151821690830152608092830151169181019190915260a00190565b60405180910390f35b61005961018c3660046109f1565b61037a565b7f2031468f0c30f7087de4da9398818763b546d7f89935fa65485c24ff1df26bfc8054600080516020610b2b8339815191529160006101cf83610a43565b91905055506101dd866107b4565b6101e685610821565b6101ef8461088a565b6101f8836108f3565b6040805160a0810182526001600160801b0319808916808352602080840188815264ffffffffff4281168688019081528c8616606088019081528c87166080808a019182528c8916600081815260118e0189528c81209b518c5490841c908c16178c55965160018c81019190915594516002808d0180549651851c65010000000000026001600160a81b031990971692909816919091179490941790955590516003909901805499821c998916999099179098559483526010808a0185528884208054808401825590855285852096810490960180548c8a1c979093169091026101000a9586026001600160801b039690960219909116949094179093559182526012860181528482208054948c901c949093169390931790915591516103559189918991899189918991016001600160801b03199586168152938516602085015291841660408401526060830152909116608082015260a00190565b6040516020818303038152906040529050610371600b82610917565b50505050505050565b7f2031468f0c30f7087de4da9398818763b546d7f89935fa65485c24ff1df26bfc8054600080516020610b2b8339815191529160006103b883610a43565b90915550506001600160801b031980851660009081526011830160209081526040808320815160a0810183528154608090811b87168252600183015494820194909452600282015464ffffffffff81169382019390935265010000000000909204831b8516606083015260030154821b9093169083015283900361044f5760405163524f409b60e01b815260040160405180910390fd5b806020015160000361047f578460405163236ddac760e11b81526004016104769190610a5c565b60405180910390fd5b82816020015110156104a457604051633999656760e01b815260040160405180910390fd5b6001600160801b03198085166000908152600b84016020908152604091829020825160808082018552825480821b8716808452600160801b90910490911b90951692810192909252600181015492820192909252600290910154606082015290610523578460405163236ddac760e11b81526004016104769190610a5c565b815181516001600160801b031990811691161461056a57815160405163e2adf63b60e01b81526001600160801b031980881660048301529091166024820152604401610476565b8381604001511461058e5760405163524f409b60e01b815260040160405180910390fd5b83826020015103610740576001600160801b031980871660009081526011850160209081526040808320805485168155600181018490556002810180546001600160a81b031916905560030180548516905560128701825280832080548516905585519093168252601086019052908120905b815481101561073957876001600160801b03191682828154811061062757610627610a71565b90600052602060002090600291828204019190066010029054906101000a900460801b6001600160801b03191603610727578154829061066990600190610a87565b8154811061067957610679610a71565b90600052602060002090600291828204019190066010029054906101000a900460801b8282815481106106ae576106ae610a71565b90600052602060002090600291828204019190066010026101000a8154816001600160801b03021916908360801c0217905550818054806106f1576106f1610aa0565b60008281526020902060026000199092019182040180546001600160801b03601060018516026101000a02191690559055610739565b8061073181610a43565b915050610601565b5050610774565b6001600160801b0319861660009081526011840160205260408120600101805486929061076e908490610a87565b90915550505b604080516001600160801b031988811660208301528716818301526060808201879052825180830390910181526080909101909152610371600e82610917565b6001600160801b0319811660009081527f2031468f0c30f7087de4da9398818763b546d7f89935fa65485c24ff1df26bf76020526040812054600080516020610b2b833981519152910361081d578160405163b4586dfb60e01b81526004016104769190610a5c565b5050565b6001600160801b0319811660009081527f2031468f0c30f7087de4da9398818763b546d7f89935fa65485c24ff1df26bf96020526040812054600080516020610b2b833981519152910361081d5781604051630b2b152360e21b81526004016104769190610a5c565b6001600160801b0319811660009081527f2031468f0c30f7087de4da9398818763b546d7f89935fa65485c24ff1df26bfb6020526040812054600080516020610b2b833981519152910361081d57816040516399406ae560e01b81526004016104769190610a5c565b806000036109145760405163524f409b60e01b815260040160405180910390fd5b50565b7f88aa35e399ceb8d6b2e810abb3df607c140128e7c089c428f212598bda6a7eb78282604051610948929190610ab6565b60405180910390a15050565b80356001600160801b03198116811461096c57600080fd5b919050565b600080600080600060a0868803121561098957600080fd5b61099286610954565b94506109a060208701610954565b93506109ae60408701610954565b9250606086013591506109c360808701610954565b90509295509295909350565b6000602082840312156109e157600080fd5b6109ea82610954565b9392505050565b600080600060608486031215610a0657600080fd5b610a0f84610954565b9250610a1d60208501610954565b9150604084013590509250925092565b634e487b7160e01b600052601160045260246000fd5b600060018201610a5557610a55610a2d565b5060010190565b6001600160801b031991909116815260200190565b634e487b7160e01b600052603260045260246000fd5b81810381811115610a9a57610a9a610a2d565b92915050565b634e487b7160e01b600052603160045260246000fd5b6000600f8410610ad657634e487b7160e01b600052602160045260246000fd5b8382526020604081840152835180604085015260005b81811015610b0857858101830151858201606001528201610aec565b506000606082860101526060601f19601f83011685010192505050939250505056fe2031468f0c30f7087de4da9398818763b546d7f89935fa65485c24ff1df26bf3","linkReferences":{}},"methodIdentifiers":{"exerciseEquityCompensation(bytes16,bytes16,uint256)":"6b5e3d22","getPosition(bytes16)":"0d08aa0f","issueEquityCompensation(bytes16,bytes16,bytes16,uint256,bytes16)":"0d062fcb"},"id":37}