{"abi":[{"type":"function","name":"exerciseEquityCompensation","inputs":[{"name":"equity_comp_security_id","type":"bytes16","internalType":"bytes16"},{"name":"resulting_stock_security_id","type":"bytes16","internalType":"bytes16"},{"name":"quantity","type":"uint256","internalType":"uint256"}],"outputs":[],"stateMutability":"nonpayable"},{"type":"function","name":"getPosition","inputs":[{"name":"securityId","type":"bytes16","internalType":"bytes16"}],"outputs":[{"name":"","type":"tuple","internalType":"struct EquityCompensationActivePosition","components":[{"name":"stakeholder_id","type":"bytes16","internalType":"bytes16"},{"name":"quantity","type":"uint256","internalType":"uint256"},{"name":"timestamp","type":"uint40","internalType":"uint40"},{"name":"stock_class_id","type":"bytes16","internalType":"bytes16"},{"name":"stock_plan_id","type":"bytes16","internalType":"bytes16"}]}],"stateMutability":"view"},{"type":"function","name":"issueEquityCompensation","inputs":[{"name":"stakeholder_id","type":"bytes16","internalType":"bytes16"},{"name":"stock_class_id","type":"bytes16","internalType":"bytes16"},{"name":"stock_plan_id","type":"bytes16","internalType":"bytes16"},{"name":"quantity","type":"uint256","internalType":"uint256"},{"name":"security_id","type":"bytes16","internalType":"bytes16"}],"outputs":[],"stateMutability":"nonpayable"},{"type":"event","name":"TxCreated","inputs":[{"name":"txType","type":"uint8","indexed":false,"internalType":"enum TxType"},{"name":"txData","type":"bytes","indexed":false,"internalType":"bytes"}],"anonymous":false},{"type":"error","name":"AccessControlUnauthorized","inputs":[{"name":"account","type":"address","internalType":"address"},{"name":"role","type":"bytes32","internalType":"bytes32"}]},{"type":"error","name":"AccessControlUnauthorizedOrInvestor","inputs":[{"name":"account","type":"address","internalType":"address"}]},{"type":"error","name":"InsufficientShares","inputs":[]},{"type":"error","name":"InvalidQuantity","inputs":[]},{"type":"error","name":"InvalidSecurity","inputs":[{"name":"security_id","type":"bytes16","internalType":"bytes16"}]},{"type":"error","name":"InvalidSecurityStakeholder","inputs":[{"name":"security_id","type":"bytes16","internalType":"bytes16"},{"name":"stakeholder_id","type":"bytes16","internalType":"bytes16"}]},{"type":"error","name":"InvalidStockClass","inputs":[{"name":"stock_class_id","type":"bytes16","internalType":"bytes16"}]},{"type":"error","name":"NoStakeholder","inputs":[{"name":"stakeholder_id","type":"bytes16","internalType":"bytes16"}]}],"bytecode":{"object":"0x6080806040523461001657610bd3908161001c8239f35b600080fdfe6080604052600436101561001257600080fd5b60e060008035821c630d062fcb811461063e5780630d08aa0f146105d357636b5e3d221461003f57600080fd5b346105d05760603660031901126105d05761005861098c565b6100606109a8565b926001600160801b031982168352600080516020610bb38339815191526020526040832060405190610091826109bf565b80546001600160801b03199060801b16825260018101546020830152600281015464ffffffffff811660408401526001600160801b03199060581b16606083015260036001600160801b031991015460801b1660808201526101243360018060a01b03166000527f2031468f0c30f7087de4da9398818763b546d7f89935fa65485c24ff1df26c0c602052604060002090565b5460801b6001600160801b0319825116906001600160801b0319160361059257604435156104ec576020810151156105705760443560208201511061055e576001600160801b0319851684527f2031468f0c30f7087de4da9398818763b546d7f89935fa65485c24ff1df26c016020526040842060405180608081011067ffffffffffffffff60808301111761054a576080810160405281546001600160801b03198160801b16908183526001600160801b03191660208301526002600184015493604084019485520154606083015215610528575182516001600160801b031990811691168190036104fe57506044359051036104ec576020810151604435036104ae576001600160801b031983168452600080516020610bb38339815191526020528360036040822082815582600182015582600282015501557f2031468f0c30f7087de4da9398818763b546d7f89935fa65485c24ff1df26c08602052604084206001600160801b031981541690556001600160801b031990511683527f2031468f0c30f7087de4da9398818763b546d7f89935fa65485c24ff1df26c066020526040832093835b8554808210156104a3576102e382886109f1565b906001600160801b03198716916001600160801b031991549060031b1c60801b161461032f5750600019811461031b576001016102cf565b634e487b7160e01b85526011600452602485fd5b9060009692939496199182810190811161048f579061036561035461038593866109f1565b90549060031b1c60801b91856109f1565b9091906001600160801b0383549160031b9260801c831b921b1916179055565b8154801561047b57019061039982826109f1565b6001600160801b0382549160031b1b19169055555b604051936001600160801b03191660208501526001600160801b0319166040840152604435606084015260608352608083019083821067ffffffffffffffff8311176104675781604052600e8252604060a08501528351908160c0860152835b82811061045357508185010183905291927f88aa35e399ceb8d6b2e810abb3df607c140128e7c089c428f212598bda6a7eb792601f01601f191681010360600190a180f35b80602091870183838201519101520161040e565b634e487b7160e01b83526041600452602483fd5b634e487b7160e01b86526031600452602486fd5b634e487b7160e01b87526011600452602487fd5b5050909193506103ae565b5090926001600160801b031984168352600080516020610bb383398151915260205260016040842001805490604435820391821161031b57556103ae565b60405163524f409b60e01b8152600490fd5b60405163e2adf63b60e01b81526001600160801b0319881660048201526024810191909152604490fd5b60405163236ddac760e11b81526001600160801b031988166004820152602490fd5b634e487b7160e01b86526041600452602486fd5b604051633999656760e01b8152600490fd5b60405163236ddac760e11b81526001600160801b031984166004820152602490fd5b604051633cea3dfb60e11b81523360048201527fb165298935924f540e4181c03493a5d686c54a0aaeb3f6216de85b7ffbba77386024820152604490fd5b80fd5b50346105d05760203660031901126105d05760a06105f76105f261098c565b610a2a565b6040519060806001600160801b0319918281511684526020810151602085015264ffffffffff60408201511660408501528260608201511660608501520151166080820152f35b5090346109885760a03660031901126109885761065961098c565b6106616109a8565b6001600160801b031991604435838116908190036109845760643590608435858116938482036109805761069433610b75565b156109425786811696878a526020967f2031468f0c30f7087de4da9398818763b546d7f89935fa65485c24ff1df26bfb885260408b20541561092957811692838b527f2031468f0c30f7087de4da9398818763b546d7f89935fa65485c24ff1df26bfd885260408b2054156109105785156104ec578460038a8a878f8b60408e92815196610721886109bf565b8752858701928352600080516020610bb38339815191528288019664ffffffffff95864216895260608a0197885260808a019b8c5283525220945160801c898654161785555160018501556002840192511674ffffffffffffffffffffffffffffffff00000000008354925160581c16916affffffffffffffffffffff60a81b161717905501905160801c83825416179055888b527f2031468f0c30f7087de4da9398818763b546d7f89935fa65485c24ff1df26c06885260408b20805490680100000000000000008210156108fc578161036591600161080595940181556109f1565b858a527f2031468f0c30f7087de4da9398818763b546d7f89935fa65485c24ff1df26c08875260408a209160801c90825416179055604051958587015260408601526060850152608084015260a083015260a0825260c082019282841067ffffffffffffffff8511176108e857604090848252600b855283015281519081610100840152845b8281106108d35782840161012001869052857f88aa35e399ceb8d6b2e810abb3df607c140128e7c089c428f212598bda6a7eb7601f8501601f1916860186900360600187a180f35b8082918501610120838201519101520161088b565b634e487b7160e01b85526041600452602485fd5b634e487b7160e01b8d52604160045260248dfd5b604051630b2b152360e21b815260048101859052602490fd5b60405163b4586dfb60e01b8152600481018a9052602490fd5b604051633cea3dfb60e11b81523360048201527f97667070c54ef182b0f5858b034beac1b6f3089aa2d3188bb1e8929f4fa9b9296024820152604490fd5b8880fd5b8580fd5b5080fd5b600435906001600160801b0319821682036109a357565b600080fd5b602435906001600160801b0319821682036109a357565b60a0810190811067ffffffffffffffff8211176109db57604052565b634e487b7160e01b600052604160045260246000fd5b9190918054831015610a1457600052601060206000208360011c019260041b1690565b634e487b7160e01b600052603260045260246000fd5b6080906040908151610a3b816109bf565b6000938185809352826020820152828582015282606082015201526001600160801b03198091168352600080516020610bb383398151915260205281832092816003845195610a89876109bf565b82815460801b1687526001810154602088015282600282015464ffffffffff8116888a015260581b166060880152015460801b16608085015282610acc33610b75565b918215610b37575b5050610b32573360009081527f2031468f0c30f7087de4da9398818763b546d7f89935fa65485c24ff1df26c0c602052604090205460801b9080845116911603610b1c575090565b5163ad41016d60e01b8152336004820152602490fd5b505090565b60ff92508080527f2031468f0c30f7087de4da9398818763b546d7f89935fa65485c24ff1df26bf36020528181203382526020522054168238610ad4565b6001600160a01b031660009081527f20a65b27cef39f8cbee4f7fb947dec892749a5832be62c5137636d27b859f46d602052604090205460ff169056fe2031468f0c30f7087de4da9398818763b546d7f89935fa65485c24ff1df26c07","linkReferences":{}},"methodIdentifiers":{"exerciseEquityCompensation(bytes16,bytes16,uint256)":"6b5e3d22","getPosition(bytes16)":"0d08aa0f","issueEquityCompensation(bytes16,bytes16,bytes16,uint256,bytes16)":"0d062fcb"},"id":48}