{"abi":[{"type":"function","name":"exerciseEquityCompensation","inputs":[{"name":"equity_comp_security_id","type":"bytes16","internalType":"bytes16"},{"name":"resulting_stock_security_id","type":"bytes16","internalType":"bytes16"},{"name":"quantity","type":"uint256","internalType":"uint256"}],"outputs":[],"stateMutability":"nonpayable"},{"type":"function","name":"getPosition","inputs":[{"name":"securityId","type":"bytes16","internalType":"bytes16"}],"outputs":[{"name":"","type":"tuple","internalType":"struct EquityCompensationActivePosition","components":[{"name":"stakeholder_id","type":"bytes16","internalType":"bytes16"},{"name":"quantity","type":"uint256","internalType":"uint256"},{"name":"timestamp","type":"uint40","internalType":"uint40"},{"name":"stock_class_id","type":"bytes16","internalType":"bytes16"},{"name":"stock_plan_id","type":"bytes16","internalType":"bytes16"}]}],"stateMutability":"view"},{"type":"function","name":"issueEquityCompensation","inputs":[{"name":"stakeholder_id","type":"bytes16","internalType":"bytes16"},{"name":"stock_class_id","type":"bytes16","internalType":"bytes16"},{"name":"stock_plan_id","type":"bytes16","internalType":"bytes16"},{"name":"quantity","type":"uint256","internalType":"uint256"},{"name":"security_id","type":"bytes16","internalType":"bytes16"},{"name":"compensation_type","type":"string","internalType":"string"},{"name":"exercise_price","type":"uint256","internalType":"uint256"},{"name":"base_price","type":"uint256","internalType":"uint256"},{"name":"expiration_date","type":"string","internalType":"string"},{"name":"custom_id","type":"string","internalType":"string"},{"name":"termination_exercise_windows_mapping","type":"string","internalType":"string"},{"name":"security_law_exemptions_mapping","type":"string","internalType":"string"}],"outputs":[],"stateMutability":"nonpayable"},{"type":"event","name":"TxCreated","inputs":[{"name":"txType","type":"uint8","indexed":false,"internalType":"enum TxType"},{"name":"txData","type":"bytes","indexed":false,"internalType":"bytes"}],"anonymous":false},{"type":"error","name":"InsufficientShares","inputs":[]},{"type":"error","name":"InvalidQuantity","inputs":[]},{"type":"error","name":"InvalidSecurity","inputs":[{"name":"security_id","type":"bytes16","internalType":"bytes16"}]},{"type":"error","name":"InvalidSecurityStakeholder","inputs":[{"name":"security_id","type":"bytes16","internalType":"bytes16"},{"name":"stakeholder_id","type":"bytes16","internalType":"bytes16"}]},{"type":"error","name":"InvalidStockClass","inputs":[{"name":"stock_class_id","type":"bytes16","internalType":"bytes16"}]},{"type":"error","name":"NoStakeholder","inputs":[{"name":"stakeholder_id","type":"bytes16","internalType":"bytes16"}]}],"bytecode":{"object":"0x6080806040523461001657610bdb908161001c8239f35b600080fdfe608080604052600436101561001357600080fd5b60003560e01c9081630d08aa0f14610a06575080636b5e3d221461055057637e6a49101461004057600080fd5b3461054b5761018036600319011261054b5761005a610ae8565b610062610aff565b906044356001600160801b03198116810361054b576084356001600160801b03198116900361054b5760a43567ffffffffffffffff811161054b576100ab903690600401610b16565b906101043567ffffffffffffffff811161054b576100cd903690600401610b16565b906101243567ffffffffffffffff811161054b576100ef903690600401610b16565b909167ffffffffffffffff610144351161054b576101133661014435600401610b16565b9490956101643567ffffffffffffffff811161054b57610137903690600401610b16565b9890996001600160801b03198c166000527f2031468f0c30f7087de4da9398818763b546d7f89935fa65485c24ff1df26bf760205260406000205415610529576001600160801b03198d166000527f2031468f0c30f7087de4da9398818763b546d7f89935fa65485c24ff1df26bf96020526040600020541561050757606435156104f55760405160038e8e6101cc84610b44565b6001600160801b0319168352606435602084015264ffffffffff4216604084015260608301906001600160801b031916815260808301926001600160801b0319851684526001600160801b031960843516600052600080516020610bbb833981519152602052604060002091815160801c6001600160801b03198454161783556020820151600184015564ffffffffff6040600285019301511674ffffffffffffffffffffffffffffffff00000000008354925160581c16916affffffffffffffffffffff60a81b161717905501905160801c6001600160801b03198254161790556001600160801b03198c166000527f2031468f0c30f7087de4da9398818763b546d7f89935fa65485c24ff1df26c0260205260406000208054680100000000000000008110156104df5760018101825561030791610b60565b81546001600160801b0360039290921b91821b191660843560801c90911b1790556001600160801b0319608435166000527f2031468f0c30f7087de4da9398818763b546d7f89935fa65485c24ff1df26c0460205260406000208c60801c6001600160801b03198254161790556040519c8d809d6001600160801b03191690602001526001600160801b03191660408d01526001600160801b03191660608c015260643560808c01526001600160801b03196084351660a08c015260c08b0161018090526101a08b01906103da92610b99565b9060c43560e08b015260e4356101008b0152601f198a8303016101208b015261040292610b99565b90601f198883030161014089015261041992610b99565b90601f198683030161016087015261043092610b99565b90601f198483030161018085015261044792610b99565b601f199190038181018352601f0116810167ffffffffffffffff8111828210176104df5780604052600b815260406020820152815180604083015260005b8181106104c9577f88aa35e399ceb8d6b2e810abb3df607c140128e7c089c428f212598bda6a7eb783606081856000838284010152601f80199101168101030190a1005b8060208092860101516060828601015201610485565b634e487b7160e01b600052604160045260246000fd5b60405163524f409b60e01b8152600490fd5b604051630b2b152360e21b81526001600160801b03198e166004820152602490fd5b60405163b4586dfb60e01b81526001600160801b03198d166004820152602490fd5b600080fd5b3461054b57606036600319011261054b57610569610ae8565b610571610aff565b906001600160801b03198116600052600080516020610bbb8339815191526020526040600020604051906105a482610b44565b80546001600160801b03199060801b16825260018101546020830152600281015464ffffffffff811660408401526001600160801b03199060581b16606083015260036001600160801b031991015460801b166080820152604435156104f5576020810151156109e4576044356020820151106109d2576001600160801b031983166000527f2031468f0c30f7087de4da9398818763b546d7f89935fa65485c24ff1df26bfd602052604060002060405180608081011067ffffffffffffffff6080830111176104df576080810160405281546001600160801b03198160801b16908183526001600160801b031916602083015260026001840154936040840194855201546060830152156109b0575182516001600160801b0319908116911681900361098657506044359051036104f557602081015160443503610947576001600160801b03198216600052600080516020610bbb833981519152602052600060036040822082815582600182015582600282015501557f2031468f0c30f7087de4da9398818763b546d7f89935fa65485c24ff1df26c0460205260406000206001600160801b031981541690556001600160801b03199051166000527f2031468f0c30f7087de4da9398818763b546d7f89935fa65485c24ff1df26c0260205260406000209160005b83548082101561093d576107a38286610b60565b906001600160801b03198616916001600160801b031991549060031b1c60801b16146107f1575060001981146107db5760010161078f565b634e487b7160e01b600052601160045260246000fd5b92939192600019918183019182116107db576108246108136108449386610b60565b90549060031b1c60801b9185610b60565b9091906001600160801b0383549160031b9260801c831b921b1916179055565b815480156109275701906108588282610b60565b6001600160801b0382549160031b1b19169055555b604051916001600160801b03191660208301526001600160801b03191660408201526044356060820152606081526080810181811067ffffffffffffffff8211176104df5780604052600e8152604060a083015281518060c084015260005b8181106109125750600081840160e001527f88aa35e399ceb8d6b2e810abb3df607c140128e7c089c428f212598bda6a7eb792601f909101601f191681010360600190a1005b80602091850160e083820151910152016108cc565b634e487b7160e01b600052603160045260246000fd5b505090915061086d565b50906001600160801b03198216600052600080516020610bbb833981519152602052600160406000200180549060443582039182116107db575561086d565b60405163e2adf63b60e01b81526001600160801b0319861660048201526024810191909152604490fd5b60405163236ddac760e11b81526001600160801b031986166004820152602490fd5b604051633999656760e01b8152600490fd5b60405163236ddac760e11b81526001600160801b031983166004820152602490fd5b3461054b57602036600319011261054b5760a09060006080610a26610ae8565b92610a3081610b44565b82815282602082015282604082015282606082015201526001600160801b0319809116600052600080516020610bbb833981519152602052604060002090604051610a7a81610b44565b8180845460801b1693848352600181015490602084019182526002810154916040850190846080600364ffffffffff9586881686528360608b019860581b1688520154811b970196168652604051978852516020880152511660408601525116606084015251166080820152f35b600435906001600160801b03198216820361054b57565b602435906001600160801b03198216820361054b57565b9181601f8401121561054b5782359167ffffffffffffffff831161054b576020838186019501011161054b57565b60a0810190811067ffffffffffffffff8211176104df57604052565b9190918054831015610b8357600052601060206000208360011c019260041b1690565b634e487b7160e01b600052603260045260246000fd5b908060209392818452848401376000828201840152601f01601f191601019056fe2031468f0c30f7087de4da9398818763b546d7f89935fa65485c24ff1df26c03","linkReferences":{}},"methodIdentifiers":{"exerciseEquityCompensation(bytes16,bytes16,uint256)":"6b5e3d22","getPosition(bytes16)":"0d08aa0f","issueEquityCompensation(bytes16,bytes16,bytes16,uint256,bytes16,string,uint256,uint256,string,string,string,string)":"7e6a4910"},"id":37}