{"abi":[{"type":"function","name":"exerciseEquityCompensation","inputs":[{"name":"equity_comp_security_id","type":"bytes16","internalType":"bytes16"},{"name":"resulting_stock_security_id","type":"bytes16","internalType":"bytes16"},{"name":"quantity","type":"uint256","internalType":"uint256"}],"outputs":[],"stateMutability":"nonpayable"},{"type":"function","name":"getPosition","inputs":[{"name":"securityId","type":"bytes16","internalType":"bytes16"}],"outputs":[{"name":"","type":"tuple","internalType":"struct EquityCompensationActivePosition","components":[{"name":"stakeholder_id","type":"bytes16","internalType":"bytes16"},{"name":"quantity","type":"uint256","internalType":"uint256"},{"name":"timestamp","type":"uint40","internalType":"uint40"},{"name":"stock_class_id","type":"bytes16","internalType":"bytes16"},{"name":"stock_plan_id","type":"bytes16","internalType":"bytes16"}]}],"stateMutability":"view"},{"type":"function","name":"issueEquityCompensation","inputs":[{"name":"stakeholder_id","type":"bytes16","internalType":"bytes16"},{"name":"stock_class_id","type":"bytes16","internalType":"bytes16"},{"name":"stock_plan_id","type":"bytes16","internalType":"bytes16"},{"name":"quantity","type":"uint256","internalType":"uint256"},{"name":"security_id","type":"bytes16","internalType":"bytes16"},{"name":"compensation_type","type":"string","internalType":"string"},{"name":"exercise_price","type":"uint256","internalType":"uint256"},{"name":"base_price","type":"uint256","internalType":"uint256"},{"name":"expiration_date","type":"string","internalType":"string"},{"name":"custom_id","type":"string","internalType":"string"},{"name":"termination_exercise_windows_mapping","type":"string","internalType":"string"},{"name":"security_law_exemptions_mapping","type":"string","internalType":"string"}],"outputs":[],"stateMutability":"nonpayable"},{"type":"event","name":"TxCreated","inputs":[{"name":"txType","type":"uint8","indexed":false,"internalType":"enum TxType"},{"name":"txData","type":"bytes","indexed":false,"internalType":"bytes"}],"anonymous":false},{"type":"error","name":"AccessControlUnauthorized","inputs":[{"name":"account","type":"address","internalType":"address"},{"name":"role","type":"bytes32","internalType":"bytes32"}]},{"type":"error","name":"AccessControlUnauthorizedOrInvestor","inputs":[{"name":"account","type":"address","internalType":"address"}]},{"type":"error","name":"InsufficientShares","inputs":[]},{"type":"error","name":"InvalidQuantity","inputs":[]},{"type":"error","name":"InvalidSecurity","inputs":[{"name":"security_id","type":"bytes16","internalType":"bytes16"}]},{"type":"error","name":"InvalidSecurityStakeholder","inputs":[{"name":"security_id","type":"bytes16","internalType":"bytes16"},{"name":"stakeholder_id","type":"bytes16","internalType":"bytes16"}]},{"type":"error","name":"InvalidStockClass","inputs":[{"name":"stock_class_id","type":"bytes16","internalType":"bytes16"}]},{"type":"error","name":"NoStakeholder","inputs":[{"name":"stakeholder_id","type":"bytes16","internalType":"bytes16"}]}],"bytecode":{"object":"0x6080806040523461001657610dcc908161001c8239f35b600080fdfe6080604052600436101561001257600080fd5b60003560e01c80630d08aa0f14610ae75780636b5e3d221461059857637e6a49101461003d57600080fd5b346105935761018036600319011261059357610057610b51565b61005f610b68565b906044356001600160801b031981168103610593576084356001600160801b0319811690036105935760a43567ffffffffffffffff8111610593576100a8903690600401610b7f565b906101043567ffffffffffffffff8111610593576100ca903690600401610b7f565b906101243567ffffffffffffffff8111610593576100ec903690600401610b7f565b90916101443567ffffffffffffffff81116105935761010f903690600401610b7f565b9490956101643567ffffffffffffffff811161059357610133903690600401610b7f565b98909961013f33610d6e565b15610555576001600160801b03198c166000527f2031468f0c30f7087de4da9398818763b546d7f89935fa65485c24ff1df26bfb60205260406000205415610533576001600160801b03198d166000527f2031468f0c30f7087de4da9398818763b546d7f89935fa65485c24ff1df26bfd6020526040600020541561051157606435156104ff5760405160038e8e6101d684610bad565b6001600160801b0319168352606435602084015264ffffffffff4216604084015260608301906001600160801b031916815260808301926001600160801b0319851684526001600160801b031960843516600052600080516020610dac833981519152602052604060002091815160801c6001600160801b03198454161783556020820151600184015564ffffffffff6040600285019301511674ffffffffffffffffffffffffffffffff00000000008354925160581c16916affffffffffffffffffffff60a81b161717905501905160801c6001600160801b03198254161790556001600160801b03198c166000527f2031468f0c30f7087de4da9398818763b546d7f89935fa65485c24ff1df26c0660205260406000208054680100000000000000008110156104e95760018101825561031191610bc9565b81546001600160801b0360039290921b91821b191660843560801c90911b1790556001600160801b0319608435166000527f2031468f0c30f7087de4da9398818763b546d7f89935fa65485c24ff1df26c0860205260406000208c60801c6001600160801b03198254161790556040519c8d809d6001600160801b03191690602001526001600160801b03191660408d01526001600160801b03191660608c015260643560808c01526001600160801b03196084351660a08c015260c08b0161018090526101a08b01906103e492610c02565b9060c43560e08b015260e4356101008b0152601f198a8303016101208b015261040c92610c02565b90601f198883030161014089015261042392610c02565b90601f198683030161016087015261043a92610c02565b90601f198483030161018085015261045192610c02565b601f199190038181018352601f0116810167ffffffffffffffff8111828210176104e95780604052600b815260406020820152815180604083015260005b8181106104d3577f88aa35e399ceb8d6b2e810abb3df607c140128e7c089c428f212598bda6a7eb783606081856000838284010152601f80199101168101030190a1005b806020809286010151606082860101520161048f565b634e487b7160e01b600052604160045260246000fd5b60405163524f409b60e01b8152600490fd5b604051630b2b152360e21b81526001600160801b03198e166004820152602490fd5b60405163b4586dfb60e01b81526001600160801b03198d166004820152602490fd5b604051633cea3dfb60e11b81523360048201527f97667070c54ef182b0f5858b034beac1b6f3089aa2d3188bb1e8929f4fa9b9296024820152604490fd5b600080fd5b34610593576060366003190112610593576105b1610b51565b6105b9610b68565b906001600160801b03198116600052600080516020610dac8339815191526020526040600020604051906105ec82610bad565b80546001600160801b03199060801b16825260018101546020830152600281015464ffffffffff811660408401526001600160801b03199060581b16606083015260036001600160801b031991015460801b16608082015261067f3360018060a01b03166000527f2031468f0c30f7087de4da9398818763b546d7f89935fa65485c24ff1df26c0c602052604060002090565b5460801b6001600160801b0319825116906001600160801b03191603610aa957604435156104ff57602081015115610a8757604435602082015110610a75576001600160801b031983166000527f2031468f0c30f7087de4da9398818763b546d7f89935fa65485c24ff1df26c01602052604060002060405180608081011067ffffffffffffffff6080830111176104e9576080810160405281546001600160801b03198160801b16908183526001600160801b03191660208301526002600184015493604084019485520154606083015215610a53575182516001600160801b03199081169116819003610a2957506044359051036104ff576020810151604435036109ea576001600160801b03198216600052600080516020610dac833981519152602052600060036040822082815582600182015582600282015501557f2031468f0c30f7087de4da9398818763b546d7f89935fa65485c24ff1df26c0860205260406000206001600160801b031981541690556001600160801b03199051166000527f2031468f0c30f7087de4da9398818763b546d7f89935fa65485c24ff1df26c0660205260406000209160005b8354808210156109e0576108468286610bc9565b906001600160801b03198616916001600160801b031991549060031b1c60801b16146108945750600019811461087e57600101610832565b634e487b7160e01b600052601160045260246000fd5b929391926000199181830191821161087e576108c76108b66108e79386610bc9565b90549060031b1c60801b9185610bc9565b9091906001600160801b0383549160031b9260801c831b921b1916179055565b815480156109ca5701906108fb8282610bc9565b6001600160801b0382549160031b1b19169055555b604051916001600160801b03191660208301526001600160801b03191660408201526044356060820152606081526080810181811067ffffffffffffffff8211176104e95780604052600e8152604060a083015281518060c084015260005b8181106109b55750600081840160e001527f88aa35e399ceb8d6b2e810abb3df607c140128e7c089c428f212598bda6a7eb792601f909101601f191681010360600190a1005b80602091850160e0838201519101520161096f565b634e487b7160e01b600052603160045260246000fd5b5050909150610910565b50906001600160801b03198216600052600080516020610dac8339815191526020526001604060002001805490604435820391821161087e5755610910565b60405163e2adf63b60e01b81526001600160801b0319861660048201526024810191909152604490fd5b60405163236ddac760e11b81526001600160801b031986166004820152602490fd5b604051633999656760e01b8152600490fd5b60405163236ddac760e11b81526001600160801b031983166004820152602490fd5b604051633cea3dfb60e11b81523360048201527fb165298935924f540e4181c03493a5d686c54a0aaeb3f6216de85b7ffbba77386024820152604490fd5b346105935760203660031901126105935760a0610b0a610b05610b51565b610c23565b6040519060806001600160801b0319918281511684526020810151602085015264ffffffffff60408201511660408501528260608201511660608501520151166080820152f35b600435906001600160801b03198216820361059357565b602435906001600160801b03198216820361059357565b9181601f840112156105935782359167ffffffffffffffff8311610593576020838186019501011161059357565b60a0810190811067ffffffffffffffff8211176104e957604052565b9190918054831015610bec57600052601060206000208360011c019260041b1690565b634e487b7160e01b600052603260045260246000fd5b908060209392818452848401376000828201840152601f01601f1916010190565b6080906040908151610c3481610bad565b6000938185809352826020820152828582015282606082015201526001600160801b03198091168352600080516020610dac83398151915260205281832092816003845195610c8287610bad565b82815460801b1687526001810154602088015282600282015464ffffffffff8116888a015260581b166060880152015460801b16608085015282610cc533610d6e565b918215610d30575b5050610d2b573360009081527f2031468f0c30f7087de4da9398818763b546d7f89935fa65485c24ff1df26c0c602052604090205460801b9080845116911603610d15575090565b5163ad41016d60e01b8152336004820152602490fd5b505090565b60ff92508080527f2031468f0c30f7087de4da9398818763b546d7f89935fa65485c24ff1df26bf36020528181203382526020522054168238610ccd565b6001600160a01b031660009081527f20a65b27cef39f8cbee4f7fb947dec892749a5832be62c5137636d27b859f46d602052604090205460ff169056fe2031468f0c30f7087de4da9398818763b546d7f89935fa65485c24ff1df26c07","linkReferences":{}},"methodIdentifiers":{"exerciseEquityCompensation(bytes16,bytes16,uint256)":"6b5e3d22","getPosition(bytes16)":"0d08aa0f","issueEquityCompensation(bytes16,bytes16,bytes16,uint256,bytes16,string,uint256,uint256,string,string,string,string)":"7e6a4910"},"id":53}