{"abi":[{"type":"function","name":"adjustStockPlanPool","inputs":[{"name":"stockPlanId","type":"bytes16","internalType":"bytes16"},{"name":"newSharesReserved","type":"uint256","internalType":"uint256"}],"outputs":[],"stateMutability":"nonpayable"},{"type":"function","name":"createStockPlan","inputs":[{"name":"_id","type":"bytes16","internalType":"bytes16"},{"name":"_stock_class_ids","type":"bytes16[]","internalType":"bytes16[]"},{"name":"_shares_reserved","type":"uint256","internalType":"uint256"}],"outputs":[],"stateMutability":"nonpayable"},{"type":"event","name":"StockPlanCreated","inputs":[{"name":"id","type":"bytes16","indexed":true,"internalType":"bytes16"},{"name":"shares_reserved","type":"uint256","indexed":false,"internalType":"uint256"}],"anonymous":false},{"type":"event","name":"StockPlanSharesReservedAdjusted","inputs":[{"name":"id","type":"bytes16","indexed":true,"internalType":"bytes16"},{"name":"newSharesReserved","type":"uint256","indexed":false,"internalType":"uint256"}],"anonymous":false},{"type":"event","name":"TxCreated","inputs":[{"name":"txType","type":"uint8","indexed":false,"internalType":"enum TxType"},{"name":"txData","type":"bytes","indexed":false,"internalType":"bytes"}],"anonymous":false},{"type":"error","name":"AccessControlUnauthorized","inputs":[{"name":"account","type":"address","internalType":"address"},{"name":"role","type":"bytes32","internalType":"bytes32"}]},{"type":"error","name":"InvalidStockClass","inputs":[{"name":"stock_class_id","type":"bytes16","internalType":"bytes16"}]},{"type":"error","name":"StockPlanAlreadyExists","inputs":[{"name":"stock_plan_id","type":"bytes16","internalType":"bytes16"}]},{"type":"error","name":"StockPlanNotFound","inputs":[{"name":"stock_plan_id","type":"bytes16","internalType":"bytes16"}]}],"bytecode":{"object":"0x6080806040523461001657610793908161001c8239f35b600080fdfe608080604052600436101561001357600080fd5b60003560e01c9081636b348f4114610202575063e1c5951c1461003557600080fd5b346101fd5760403660031901126101fd5761004e6106ae565b6024359061005b33610735565b156101bf576001600160801b0319168060005260207f2031468f0c30f7087de4da9398818763b546d7f89935fa65485c24ff1df26bff815260406000205480156101a65760001981019081116101905760016100b785926106ef565b5001556040519280828501528184526040840184811067ffffffffffffffff82111761017a5780604052600c815260406060860152845180608087015260005b81811061016657509060608683600060a07f88aa35e399ceb8d6b2e810abb3df607c140128e7c089c428f212598bda6a7eb7967f1e9d40e4803822959636a2b91223ee11f2630468a1935e468d00010cda1a74269a9b010152601f80199101168101030190a1604051908152a2005b808591880160a083820151910152016100f7565b634e487b7160e01b600052604160045260246000fd5b634e487b7160e01b600052601160045260246000fd5b604051632148b60160e01b815260048101849052602490fd5b604051633cea3dfb60e11b81523360048201527f97667070c54ef182b0f5858b034beac1b6f3089aa2d3188bb1e8929f4fa9b9296024820152604490fd5b600080fd5b346101fd5760603660031901126101fd5761021b6106ae565b60249167ffffffffffffffff919083358381116101fd57366023820112156101fd57806004013590848211610699578160051b91601f19603f840116840184811087821117610684576040528352856020840192820101903682116101fd578601915b8183106106635750505061029133610735565b15610626576001600160801b0319918281166000527f2031468f0c30f7087de4da9398818763b546d7f89935fa65485c24ff1df26bff60205260406000205461060d5760005b825181101561036857836102eb82856106c5565b51166000527f2031468f0c30f7087de4da9398818763b546d7f89935fa65485c24ff1df26bfd60205260406000205415610345576000198114610330576001016102d7565b85634e487b7160e01b60005260116004526000fd5b836103518792856106c5565b51604051630b2b152360e21b815291166004820152fd5b509391926040519160408301838110838211176105f85760405282526044356020830152600080516020610773833981519152546801000000000000000090818110156105f8578060016103cc9201600080516020610773833981519152556106ef565b9490946105e45783519182519384116105cf5783116105bb5750835482855580831061055f575b50602001908360005260206000208160011c9160005b8381106105105750600119811690038061049a575b877f62cb99f09061d2ccca9332015b4b6fc4feca38d02e058bb0683bb8ebed934cf0602089896001838b0151910155600080516020610773833981519152548185166000527f2031468f0c30f7087de4da9398818763b546d7f89935fa65485c24ff1df26bff83526040600020556040519360443585521692a2005b9260009360005b8181106104d857505050015581600160207f62cb99f09061d2ccca9332015b4b6fc4feca38d02e058bb0683bb8ebed934cf061041e565b9091946020610506600192885160801c908560041b60031b916001600160801b03809116831b921b19161790565b96019291016104a1565b6000805b60028110610529575083820155600101610409565b95906020610556600192845160801c908a60041b60031b916001600160801b03809116831b921b19161790565b92019601610514565b8460005260206000206001808501811c8201920160011c019060108460041b16806105a0575b505b81811061059457506103f3565b60008155600101610587565b600019908183019182549160200360031b1c16905588610585565b634e487b7160e01b60009081526041600452fd5b50634e487b7160e01b60009081526041600452fd5b634e487b7160e01b60005260006004526000fd5b84634e487b7160e01b60005260416004526000fd5b60405163b8f59a7760e01b815292166004830152509050fd5b604051633cea3dfb60e11b81523360048201527f97667070c54ef182b0f5858b034beac1b6f3089aa2d3188bb1e8929f4fa9b92981860152604490fd5b82356001600160801b0319811681036101fd5781526020928301920161027e565b87634e487b7160e01b60005260416004526000fd5b85634e487b7160e01b60005260416004526000fd5b600435906001600160801b0319821682036101fd57565b80518210156106d95760209160051b010190565b634e487b7160e01b600052603260045260246000fd5b60008051602061077383398151915280548210156106d95760005260011b7f56f47acd80319d8995fc42d7a85309fe5a60da51efd498ff894f57f1c05de82c0190600090565b6001600160a01b031660009081527f20a65b27cef39f8cbee4f7fb947dec892749a5832be62c5137636d27b859f46d602052604090205460ff169056fe2031468f0c30f7087de4da9398818763b546d7f89935fa65485c24ff1df26bfe","linkReferences":{}},"methodIdentifiers":{"adjustStockPlanPool(bytes16,uint256)":"e1c5951c","createStockPlan(bytes16,bytes16[],uint256)":"6b348f41"},"id":50}