{"abi":[{"type":"function","name":"adjustStockPlanPool","inputs":[{"name":"stockPlanId","type":"bytes16","internalType":"bytes16"},{"name":"newSharesReserved","type":"uint256","internalType":"uint256"}],"outputs":[],"stateMutability":"nonpayable"},{"type":"function","name":"createStockPlan","inputs":[{"name":"_id","type":"bytes16","internalType":"bytes16"},{"name":"_stock_class_ids","type":"bytes16[]","internalType":"bytes16[]"},{"name":"_shares_reserved","type":"uint256","internalType":"uint256"}],"outputs":[],"stateMutability":"nonpayable"},{"type":"event","name":"StockPlanCreated","inputs":[{"name":"id","type":"bytes16","indexed":true,"internalType":"bytes16"},{"name":"shares_reserved","type":"uint256","indexed":false,"internalType":"uint256"}],"anonymous":false},{"type":"event","name":"StockPlanSharesReservedAdjusted","inputs":[{"name":"id","type":"bytes16","indexed":true,"internalType":"bytes16"},{"name":"newSharesReserved","type":"uint256","indexed":false,"internalType":"uint256"}],"anonymous":false},{"type":"event","name":"TxCreated","inputs":[{"name":"txType","type":"uint8","indexed":false,"internalType":"enum TxType"},{"name":"txData","type":"bytes","indexed":false,"internalType":"bytes"}],"anonymous":false},{"type":"error","name":"InvalidStockClass","inputs":[{"name":"stock_class_id","type":"bytes16","internalType":"bytes16"}]},{"type":"error","name":"StockPlanAlreadyExists","inputs":[{"name":"stock_plan_id","type":"bytes16","internalType":"bytes16"}]},{"type":"error","name":"StockPlanNotFound","inputs":[{"name":"stock_plan_id","type":"bytes16","internalType":"bytes16"}]}],"bytecode":{"object":"0x6080806040523461001657610698908161001c8239f35b600080fdfe608080604052600436101561001357600080fd5b60003560e01c9081636b348f411461018f575063e1c5951c1461003557600080fd5b3461018a57604036600319011261018a5761004e6105f0565b602435906001600160801b031916806000526020907f2031468f0c30f7087de4da9398818763b546d7f89935fa65485c24ff1df26bfb82526040600020549081156101725750600019810190811161015c5760016100ac8492610631565b5001556040519181830152808252604082019082821067ffffffffffffffff8311176101465781604052600c82526040606084015282519081608085015260005b82811061013257600083860160a001527f88aa35e399ceb8d6b2e810abb3df607c140128e7c089c428f212598bda6a7eb7601f8401601f1916860186900360600185a1005b808291860160a083820151910152016100ed565b634e487b7160e01b600052604160045260246000fd5b634e487b7160e01b600052601160045260246000fd5b60249060405190632148b60160e01b82526004820152fd5b600080fd5b3461018a57606036600319011261018a576101a86105f0565b60249167ffffffffffffffff9190833583811161018a573660238201121561018a578060040135908482116105db578160051b91601f19603f8401168401848110878211176105c65760405283528560208401928201019036821161018a578601915b8183106105a5575050506001600160801b0319918281166000527f2031468f0c30f7087de4da9398818763b546d7f89935fa65485c24ff1df26bfb60205260406000205461058c5760005b82518110156102e7578361026a8285610607565b51166000527f2031468f0c30f7087de4da9398818763b546d7f89935fa65485c24ff1df26bf9602052604060002054156102c45760001981146102af57600101610256565b85634e487b7160e01b60005260116004526000fd5b836102d0879285610607565b51604051630b2b152360e21b815291166004820152fd5b509391926040519160408301838110838211176105775760405282526044356020830152600080516020610678833981519152546801000000000000000090818110156105775780600161034b920160008051602061067883398151915255610631565b94909461056357835191825193841161054e57831161053a575083548285558083106104de575b50602001908360005260206000208160011c9160005b83811061048f57506001198116900380610419575b877f62cb99f09061d2ccca9332015b4b6fc4feca38d02e058bb0683bb8ebed934cf0602089896001838b0151910155600080516020610678833981519152548185166000527f2031468f0c30f7087de4da9398818763b546d7f89935fa65485c24ff1df26bfb83526040600020556040519360443585521692a2005b9260009360005b81811061045757505050015581600160207f62cb99f09061d2ccca9332015b4b6fc4feca38d02e058bb0683bb8ebed934cf061039d565b9091946020610485600192885160801c908560041b60031b916001600160801b03809116831b921b19161790565b9601929101610420565b6000805b600281106104a8575083820155600101610388565b959060206104d5600192845160801c908a60041b60031b916001600160801b03809116831b921b19161790565b92019601610493565b8460005260206000206001808501811c8201920160011c019060108460041b168061051f575b505b8181106105135750610372565b60008155600101610506565b600019908183019182549160200360031b1c16905588610504565b634e487b7160e01b60009081526041600452fd5b50634e487b7160e01b60009081526041600452fd5b634e487b7160e01b60005260006004526000fd5b84634e487b7160e01b60005260416004526000fd5b60405163b8f59a7760e01b815292166004830152509050fd5b82356001600160801b03198116810361018a5781526020928301920161020b565b87634e487b7160e01b60005260416004526000fd5b85634e487b7160e01b60005260416004526000fd5b600435906001600160801b03198216820361018a57565b805182101561061b5760209160051b010190565b634e487b7160e01b600052603260045260246000fd5b600080516020610678833981519152805482101561061b5760005260011b7f0de091a2bf9cd02c57bf491faca384ed63a687285048f1ca1a1538d6eb308ac0019060009056fe2031468f0c30f7087de4da9398818763b546d7f89935fa65485c24ff1df26bfa","linkReferences":{}},"methodIdentifiers":{"adjustStockPlanPool(bytes16,uint256)":"e1c5951c","createStockPlan(bytes16,bytes16[],uint256)":"6b348f41"},"id":43}