{"abi":[{"type":"function","name":"getWarrantPosition","inputs":[{"name":"securityId","type":"bytes16","internalType":"bytes16"}],"outputs":[{"name":"","type":"tuple","internalType":"struct WarrantActivePosition","components":[{"name":"stakeholder_id","type":"bytes16","internalType":"bytes16"},{"name":"quantity","type":"uint256","internalType":"uint256"}]}],"stateMutability":"view"},{"type":"function","name":"issueWarrant","inputs":[{"name":"stakeholder_id","type":"bytes16","internalType":"bytes16"},{"name":"quantity","type":"uint256","internalType":"uint256"},{"name":"security_id","type":"bytes16","internalType":"bytes16"}],"outputs":[],"stateMutability":"nonpayable"},{"type":"event","name":"TxCreated","inputs":[{"name":"txType","type":"uint8","indexed":false,"internalType":"enum TxType"},{"name":"txData","type":"bytes","indexed":false,"internalType":"bytes"}],"anonymous":false},{"type":"error","name":"InvalidQuantity","inputs":[]},{"type":"error","name":"NoStakeholder","inputs":[{"name":"stakeholder_id","type":"bytes16","internalType":"bytes16"}]}],"bytecode":{"object":"0x608060405234801561001057600080fd5b506103ed806100206000396000f3fe608060405234801561001057600080fd5b50600436106100365760003560e01c8063bcc25ca91461003b578063e462db99146100de575b600080fd5b6100b561004936600461031b565b604080518082018252600080825260209182018190526001600160801b031993841681527f2031468f0c30f7087de4da9398818763b546d7f89935fa65485c24ff1df26c0682528290208251808401909352805460801b90931682526001909201549181019190915290565b6040805182516001600160801b0319168152602092830151928101929092520160405180910390f35b6100f16100ec36600461033d565b6100f3565b005b7f2031468f0c30f7087de4da9398818763b546d7f89935fa65485c24ff1df26bf361011d84610210565b6101268361029d565b6040805180820182526001600160801b031986811680835260208084018881528784166000818152601389018452878120965187548716608091821c178855925160019788015584815260128901845287812080548089018255908252848220600282040180546fffffffffffffffffffffffffffffffff929099166010026101000a918202199098168b851c919091021790965580865260148801835286862080549095168b831c1790945585519182019290925293840187905260608401919091529091016040516020818303038152906040529050610209600d826102c1565b5050505050565b6001600160801b0319811660009081527f2031468f0c30f7087de4da9398818763b546d7f89935fa65485c24ff1df26bf760205260408120547f2031468f0c30f7087de4da9398818763b546d7f89935fa65485c24ff1df26bf391036102995760405163b4586dfb60e01b81526001600160801b03198316600482015260240160405180910390fd5b5050565b806000036102be5760405163524f409b60e01b815260040160405180910390fd5b50565b7f88aa35e399ceb8d6b2e810abb3df607c140128e7c089c428f212598bda6a7eb782826040516102f2929190610379565b60405180910390a15050565b80356001600160801b03198116811461031657600080fd5b919050565b60006020828403121561032d57600080fd5b610336826102fe565b9392505050565b60008060006060848603121561035257600080fd5b61035b846102fe565b925060208401359150610370604085016102fe565b90509250925092565b6000600f841061039957634e487b7160e01b600052602160045260246000fd5b8382526020604081840152835180604085015260005b818110156103cb578581018301518582016060015282016103af565b506000606082860101526060601f19601f83011685010192505050939250505056","linkReferences":{}},"methodIdentifiers":{"getWarrantPosition(bytes16)":"bcc25ca9","issueWarrant(bytes16,uint256,bytes16)":"e462db99"},"id":44}