{"abi":[{"type":"function","name":"getWarrantPosition","inputs":[{"name":"securityId","type":"bytes16","internalType":"bytes16"}],"outputs":[{"name":"","type":"tuple","internalType":"struct WarrantActivePosition","components":[{"name":"stakeholder_id","type":"bytes16","internalType":"bytes16"},{"name":"quantity","type":"uint256","internalType":"uint256"}]}],"stateMutability":"view"},{"type":"function","name":"issueWarrant","inputs":[{"name":"stakeholder_id","type":"bytes16","internalType":"bytes16"},{"name":"quantity","type":"uint256","internalType":"uint256"},{"name":"security_id","type":"bytes16","internalType":"bytes16"}],"outputs":[],"stateMutability":"nonpayable"},{"type":"event","name":"TxCreated","inputs":[{"name":"txType","type":"uint8","indexed":false,"internalType":"enum TxType"},{"name":"txData","type":"bytes","indexed":false,"internalType":"bytes"}],"anonymous":false},{"type":"error","name":"InvalidQuantity","inputs":[]},{"type":"error","name":"NoStakeholder","inputs":[{"name":"stakeholder_id","type":"bytes16","internalType":"bytes16"}]}],"bytecode":{"object":"0x60808060405234610016576103d6908161001c8239f35b600080fdfe608060408181526004908136101561001657600080fd5b60009260e0908435821c908163bcc25ca9146102f3575063e462db991461003c57600080fd5b346102ef5760603660031901126102ef57610055610388565b6001600160801b0319926044359291602490858516908235908287036102eb577f2031468f0c30f7087de4da9398818763b546d7f89935fa65485c24ff1df26bfc805460001981146102d957600101905587811697888b526020977f2031468f0c30f7087de4da9398818763b546d7f89935fa65485c24ff1df26bf78952868c2054156102c35783156102b357865160018a898f8e6100f3866103a4565b85527f2031468f0c30f7087de4da9398818763b546d7f89935fa65485c24ff1df26c07838601938a85528b83525220925160801c8584541617835551910155898c527f2031468f0c30f7087de4da9398818763b546d7f89935fa65485c24ff1df26c068952868c2090815491680100000000000000008310156102a1576001830180825583101561028f578d52898d208260011c01916001600160801b03608084549260071b169260801c831b921b1916179055838b527f2031468f0c30f7087de4da9398818763b546d7f89935fa65485c24ff1df26c088852858b209160801c908254161790558351968688015283870152606086015260608552608085019585871067ffffffffffffffff88111761027e575050908185879352600d865260a08501528351928360c0860152825b848110610269578486018301849052837f88aa35e399ceb8d6b2e810abb3df607c140128e7c089c428f212598bda6a7eb7601f8701601f1916880188900360600189a180f35b85810180830151908401528793508101610223565b634e487b7160e01b88526041905286fd5b634e487b7160e01b8e5260328d52878efd5b634e487b7160e01b8e5260418d52878efd5b865163524f409b60e01b81528b90fd5b865163b4586dfb60e01b8152808c018b90528690fd5b634e487b7160e01b8c5260118b52858cfd5b8980fd5b8380fd5b83908634610385576020366003190112610385578083916020610314610388565b9461031e816103a4565b82815201526001600160801b031980931681527f2031468f0c30f7087de4da9398818763b546d7f89935fa65485c24ff1df26c07602052209060206001845192610367846103a4565b845460801b1693848452015491019081528251918252516020820152f35b80fd5b600435906001600160801b03198216820361039f57565b600080fd5b6040810190811067ffffffffffffffff8211176103c057604052565b634e487b7160e01b600052604160045260246000fd","linkReferences":{}},"methodIdentifiers":{"getWarrantPosition(bytes16)":"bcc25ca9","issueWarrant(bytes16,uint256,bytes16)":"e462db99"},"id":82}