{"abi":[{"type":"function","name":"getWarrantPosition","inputs":[{"name":"securityId","type":"bytes16","internalType":"bytes16"}],"outputs":[{"name":"","type":"tuple","internalType":"struct WarrantActivePosition","components":[{"name":"stakeholder_id","type":"bytes16","internalType":"bytes16"},{"name":"quantity","type":"uint256","internalType":"uint256"}]}],"stateMutability":"view"},{"type":"function","name":"issueWarrant","inputs":[{"name":"stakeholder_id","type":"bytes16","internalType":"bytes16"},{"name":"quantity","type":"uint256","internalType":"uint256"},{"name":"security_id","type":"bytes16","internalType":"bytes16"},{"name":"purchase_price","type":"uint256","internalType":"uint256"},{"name":"custom_id","type":"string","internalType":"string"},{"name":"security_law_exemptions_mapping","type":"string","internalType":"string"},{"name":"exercise_triggers_mapping","type":"string","internalType":"string"}],"outputs":[],"stateMutability":"nonpayable"},{"type":"event","name":"TxCreated","inputs":[{"name":"txType","type":"uint8","indexed":false,"internalType":"enum TxType"},{"name":"txData","type":"bytes","indexed":false,"internalType":"bytes"}],"anonymous":false},{"type":"error","name":"InvalidQuantity","inputs":[]},{"type":"error","name":"NoStakeholder","inputs":[{"name":"stakeholder_id","type":"bytes16","internalType":"bytes16"}]}],"bytecode":{"object":"0x60808060405234610016576104db908161001c8239f35b600080fdfe608080604052600436101561001357600080fd5b60003560e01c908163bcc25ca9146103c4575063fe97e6271461003557600080fd5b346103bf5760e03660031901126103bf5761004e610459565b6044356001600160801b0319811690036103bf5760843567ffffffffffffffff81116103bf57610082903690600401610470565b60a43567ffffffffffffffff81116103bf576100a2903690600401610470565b9360c43567ffffffffffffffff81116103bf576100c3903690600401610470565b91906001600160801b031982166000527f2031468f0c30f7087de4da9398818763b546d7f89935fa65485c24ff1df26bf76020526040600020541561039d576024351561038b576040516101168161049e565b6001600160801b03198316815260016020820160243581526001600160801b0319604435166000527f2031468f0c30f7087de4da9398818763b546d7f89935fa65485c24ff1df26c066020526040600020925160801c6001600160801b0319845416178355519101556001600160801b031982166000527f2031468f0c30f7087de4da9398818763b546d7f89935fa65485c24ff1df26c056020526040600020908154936801000000000000000085101561035f576001850180845585101561037557601f946102d09360005260206000208160011c0190608082549160071b16906001600160801b0360443560801c831b921b19161790556001600160801b0319604435166000527f2031468f0c30f7087de4da9398818763b546d7f89935fa65485c24ff1df26c0760205260406000208460801c6001600160801b03198254161790556102c06102ac604051998a966001600160801b031916602088015260243560408801526060996001600160801b0319604435168b890152606435608089015260e060a08901526101008801916104ba565b86199a8b98898884030160c08901526104ba565b91868584030160e08601526104ba565b038281018552011682019180831067ffffffffffffffff84111761035f5782604052600d83526040602084015280519081604085015260005b82811061034a5750507f88aa35e399ceb8d6b2e810abb3df607c140128e7c089c428f212598bda6a7eb793601f8260008587958601015201168101030190a1005b80602080928401015185828801015201610309565b634e487b7160e01b600052604160045260246000fd5b634e487b7160e01b600052603260045260246000fd5b60405163524f409b60e01b8152600490fd5b60405163b4586dfb60e01b81526001600160801b031983166004820152602490fd5b600080fd5b346103bf5760203660031901126103bf57604090600060206103e4610459565b926103ee8161049e565b82815201526001600160801b03198091166000527f2031468f0c30f7087de4da9398818763b546d7f89935fa65485c24ff1df26c0660205281600020906020600184519261043b8461049e565b845460801b1693848452015491019081528251918252516020820152f35b600435906001600160801b0319821682036103bf57565b9181601f840112156103bf5782359167ffffffffffffffff83116103bf57602083818601950101116103bf57565b6040810190811067ffffffffffffffff82111761035f57604052565b908060209392818452848401376000828201840152601f01601f191601019056","linkReferences":{}},"methodIdentifiers":{"getWarrantPosition(bytes16)":"bcc25ca9","issueWarrant(bytes16,uint256,bytes16,uint256,string,string,string)":"fe97e627"},"id":44}