{"abi":[{"type":"function","name":"DEFAULT_ADMIN_ROLE","inputs":[],"outputs":[{"name":"","type":"bytes32","internalType":"bytes32"}],"stateMutability":"view"},{"type":"function","name":"INVESTOR_ROLE","inputs":[],"outputs":[{"name":"","type":"bytes32","internalType":"bytes32"}],"stateMutability":"view"},{"type":"function","name":"OPERATOR_ROLE","inputs":[],"outputs":[{"name":"","type":"bytes32","internalType":"bytes32"}],"stateMutability":"view"},{"type":"function","name":"acceptAdmin","inputs":[],"outputs":[],"stateMutability":"nonpayable"},{"type":"function","name":"getAdmin","inputs":[],"outputs":[{"name":"","type":"address","internalType":"address"}],"stateMutability":"view"},{"type":"function","name":"getPendingAdmin","inputs":[],"outputs":[{"name":"","type":"address","internalType":"address"}],"stateMutability":"view"},{"type":"function","name":"getRoleAdmin","inputs":[{"name":"role","type":"bytes32","internalType":"bytes32"}],"outputs":[{"name":"","type":"bytes32","internalType":"bytes32"}],"stateMutability":"view"},{"type":"function","name":"grantRole","inputs":[{"name":"role","type":"bytes32","internalType":"bytes32"},{"name":"account","type":"address","internalType":"address"}],"outputs":[],"stateMutability":"nonpayable"},{"type":"function","name":"hasRole","inputs":[{"name":"role","type":"bytes32","internalType":"bytes32"},{"name":"account","type":"address","internalType":"address"}],"outputs":[{"name":"","type":"bool","internalType":"bool"}],"stateMutability":"view"},{"type":"function","name":"initializeAccessControl","inputs":[],"outputs":[],"stateMutability":"nonpayable"},{"type":"function","name":"renounceRole","inputs":[{"name":"role","type":"bytes32","internalType":"bytes32"},{"name":"account","type":"address","internalType":"address"}],"outputs":[],"stateMutability":"nonpayable"},{"type":"function","name":"revokeRole","inputs":[{"name":"role","type":"bytes32","internalType":"bytes32"},{"name":"account","type":"address","internalType":"address"}],"outputs":[],"stateMutability":"nonpayable"},{"type":"function","name":"supportsInterface","inputs":[{"name":"interfaceId","type":"bytes4","internalType":"bytes4"}],"outputs":[{"name":"","type":"bool","internalType":"bool"}],"stateMutability":"view"},{"type":"function","name":"transferAdmin","inputs":[{"name":"newAdmin","type":"address","internalType":"address"}],"outputs":[],"stateMutability":"nonpayable"},{"type":"event","name":"Initialized","inputs":[{"name":"version","type":"uint8","indexed":false,"internalType":"uint8"}],"anonymous":false},{"type":"event","name":"RoleAdminChanged","inputs":[{"name":"role","type":"bytes32","indexed":true,"internalType":"bytes32"},{"name":"previousAdminRole","type":"bytes32","indexed":true,"internalType":"bytes32"},{"name":"newAdminRole","type":"bytes32","indexed":true,"internalType":"bytes32"}],"anonymous":false},{"type":"event","name":"RoleGranted","inputs":[{"name":"role","type":"bytes32","indexed":true,"internalType":"bytes32"},{"name":"account","type":"address","indexed":true,"internalType":"address"},{"name":"sender","type":"address","indexed":true,"internalType":"address"}],"anonymous":false},{"type":"event","name":"RoleRevoked","inputs":[{"name":"role","type":"bytes32","indexed":true,"internalType":"bytes32"},{"name":"account","type":"address","indexed":true,"internalType":"address"},{"name":"sender","type":"address","indexed":true,"internalType":"address"}],"anonymous":false},{"type":"error","name":"AccessControlBadConfirmation","inputs":[]},{"type":"error","name":"AccessControlInvalidTransfer","inputs":[]},{"type":"error","name":"AccessControlUnauthorized","inputs":[{"name":"account","type":"address","internalType":"address"},{"name":"role","type":"bytes32","internalType":"bytes32"}]}],"bytecode":{"object":"0x6080806040523461001657610b6d908161001c8239f35b600080fdfe608060408181526004918236101561001657600080fd5b600092833560e01c91826301ffc9a714610906575081630e18b68114610687578163248a9ca3146106525781632f2ff15d1461049557816336568abe1461044f5781636e9960c31461041957816375829def1461036d57816376082a5e1461034457816391d14854146102f0578163a217fddf146102d5578163d04681561461028d578163d547741f146101ea57508063f5b541a6146101be5763fea0c02e146100bf57600080fd5b8190346101bb57816003193601126101bb57818052600080516020610aed8339815191526020908152818320338085529152818320805460ff19166001179055600080516020610acd83398151915280546001600160a01b03191690911790553333837f2f8788117e7eff1d82e926ec794901d17c78024a50270940304540a733656f0d8180a4600080516020610b4d83398151915290818352600080516020610b2d8339815191526020528281812081815491557fbd79b86ffe0ab8e8776151514217cd7cacd52c909f66475c3af44e129f0b00ff93848380a4600080516020610b0d8339815191529081845283209183835493558380a480f35b50fd5b50346101e657816003193601126101e65760209051600080516020610b4d8339815191528152f35b5080fd5b91905034610289578060031936011261028957813590610208610959565b92828552600080516020610b2d83398151915280602052828620548652600080516020610aed83398151915260205282862033875260205260ff83872054161561025a57856102578686610974565b80f35b8386526020908152828620549251633cea3dfb60e11b8152339281019283529082019290925281906040010390fd5b8280fd5b5050346101e657816003193601126101e6577f2031468f0c30f7087de4da9398818763b546d7f89935fa65485c24ff1df26bf65490516001600160a01b039091168152602090f35b5050346101e657816003193601126101e65751908152602090f35b9050346102895781600319360112610289578160209360ff92610311610959565b90358252600080516020610aed83398151915286528282206001600160a01b039091168252855220549151911615158152f35b5050346101e657816003193601126101e65760209051600080516020610b0d8339815191528152f35b9050346102895760203660031901126102895780356001600160a01b03818116939184900361041557831561040757600080516020610acd833981519152541633036103ea5750507f2031468f0c30f7087de4da9398818763b546d7f89935fa65485c24ff1df26bf680546001600160a01b031916909117905580f35b90836044925191633cea3dfb60e11b835233908301526024820152fd5b50516356b4a7db60e11b8152fd5b8480fd5b5050346101e657816003193601126101e657600080516020610acd8339815191525490516001600160a01b039091168152602090f35b8383346101e657806003193601126101e657610469610959565b90336001600160a01b038316036104865750610257919235610974565b5163334bd91960e11b81528390fd5b919050346102895780600319360112610289578135916104b3610959565b91838552600080516020610b2d833981519152602092818452828720548752600080516020610aed83398151915291828552838820338952855260ff8489205416156106245750508486528083528186206001600160a01b039094168087529383528186205460ff1615610525578580f35b84865280835281862084875283528186209160ff19926001848254161790557f2f8788117e7eff1d82e926ec794901d17c78024a50270940304540a733656f0d95338682898b80a41561057757508580f35b600080516020610b4d833981519152808852828552818820868952855260ff8289205416156105fd575b50600080516020610b0d83398151915293848852828152818820868952815260ff8289205416156105d3575b50508580f35b6001928589528152818820908689525286209182541617905533928480a4388080808080806105cd565b8088528285528188208689528552818820600185825416179055853391888a80a4386105a1565b8688528452828720548351633cea3dfb60e11b81523392810192835260208301919091529081906040010390fd5b905034610289576020366003190112610289576020928291358152600080516020610b2d833981519152845220549051908152f35b919050346102895782600319360112610289578051916106a6836109ff565b601283526106cf6020937120b1b1b2b83a34b7339030b236b4b717171760711b85820152610a31565b7f2031468f0c30f7087de4da9398818763b546d7f89935fa65485c24ff1df26bf6805490916001600160a01b0391821633036108f85750917020b1b1b2b83a32b21030b236b4b717171760791b916102579493600080516020610acd8339815191525416868052600080516020610aed833981519152808652838820338952865260ff848920541615610803575b600080516020610acd83398151915280546001600160a01b03191633179055878052808652838820828952865260ff84892054166107bd575b505080546001600160a01b031916905551916107b1836109ff565b60118352820152610a31565b87805285528287208188528552828720805460ff191690553390877ff6391f5c32d9c69d2a47ea670b442974b53935d1edc7fd64eb21e047a839171b8180a43880610796565b878052808652838820338952865283882060ff19906001828254161790557f2f8788117e7eff1d82e926ec794901d17c78024a50270940304540a733656f0d33338b838180a4600080516020610b4d833981519152808b52838952868b20338c52895260ff878c205416156108d0575b50600080516020610b0d83398151915291828b52838952868b20338c52895260ff878c205416156108a7575b50505061075d565b828b52838952868b20338c5289526001878c2091825416179055339133918b80a438808061089f565b808b52838952868b20338c528952868b2060018482541617905533903390838d80a438610873565b83516356b4a7db60e11b8152fd5b849134610289576020366003190112610289573563ffffffff60e01b81168091036102895760209250637965db0b60e01b8114908115610948575b5015158152f35b6301ffc9a760e01b14905083610941565b602435906001600160a01b038216820361096f57565b600080fd5b90600091808352600080516020610aed83398151915280602052604084209260018060a01b03169283855260205260ff6040852054166109b5575b50505050565b818452602052604083208284526020526040832060ff1981541690557ff6391f5c32d9c69d2a47ea670b442974b53935d1edc7fd64eb21e047a839171b339380a4388080806109af565b6040810190811067ffffffffffffffff821117610a1b57604052565b634e487b7160e01b600052604160045260246000fd5b60405190602090828281019263104c13eb60e21b845280602483015282519283604484015260005b848110610ab557505050808260006064601f9560839501015283199384910116810103604481018552011682019082821067ffffffffffffffff831117610a1b57600092839260405251906a636f6e736f6c652e6c6f675afa50565b818101830151878201606401528693508201610a5956fe2031468f0c30f7087de4da9398818763b546d7f89935fa65485c24ff1df26bf52031468f0c30f7087de4da9398818763b546d7f89935fa65485c24ff1df26bf3b165298935924f540e4181c03493a5d686c54a0aaeb3f6216de85b7ffbba77382031468f0c30f7087de4da9398818763b546d7f89935fa65485c24ff1df26bf497667070c54ef182b0f5858b034beac1b6f3089aa2d3188bb1e8929f4fa9b929","linkReferences":{}},"methodIdentifiers":{"DEFAULT_ADMIN_ROLE()":"a217fddf","INVESTOR_ROLE()":"76082a5e","OPERATOR_ROLE()":"f5b541a6","acceptAdmin()":"0e18b681","getAdmin()":"6e9960c3","getPendingAdmin()":"d0468156","getRoleAdmin(bytes32)":"248a9ca3","grantRole(bytes32,address)":"2f2ff15d","hasRole(bytes32,address)":"91d14854","initializeAccessControl()":"fea0c02e","renounceRole(bytes32,address)":"36568abe","revokeRole(bytes32,address)":"d547741f","supportsInterface(bytes4)":"01ffc9a7","transferAdmin(address)":"75829def"},"id":50}