{"abi":[{"type":"function","name":"createStakeholder","inputs":[{"name":"_id","type":"bytes16","internalType":"bytes16"}],"outputs":[],"stateMutability":"nonpayable"},{"type":"function","name":"getStakeholderPositions","inputs":[{"name":"stakeholder_id","type":"bytes16","internalType":"bytes16"}],"outputs":[{"name":"","type":"tuple","internalType":"struct StakeholderPositions","components":[{"name":"stocks","type":"tuple[]","internalType":"struct StockActivePosition[]","components":[{"name":"stakeholder_id","type":"bytes16","internalType":"bytes16"},{"name":"stock_class_id","type":"bytes16","internalType":"bytes16"},{"name":"quantity","type":"uint256","internalType":"uint256"},{"name":"share_price","type":"uint256","internalType":"uint256"}]},{"name":"warrants","type":"tuple[]","internalType":"struct WarrantActivePosition[]","components":[{"name":"stakeholder_id","type":"bytes16","internalType":"bytes16"},{"name":"quantity","type":"uint256","internalType":"uint256"}]},{"name":"convertibles","type":"tuple[]","internalType":"struct ConvertibleActivePosition[]","components":[{"name":"stakeholder_id","type":"bytes16","internalType":"bytes16"},{"name":"investment_amount","type":"uint256","internalType":"uint256"}]},{"name":"equityCompensations","type":"tuple[]","internalType":"struct EquityCompensationActivePosition[]","components":[{"name":"stakeholder_id","type":"bytes16","internalType":"bytes16"},{"name":"quantity","type":"uint256","internalType":"uint256"},{"name":"timestamp","type":"uint40","internalType":"uint40"},{"name":"stock_class_id","type":"bytes16","internalType":"bytes16"},{"name":"stock_plan_id","type":"bytes16","internalType":"bytes16"}]}]}],"stateMutability":"view"},{"type":"function","name":"linkStakeholderAddress","inputs":[{"name":"stakeholder_id","type":"bytes16","internalType":"bytes16"},{"name":"wallet_address","type":"address","internalType":"address"}],"outputs":[],"stateMutability":"nonpayable"},{"type":"event","name":"StakeholderAddressLinked","inputs":[{"name":"stakeholder_id","type":"bytes16","indexed":true,"internalType":"bytes16"},{"name":"wallet_address","type":"address","indexed":true,"internalType":"address"}],"anonymous":false},{"type":"event","name":"StakeholderCreated","inputs":[{"name":"id","type":"bytes16","indexed":true,"internalType":"bytes16"}],"anonymous":false},{"type":"error","name":"AddressAlreadyLinked","inputs":[{"name":"wallet_address","type":"address","internalType":"address"}]},{"type":"error","name":"StakeholderAlreadyExists","inputs":[{"name":"stakeholder_id","type":"bytes16","internalType":"bytes16"}]}],"bytecode":{"object":"0x6080806040523461001657610a8a908161001c8239f35b600080fdfe604060808152600436101561001357600080fd5b600090813560e01c80636d6cf824146102965780639e35325f146101445763eafa8a5f1461004057600080fd5b346101405780600319360112610140576100586108ff565b6024356001600160a01b03811692919083810361013c576001600160a01b03811660009081527f2031468f0c30f7087de4da9398818763b546d7f89935fa65485c24ff1df26c0860205260409020546001600160801b0319939060801b841661012557506001600160a01b031660009081527f2031468f0c30f7087de4da9398818763b546d7f89935fa65485c24ff1df26c08602052604090208160801c83825416179055167fcb95900f20209676b1525cc13b65d7da43bed8372441da3bef171a88d91c54d68380a380f35b5163618ab76160e11b815260048101859052602490fd5b8480fd5b5080fd5b50346101405760203660031901126101405761015e6108ff565b6001600160801b03198116918284527f2031468f0c30f7087de4da9398818763b546d7f89935fa65485c24ff1df26bf791826020528185205461027e577f2031468f0c30f7087de4da9398818763b546d7f89935fa65485c24ff1df26bf6908154906801000000000000000082101561026a5760018201808455821015610256578160011c7ff914494c1c9f5225b90a8394780d36857ab4e0eda6db8a41ed9ef9647838916501916001600160801b03608084549260071b169260801c831b921b191617905554918385526020528320557f53df47344d1cdf2ddb4901af5df61e37e14606bb7c8cc004d65c7c83ab3d06938280a280f35b634e487b7160e01b87526032600452602487fd5b634e487b7160e01b87526041600452602487fd5b81516333270c6160e01b815260048101859052602490fd5b5090346108fc57602090816003193601126108fc5791906102b56108ff565b906102be6109f0565b506102c76109f0565b926001600160801b0319809316938486527f2031468f0c30f7087de4da9398818763b546d7f89935fa65485c24ff1df26bfc835281862093845461031261030d82610a13565b6109ca565b818152601f1996908761032484610a13565b018a5b8181106108c65750508452885b828110610834575050508587527f2031468f0c30f7087de4da9398818763b546d7f89935fa65485c24ff1df26c05845282872090815461037661030d82610a13565b928184528761038483610a13565b018a5b81811061080a575050868501938452895b8281106107a8575050508688527f2031468f0c30f7087de4da9398818763b546d7f89935fa65485c24ff1df26bff85528388209687546103da61030d82610a13565b98818a52886103e883610a13565b018b5b81811061077d575050868601998a528a5b82811061070f5750505088527f2031468f0c30f7087de4da9398818763b546d7f89935fa65485c24ff1df26c0285528388209384549461043e61030d87610a13565b908682528861044c88610a13565b018b5b8181106106d05750506060968787019283528b5b818110610616575050825188815295516080878a01819052815160a0808a01829052989c60c08e019b9a9998929796959450928a01908e5b8181106105e55750505051988a8c820301848d015288808b5192838152019a01908d5b81811061059c575050505197898b820301878c015287808a5192838152019901908c5b81811061055557505050519789880301838a0152858089519889815201980199945b878610610510578989038af35b8a51805184168a52808801518a8901528083015164ffffffffff168a8401528082015184168a8301528401518316898501529986019997840197600190950194610503565b90919a9c98998a85826105868f946001959d999a9b9c9d51602080916001600160801b031981511684520151910152565b9b9f9d9b019b9a959998979695019291016104e1565b90919b9d999a8b86828f6001946105cd919e9a9b9c9d9e51602080916001600160801b031981511684520151910152565b019d0191019d9b9a999d9897969594989190916104be565b8251805189168e52808d015189168e8e015280880151888f01528b01518b8e01529b88019b918b019160010161049b565b806106bd81859f9b96959d9e9d8d898b8f6106356106c399849661091b565b9390549183600393608096851b1c861b1681527f2031468f0c30f7087de4da9398818763b546d7f89935fa65485c24ff1df26c03865220828c51966106786109aa565b96828454881b16885260018401549088015260028301549064ffffffffff82169088015260581b168d8601520154821b16908201526106b78383610a50565b52610a50565b50610a2b565b9b9192979b9a999a610463565b89906106e29d9994939d9c9b9c6109aa565b8a81528a838201528a878201528a60608201528a6080820152828286010152019b9192979b9a999a61044f565b806106bd818d8b9f9b9d9e9d610768907f2031468f0c30f7087de4da9398818763b546d7f89935fa65485c24ff1df26c008f8f8d6107506107729b8d61091b565b90549060031b1c60801b169052528d20915191610a64565b6106b78383610a50565b9a969a9998996103fc565b808c8b9a9e9a80939d9e9d61079061098a565b928d84528d83850152010152019b979b9a999a6103eb565b80846107bd6107ff93859e9a9e9d9c9d61091b565b90549060031b1c60801b1688527f2031468f0c30f7087de4da9398818763b546d7f89935fa65485c24ff1df26c0689526106bd818d8a20610768895191610a64565b999599989798610398565b889061081a9c989c9b9a9b61098a565b8981528983820152828289010152019a969a999899610387565b806106bd81898760028b9f9b9d9e9d6108506108bb988a61091b565b93905460809460031b1c841b168d527f2031468f0c30f7087de4da9398818763b546d7f89935fa65485c24ff1df26bfd8452808d20908c51948c610892610954565b9581855480921b1687521690850152600182015490840152015460608201526106b78383610a50565b989498979697610334565b8890888d6108d89e9a9e9d9c9d610954565b918183528185840152820152896060820152828286010152019a969a999899610327565b80fd5b600435906001600160801b03198216820361091657565b600080fd5b919091805483101561093e57600052601060206000208360011c019260041b1690565b634e487b7160e01b600052603260045260246000fd5b604051906080820182811067ffffffffffffffff82111761097457604052565b634e487b7160e01b600052604160045260246000fd5b604051906040820182811067ffffffffffffffff82111761097457604052565b6040519060a0820182811067ffffffffffffffff82111761097457604052565b6040519190601f01601f1916820167ffffffffffffffff81118382101761097457604052565b6109f8610954565b90606082526060602083015260606040830152606080830152565b67ffffffffffffffff81116109745760051b60200190565b6000198114610a3a5760010190565b634e487b7160e01b600052601160045260246000fd5b805182101561093e5760209160051b010190565b906001610a6f61098a565b835460801b6001600160801b0319168152920154602083015256","linkReferences":{}},"methodIdentifiers":{"createStakeholder(bytes16)":"9e35325f","getStakeholderPositions(bytes16)":"6d6cf824","linkStakeholderAddress(bytes16,address)":"eafa8a5f"},"id":39}