{"abi":[{"type":"function","name":"createStakeholder","inputs":[{"name":"_id","type":"bytes16","internalType":"bytes16"}],"outputs":[],"stateMutability":"nonpayable"},{"type":"function","name":"getStakeholderPositions","inputs":[{"name":"stakeholder_id","type":"bytes16","internalType":"bytes16"}],"outputs":[{"name":"","type":"tuple","internalType":"struct StakeholderPositions","components":[{"name":"stocks","type":"tuple[]","internalType":"struct StockActivePosition[]","components":[{"name":"stakeholder_id","type":"bytes16","internalType":"bytes16"},{"name":"stock_class_id","type":"bytes16","internalType":"bytes16"},{"name":"quantity","type":"uint256","internalType":"uint256"},{"name":"share_price","type":"uint256","internalType":"uint256"}]},{"name":"warrants","type":"tuple[]","internalType":"struct WarrantActivePosition[]","components":[{"name":"stakeholder_id","type":"bytes16","internalType":"bytes16"},{"name":"quantity","type":"uint256","internalType":"uint256"}]},{"name":"convertibles","type":"tuple[]","internalType":"struct ConvertibleActivePosition[]","components":[{"name":"stakeholder_id","type":"bytes16","internalType":"bytes16"},{"name":"investment_amount","type":"uint256","internalType":"uint256"}]},{"name":"equityCompensations","type":"tuple[]","internalType":"struct EquityCompensationActivePosition[]","components":[{"name":"stakeholder_id","type":"bytes16","internalType":"bytes16"},{"name":"quantity","type":"uint256","internalType":"uint256"},{"name":"timestamp","type":"uint40","internalType":"uint40"},{"name":"stock_class_id","type":"bytes16","internalType":"bytes16"},{"name":"stock_plan_id","type":"bytes16","internalType":"bytes16"}]}]}],"stateMutability":"view"},{"type":"function","name":"linkStakeholderAddress","inputs":[{"name":"stakeholder_id","type":"bytes16","internalType":"bytes16"},{"name":"wallet_address","type":"address","internalType":"address"}],"outputs":[],"stateMutability":"nonpayable"},{"type":"event","name":"StakeholderAddressLinked","inputs":[{"name":"stakeholder_id","type":"bytes16","indexed":true,"internalType":"bytes16"},{"name":"wallet_address","type":"address","indexed":true,"internalType":"address"}],"anonymous":false},{"type":"event","name":"StakeholderCreated","inputs":[{"name":"id","type":"bytes16","indexed":true,"internalType":"bytes16"}],"anonymous":false},{"type":"error","name":"AddressAlreadyLinked","inputs":[{"name":"wallet_address","type":"address","internalType":"address"}]},{"type":"error","name":"StakeholderAlreadyExists","inputs":[{"name":"stakeholder_id","type":"bytes16","internalType":"bytes16"}]}],"bytecode":{"object":"0x608060405234801561001057600080fd5b50610ae7806100206000396000f3fe608060405234801561001057600080fd5b50600436106100415760003560e01c80636d6cf824146100465780639e35325f1461006f578063eafa8a5f14610084575b600080fd5b610059610054366004610898565b610097565b604051610066919061097a565b60405180910390f35b61008261007d366004610898565b610667565b005b610082610092366004610a51565b61078b565b6100c26040518060800160405280606081526020016060815260200160608152602001606081525090565b60007f2031468f0c30f7087de4da9398818763b546d7f89935fa65485c24ff1df26bf390506101126040518060800160405280606081526020016060815260200160608152602001606081525090565b6001600160801b031984166000908152600a830160205260409020805467ffffffffffffffff81111561014757610147610a94565b60405190808252806020026020018201604052801561019957816020015b6040805160808101825260008082526020808301829052928201819052606082015282526000199092019101816101655790505b50825260005b815481101561026e5783600a0160010160008383815481106101c3576101c3610aaa565b600091825260208083206002808404909101546001600160801b031960106001958616026101000a909104608090811b8216875286840197909752604095860190942085518088018752815480891b87168252600160801b900490971b90941691860191909152908201549284019290925201546060820152835180518390811061025057610250610aaa565b6020026020010181905250808061026690610ac0565b91505061019f565b506001600160801b0319851660009081526013840160205260409020805467ffffffffffffffff8111156102a4576102a4610a94565b6040519080825280602002602001820160405280156102e957816020015b60408051808201909152600080825260208201528152602001906001900390816102c25790505b50602084015260005b81548110156103a25784601301600101600083838154811061031657610316610aaa565b6000918252602080832060028304015460019283166010026101000a9004608090811b6001600160801b031990811686528583019690965260409485019093208451808601909552805490931b90941683520154818301529085015180518390811061038457610384610aaa565b6020026020010181905250808061039a90610ac0565b9150506102f2565b506001600160801b031986166000908152600d850160205260409020805467ffffffffffffffff8111156103d8576103d8610a94565b60405190808252806020026020018201604052801561041d57816020015b60408051808201909152600080825260208201528152602001906001900390816103f65790505b50604085015260005b81548110156104d55785600d01600101600083838154811061044a5761044a610aaa565b600091825260208083206002830401546001600160801b031960106001948516026101000a909104608090811b8216865285830196909652604094850190932084518086018652815490961b9093168552910154908301528601518051839081106104b7576104b7610aaa565b602002602001018190525080806104cd90610ac0565b915050610426565b506001600160801b0319871660009081526010860160205260409020805467ffffffffffffffff81111561050b5761050b610a94565b60405190808252806020026020018201604052801561056457816020015b6040805160a0810182526000808252602080830182905292820181905260608201819052608082015282526000199092019101816105295790505b50606086015260005b815481101561065a5786601001600101600083838154811061059157610591610aaa565b6000918252602080832060028084049091015460019384166010026101000a9004608090811b6001600160801b03199081168752868401979097526040958601909420855160a0810187528154861b88168152938101549284019290925281015464ffffffffff81169483019490945265010000000000909304821b8416606080830191909152600390930154821b9093169083015287015180518390811061063c5761063c610aaa565b6020026020010181905250808061065290610ac0565b91505061056d565b5093979650505050505050565b6001600160801b0319811660009081527f2031468f0c30f7087de4da9398818763b546d7f89935fa65485c24ff1df26bf760205260409020547f2031468f0c30f7087de4da9398818763b546d7f89935fa65485c24ff1df26bf390156106f1576040516333270c6160e01b81526001600160801b0319831660048201526024015b60405180910390fd5b6003810180546001808201835560008381526020808220600285040180546fffffffffffffffffffffffffffffffff949095166010026101000a93840219909416608088901c939093029290921790925591546001600160801b0319851680835260048501909352604080832091909155517f53df47344d1cdf2ddb4901af5df61e37e14606bb7c8cc004d65c7c83ab3d06939190a25050565b6001600160a01b03811660009081527f2031468f0c30f7087de4da9398818763b546d7f89935fa65485c24ff1df26c0960205260409020547f2031468f0c30f7087de4da9398818763b546d7f89935fa65485c24ff1df26bf39060801b6001600160801b0319161561081b5760405163618ab76160e11b81526001600160a01b03831660048201526024016106e8565b6001600160a01b03821660008181526016830160205260408082208054608088901c6001600160801b0319918216179091559051908616917fcb95900f20209676b1525cc13b65d7da43bed8372441da3bef171a88d91c54d691a3505050565b80356001600160801b03198116811461089357600080fd5b919050565b6000602082840312156108aa57600080fd5b6108b38261087b565b9392505050565b600081518084526020808501945080840160005b838110156108ff57815180516001600160801b031916885283015183880152604090960195908201906001016108ce565b509495945050505050565b600081518084526020808501945080840160005b838110156108ff57815180516001600160801b0319908116895284820151858a015260408083015164ffffffffff16908a01526060808301518216908a0152608091820151169088015260a0909601959082019060010161091e565b602080825282516080838301819052815160a0850181905260009392830191849160c08701905b808410156109ec57845180516001600160801b0319908116845287820151168784015260408082015190840152606090810151908301529385019360019390930192908201906109a1565b50848801519450601f19935083878203016040880152610a0c81866108ba565b9450506040870151915082868503016060870152610a2a84836108ba565b93506060870151915082868503018187015250610a47838261090a565b9695505050505050565b60008060408385031215610a6457600080fd5b610a6d8361087b565b915060208301356001600160a01b0381168114610a8957600080fd5b809150509250929050565b634e487b7160e01b600052604160045260246000fd5b634e487b7160e01b600052603260045260246000fd5b600060018201610ae057634e487b7160e01b600052601160045260246000fd5b506001019056","linkReferences":{}},"methodIdentifiers":{"createStakeholder(bytes16)":"9e35325f","getStakeholderPositions(bytes16)":"6d6cf824","linkStakeholderAddress(bytes16,address)":"eafa8a5f"},"id":39}