{"abi":[{"type":"constructor","inputs":[{"name":"_diamondCutFacet","type":"address","internalType":"address"},{"name":"_issuerFacet","type":"address","internalType":"address"},{"name":"_stakeholderFacet","type":"address","internalType":"address"},{"name":"_stockClassFacet","type":"address","internalType":"address"},{"name":"_stockFacet","type":"address","internalType":"address"},{"name":"_convertiblesFacet","type":"address","internalType":"address"},{"name":"_equityCompensationFacet","type":"address","internalType":"address"},{"name":"_stockPlanFacet","type":"address","internalType":"address"},{"name":"_warrantFacet","type":"address","internalType":"address"},{"name":"_stakeholderNFTFacet","type":"address","internalType":"address"}],"stateMutability":"nonpayable"},{"type":"function","name":"capTables","inputs":[{"name":"","type":"uint256","internalType":"uint256"}],"outputs":[{"name":"","type":"address","internalType":"address"}],"stateMutability":"view"},{"type":"function","name":"convertiblesFacet","inputs":[],"outputs":[{"name":"","type":"address","internalType":"address"}],"stateMutability":"view"},{"type":"function","name":"createCapTable","inputs":[{"name":"id","type":"bytes16","internalType":"bytes16"},{"name":"initialSharesAuthorized","type":"uint256","internalType":"uint256"}],"outputs":[{"name":"","type":"address","internalType":"address"}],"stateMutability":"nonpayable"},{"type":"function","name":"diamondCutFacet","inputs":[],"outputs":[{"name":"","type":"address","internalType":"address"}],"stateMutability":"view"},{"type":"function","name":"equityCompensationFacet","inputs":[],"outputs":[{"name":"","type":"address","internalType":"address"}],"stateMutability":"view"},{"type":"function","name":"getCapTableCount","inputs":[],"outputs":[{"name":"","type":"uint256","internalType":"uint256"}],"stateMutability":"view"},{"type":"function","name":"issuerFacet","inputs":[],"outputs":[{"name":"","type":"address","internalType":"address"}],"stateMutability":"view"},{"type":"function","name":"stakeholderFacet","inputs":[],"outputs":[{"name":"","type":"address","internalType":"address"}],"stateMutability":"view"},{"type":"function","name":"stakeholderNFTFacet","inputs":[],"outputs":[{"name":"","type":"address","internalType":"address"}],"stateMutability":"view"},{"type":"function","name":"stockClassFacet","inputs":[],"outputs":[{"name":"","type":"address","internalType":"address"}],"stateMutability":"view"},{"type":"function","name":"stockFacet","inputs":[],"outputs":[{"name":"","type":"address","internalType":"address"}],"stateMutability":"view"},{"type":"function","name":"stockPlanFacet","inputs":[],"outputs":[{"name":"","type":"address","internalType":"address"}],"stateMutability":"view"},{"type":"function","name":"warrantFacet","inputs":[],"outputs":[{"name":"","type":"address","internalType":"address"}],"stateMutability":"view"},{"type":"event","name":"CapTableCreated","inputs":[{"name":"capTable","type":"address","indexed":true,"internalType":"address"},{"name":"issuerId","type":"bytes16","indexed":true,"internalType":"bytes16"}],"anonymous":false}],"bytecode":{"object":"0x6101c034620001f7576200221538819003601f8101601f191683016001600160401b03811184821017620001fc5783928291604052833961014092839181010312620001f757620000508162000212565b6200005e6020830162000212565b6200006c6040840162000212565b936200007b6060850162000212565b906200008a6080860162000212565b6200009860a0870162000212565b620000a660c0880162000212565b91620000b560e0890162000212565b9461010099620000c78b8b0162000212565b97620000d8610120809c0162000212565b996001600160a01b03811615620001b25760805260a05260c05260e0528852865281526101609182526101809283526101a093845260405194611fed968762000228883960805187818161018601526103ac015260a0518781816102140152610463015260c0518781816105180152610cdf015260e0518781816101cd01526105b80152518681816106440152610e400152518581816106e40152610d6d0152518481816107990152610d260152518381816108390152610db401525182818161013f01526108d90152518181816109790152610dfb0152f35b60405162461bcd60e51b815260206004820152601760248201527f496e76616c6964206469616d6f6e6443757446616365740000000000000000006044820152606490fd5b600080fd5b634e487b7160e01b600052604160045260246000fd5b51906001600160a01b0382168203620001f75756fe60808060405260043610156200001457600080fd5b600090813560e01c90816305a5ca2a1462000e2a5750806308f91d7b1462000de357806316adefe11462000d9c57806332b882a11462000d555780633d4ed9f71462000d0e57806350896c431462000cc75780636adff8fb14620002435780637f8a200c14620001fc57806383d3052e14620001b5578063a051e9b3146200016e578063b1dbd67f1462000127578063ba98c55414620000df5763f0f6d5a014620000be57600080fd5b34620000dc5780600319360112620000dc5760209054604051908152f35b80fd5b5034620000dc576020366003190112620000dc57600435908054821015620000dc5760206200010e8362000e6f565b905460405160039290921b1c6001600160a01b03168152f35b5034620000dc5780600319360112620000dc576040517f00000000000000000000000000000000000000000000000000000000000000006001600160a01b03168152602090f35b5034620000dc5780600319360112620000dc576040517f00000000000000000000000000000000000000000000000000000000000000006001600160a01b03168152602090f35b5034620000dc5780600319360112620000dc576040517f00000000000000000000000000000000000000000000000000000000000000006001600160a01b03168152602090f35b5034620000dc5780600319360112620000dc576040517f00000000000000000000000000000000000000000000000000000000000000006001600160a01b03168152602090f35b5034620000dc576040366003190112620000dc576004356001600160801b03198116810362000cc3576001600160801b0319811615158062000cb7575b1562000c7a578180604051620002968162000f02565b6015815274696e73696465206372656174654361705461626c6560581b6020820152604051620002f481620002e5602082019463104c13eb60e21b86526020602484015260448301906200100d565b03601f19810183528262000f3c565b51906a636f6e736f6c652e6c6f675afa5062000338604051620003178162000f02565b600c81526b036b9b39739b2b73232b91d160a51b602082015233906200104f565b6200037c6040516200034a8162000f02565b601881527f666163746f72792061646472657373202874686973293a200000000000000000602082015230906200104f565b604051610f369081810167ffffffffffffffff928282108483111762000c66576040918391620010b783393081527f00000000000000000000000000000000000000000000000000000000000000006001600160a01b0316602082015203019084f0801562000c5b576040519161014083019081118382101762000c475760405260098252835b610120811062000c1a57506040516200041c8162000eba565b6002908181526040366020830137632f539c4560e01b6200043d8262000f5f565b5263673c395960e01b620004518262000f83565b5260405190620004618262000eba565b7f00000000000000000000000000000000000000000000000000000000000000006001600160a01b03168252602082018790526040820152620004a48462000f5f565b52620004b08362000f5f565b50604051620004bf8162000f1f565b600381526060366020830137639e35325f60e01b620004de8262000f5f565b5263eafa8a5f60e01b620004f28262000f83565b52631b5b3e0960e21b620005068262000f94565b5260405190620005168262000eba565b7f00000000000000000000000000000000000000000000000000000000000000006001600160a01b03168252602082018790526040820152620005598462000f83565b52620005658362000f83565b50604051620005748162000eba565b818152604036602083013763257eac7d60e11b620005928262000f5f565b52630cfdbcc560e31b620005a68262000f83565b5260405190620005b68262000eba565b7f00000000000000000000000000000000000000000000000000000000000000006001600160a01b03168252602082018790526040820152620005f98462000f94565b52620006058362000f94565b50604051620006148162000f02565b60018152602036818301376355356b8b60e01b620006328262000f5f565b5260405190620006428262000eba565b7f00000000000000000000000000000000000000000000000000000000000000006001600160a01b03168252602082018790526040820152620006858462000fa5565b52620006918362000fa5565b50604051620006a08162000eba565b8181526040366020830137636eec76af60e11b620006be8262000f5f565b52631d3e944560e31b620006d28262000f83565b5260405190620006e28262000eba565b7f00000000000000000000000000000000000000000000000000000000000000006001600160a01b03168252602082018790526040820152620007258462000fb6565b52620007318362000fb6565b50604051620007408162000f1f565b600381526060366020830137630d062fcb60e01b6200075f8262000f5f565b52630d08aa0f60e01b620007738262000f83565b526335af1e9160e11b620007878262000f94565b5260405190620007978262000eba565b7f00000000000000000000000000000000000000000000000000000000000000006001600160a01b03168252602082018790526040820152620007da8462000fc7565b52620007e68362000fc7565b50604051620007f58162000eba565b8181526040366020830137636b348f4160e01b620008138262000f5f565b52633871654760e21b620008278262000f83565b5260405190620008378262000eba565b7f00000000000000000000000000000000000000000000000000000000000000006001600160a01b031682526020820187905260408201526200087a8462000fd8565b52620008868362000fd8565b50604051620008958162000eba565b818152604036602083013763e462db9960e01b620008b38262000f5f565b5263bcc25ca960e01b620008c78262000f83565b5260405190620008d78262000eba565b7f00000000000000000000000000000000000000000000000000000000000000006001600160a01b031682526020820187905260408201526200091a8462000fe9565b52620009268362000fe9565b5060405190620009368262000eba565b81526040366020830137631249c58b60e01b620009538262000f5f565b5263c87b56dd60e01b620009678262000f83565b5260405190620009778262000eba565b7f00000000000000000000000000000000000000000000000000000000000000006001600160a01b03168252602082018690526040820152620009ba8362000ffb565b52620009c68262000ffb565b506001600160a01b031690813b1562000c16578360405180926307e4c70760e21b8252606482016060600484015281518091526084830190602060848260051b86010193019185905b82821062000b66575050505060209083602484015283838203916003198301604486015252018183865af1801562000b5b5762000b45575b50803b1562000b3657604051632f539c4560e01b81526001600160801b03198316600482015260248035908201528390818160448183875af1801562000b3a5762000b1e575b50546801000000000000000081101562000b0a579262000ab584600160209601835562000e6f565b81546001600160a01b0360039290921b91821b19169084901b179055604051926001600160801b0319169082907fe3937c267d9e05e9cecc0f6f853600f165dac91585c676e0c75d229241f62d759080a38152f35b634e487b7160e01b84526041600452602484fd5b62000b299062000eed565b62000b3657823862000a8d565b8280fd5b6040513d84823e3d90fd5b62000b539093919362000eed565b913862000a47565b6040513d86823e3d90fd5b92955092909350608319868203018252845160018060a01b0381511682526020810151600381101562000c0257906040916020840152015190606060408201526020608060608301928451809452019201908a905b80821062000bde5750505060208060019296019201920192859389959362000a0f565b82516001600160e01b03191684526020938401939092019160019091019062000bbb565b634e487b7160e01b8b52602160045260248bfd5b8380fd5b60209060405162000c2b8162000eba565b8681528683820152606060408201528282860101520162000403565b634e487b7160e01b85526041600452602485fd5b6040513d85823e3d90fd5b634e487b7160e01b86526041600452602486fd5b60405162461bcd60e51b8152602060048201526015602482015274496e76616c69642069737375657220706172616d7360581b6044820152606490fd5b50602435151562000280565b5080fd5b5034620000dc5780600319360112620000dc576040517f00000000000000000000000000000000000000000000000000000000000000006001600160a01b03168152602090f35b5034620000dc5780600319360112620000dc576040517f00000000000000000000000000000000000000000000000000000000000000006001600160a01b03168152602090f35b5034620000dc5780600319360112620000dc576040517f00000000000000000000000000000000000000000000000000000000000000006001600160a01b03168152602090f35b5034620000dc5780600319360112620000dc576040517f00000000000000000000000000000000000000000000000000000000000000006001600160a01b03168152602090f35b5034620000dc5780600319360112620000dc576040517f00000000000000000000000000000000000000000000000000000000000000006001600160a01b03168152602090f35b90503462000cc3578160031936011262000cc3577f00000000000000000000000000000000000000000000000000000000000000006001600160a01b03168152602090f35b90600091825481101562000ea6578280527f290decd9548b62a8d60345a988386fc84ba6bc95484008f6362f93160ef3e563019190565b634e487b7160e01b83526032600452602483fd5b6060810190811067ffffffffffffffff82111762000ed757604052565b634e487b7160e01b600052604160045260246000fd5b67ffffffffffffffff811162000ed757604052565b6040810190811067ffffffffffffffff82111762000ed757604052565b6080810190811067ffffffffffffffff82111762000ed757604052565b90601f8019910116810190811067ffffffffffffffff82111762000ed757604052565b80511562000f6d5760200190565b634e487b7160e01b600052603260045260246000fd5b80516001101562000f6d5760400190565b80516002101562000f6d5760600190565b80516003101562000f6d5760800190565b80516004101562000f6d5760a00190565b80516005101562000f6d5760c00190565b80516006101562000f6d5760e00190565b80516007101562000f6d576101000190565b80516008101562000f6d576101200190565b919082519283825260005b8481106200103a575050826000602080949584010152601f8019910116010190565b60208183018101518483018201520162001018565b600091908291620010a3604051809262001083602083019563319af33360e01b87526040602485015260648401906200100d565b6001600160a01b0391909116604483015203601f19810183528262000f3c565b51906a636f6e736f6c652e6c6f675afa5056fe6001600160401b03610f366080601f38839003908101601f19168201908482118383101761072c57808391604095869485528339810103126107275761004481610780565b906100526020809201610780565b7fc8fcad8db84d3cc18b4c41d551ea0ee66dd599cde068d998e57d5e09332c132080546001600160a01b039485166001600160a01b031982168117909255919260009290919085167f8be0079c531659141344cd1fd0a4f28419497f9722a3daafe3b4186f6b6457e08480a36100c6610761565b9260019081855282845b8181106107035750506100e1610761565b8281528336818301376307e4c70760e21b6100fb82610794565b5286610105610742565b9216825284848301528782015261011b85610794565b5261012584610794565b50855196828801908111888210176106ef5786528287529382855b610262575b5085519460608087019080885286518092526080938489019086868560051b8c010199019588935b8585106101bf57508b7f8faa70878671ccd212d20771b795c50af8fd3ff6cf27f4bde57e5d4de0aeb6738c8f6101b08e83928f8f850152838203878501526107f0565b0390a15160ac9081610e2a8239f35b9091929394959699607f198c82030185528a5190828101918581511682528a810151600381101561024e578b8301528e0151818f018490528051928390528a019189918b91908601908d905b80821061022a575050819293509c01950195019396959492919061016d565b85516001600160e01b0319168352948301948c948e9493909301929091019061020b565b634e487b7160e01b8d52602160045260248dfd5b84959195518110156106e7578261027982876107b7565b51015160038110156106d357806104025750818661029783886107b7565b515116886102a584896107b7565b5101516102b481511515610830565b6102bf821515610890565b6001600160a01b0382166000908152600080516020610f1683398151915260205260409020546001600160601b031680156103f4575b9280949388915b610317575b5050505061030f905b6107cb565b909591610140565b909192939483518310156103ed57506001600160e01b031961033983856107b7565b5116808952600080516020610ed683398151915288528a8c8a205416610383576103748261036f878a9897969561037a95610a45565b6108f1565b916107cb565b908495946102fc565b8b5162461bcd60e51b815260048101899052603560248201527f4c69624469616d6f6e644375743a2043616e2774206164642066756e6374696f60448201527f6e207468617420616c72656164792065786973747300000000000000000000006064820152608490fd5b9493610301565b6103fd83610930565b6102f5565b8083036105725750818661041683886107b7565b5151168861042484896107b7565b51015161043381511515610830565b61043e821515610890565b6001600160a01b0382166000908152600080516020610f1683398151915260205260409020546001600160601b03168015610564575b9280949388915b61048c575050505061030f906107cb565b909192939483518310156103ed57506001600160e01b03196104ae83856107b7565b5116808952600080516020610ed683398151915288528a8c8a2054168581146104fa578261036f878a98979695856104ec6104f19761037497610b30565b610a45565b9084959461047b565b8c5162461bcd60e51b8152600481018a9052603860248201527f4c69624469616d6f6e644375743a2043616e2774207265706c6163652066756e60448201527f6374696f6e20776974682073616d652066756e6374696f6e00000000000000006064820152608490fd5b61056d83610930565b610474565b60020361067f578561058482876107b7565b5151168761059283886107b7565b510151906105a282511515610830565b6106155782919085835b6105bc575b505061030f906107cb565b819293915181101561060c576106039061030a6001600160e01b03196105e283876107b7565b5116808a52600080516020610ed683398151915289528b8d8b205416610b30565b819392916105ac565b819392506105b1565b875162461bcd60e51b815260048101859052603660248201527f4c69624469616d6f6e644375743a2052656d6f7665206661636574206164647260448201527f657373206d7573742062652061646472657373283029000000000000000000006064820152608490fd5b865162461bcd60e51b815260048101849052602760248201527f4c69624469616d6f6e644375743a20496e636f727265637420466163657443756044820152663a20b1ba34b7b760c91b6064820152608490fd5b634e487b7160e01b85526021600452602485fd5b949094610145565b634e487b7160e01b84526041600452602484fd5b61070b610742565b868152868382015260608a8201528282890101520183906100d0565b600080fd5b634e487b7160e01b600052604160045260246000fd5b60405190606082016001600160401b0381118382101761072c57604052565b60408051919082016001600160401b0381118382101761072c57604052565b51906001600160a01b038216820361072757565b8051156107a15760200190565b634e487b7160e01b600052603260045260246000fd5b80518210156107a15760209160051b010190565b60001981146107da5760010190565b634e487b7160e01b600052601160045260246000fd5b919082519283825260005b84811061081c575050826000602080949584010152601f8019910116010190565b6020818301810151848301820152016107fb565b1561083757565b60405162461bcd60e51b815260206004820152602b60248201527f4c69624469616d6f6e644375743a204e6f2073656c6563746f727320696e206660448201526a1858d95d081d1bc818dd5d60aa1b6064820152608490fd5b1561089757565b60405162461bcd60e51b815260206004820152602c60248201527f4c69624469616d6f6e644375743a204164642066616365742063616e2774206260448201526b65206164647265737328302960a01b6064820152608490fd5b6001600160601b039081169081146107da5760010190565b600080516020610ef683398151915280548210156107a15760005260206000200190600090565b610938610742565b602481527f4c69624469616d6f6e644375743a204e657720666163657420686173206e6f20602082015263636f646560e01b6040820152813b156109fa5750600080516020610ef683398151915280546001600160a01b0383166000908152600080516020610f168339815191526020526040902060010181905591906801000000000000000083101561072c57826109d99160016109f895019055610909565b90919082549060031b9160018060a01b03809116831b921b1916179055565b565b60405162461bcd60e51b815260206004820152908190610a1e9060248301906107f0565b0390fd5b91909180548310156107a157600052601c60206000208360031c019260021b1690565b6001600160e01b031981166000818152600080516020610ed683398151915260208190526040822080546001600160a01b031660a09690961b6001600160a01b031916959095179094559194939092906001600160a01b0316808352600080516020610f168339815191526020526040832080549194919068010000000000000000821015610b1c5796610ae68260409798996001610b0395018155610a22565b90919063ffffffff83549160031b9260e01c831b921b1916179055565b82526020522080546001600160a01b0319169091179055565b634e487b7160e01b85526041600452602485fd5b9091906001600160a01b039081168015610dbe57308114610d625763ffffffff60e01b809416600092818452600080516020610ed6833981519152926020918483526040948587205460a01c90838852600080516020610f168339815191529586865287892054926000199b8c8501948511610d4e57908991888c898c89808703610ce0575b505090525050508787525087892080548015610ccc578c0190610bd98282610a22565b63ffffffff82549160031b1b191690555588528452868681205515610c03575b5050505050509050565b600080516020610ef68339815191528054898101908111610cb857838852858552826001888a20015491808303610c86575b5050508054988915610c725760019798990191610c5183610909565b909182549160031b1b19169055558552528220015580388080808080610bf9565b634e487b7160e01b88526031600452602488fd5b610c8f90610909565b90549060031b1c16610ca4816109d984610909565b885285855260018789200155388281610c35565b634e487b7160e01b88526011600452602488fd5b634e487b7160e01b8b52603160045260248bfd5b610d419784610ae693610cff8a9487610d159952828a52848420610a22565b90549060031b1c60e01b97889683525220610a22565b168b52838852898b2080546001600160a01b031660a09290921b6001600160a01b031916919091179055565b873880888c898c89610bb6565b634e487b7160e01b8b52601160045260248bfd5b60405162461bcd60e51b815260206004820152602e60248201527f4c69624469616d6f6e644375743a2043616e27742072656d6f766520696d6d7560448201526d3a30b1363290333ab731ba34b7b760911b6064820152608490fd5b60405162461bcd60e51b815260206004820152603760248201527f4c69624469616d6f6e644375743a2043616e27742072656d6f76652066756e6360448201527f74696f6e207468617420646f65736e27742065786973740000000000000000006064820152608490fdfe6080604052361560aa57600080356001600160e01b03191681527fc8fcad8db84d3cc18b4c41d551ea0ee66dd599cde068d998e57d5e09332c131c60205260408120546001600160a01b03168015606c57818091368280378136915af43d82803e156068573d90f35b3d90fd5b62461bcd60e51b6080526020608452602060a4527f4469616d6f6e643a2046756e6374696f6e20646f6573206e6f7420657869737460c45260646080fd5b00c8fcad8db84d3cc18b4c41d551ea0ee66dd599cde068d998e57d5e09332c131cc8fcad8db84d3cc18b4c41d551ea0ee66dd599cde068d998e57d5e09332c131ec8fcad8db84d3cc18b4c41d551ea0ee66dd599cde068d998e57d5e09332c131d","linkReferences":{}},"methodIdentifiers":{"capTables(uint256)":"ba98c554","convertiblesFacet()":"32b882a1","createCapTable(bytes16,uint256)":"6adff8fb","diamondCutFacet()":"a051e9b3","equityCompensationFacet()":"3d4ed9f7","getCapTableCount()":"f0f6d5a0","issuerFacet()":"7f8a200c","stakeholderFacet()":"50896c43","stakeholderNFTFacet()":"08f91d7b","stockClassFacet()":"83d3052e","stockFacet()":"05a5ca2a","stockPlanFacet()":"16adefe1","warrantFacet()":"b1dbd67f"},"id":70}