{"abi":[{"type":"constructor","inputs":[],"stateMutability":"nonpayable"},{"type":"function","name":"ADMIN_ROLE","inputs":[],"outputs":[{"name":"","type":"bytes32","internalType":"bytes32"}],"stateMutability":"view"},{"type":"function","name":"DEFAULT_ADMIN_ROLE","inputs":[],"outputs":[{"name":"","type":"bytes32","internalType":"bytes32"}],"stateMutability":"view"},{"type":"function","name":"OPERATOR_ROLE","inputs":[],"outputs":[{"name":"","type":"bytes32","internalType":"bytes32"}],"stateMutability":"view"},{"type":"function","name":"acceptDefaultAdminTransfer","inputs":[],"outputs":[],"stateMutability":"nonpayable"},{"type":"function","name":"acceptStock","inputs":[{"name":"stakeholderId","type":"bytes16","internalType":"bytes16"},{"name":"stockClassId","type":"bytes16","internalType":"bytes16"},{"name":"securityId","type":"bytes16","internalType":"bytes16"},{"name":"comments","type":"string[]","internalType":"string[]"}],"outputs":[],"stateMutability":"nonpayable"},{"type":"function","name":"addAdmin","inputs":[{"name":"addr","type":"address","internalType":"address"}],"outputs":[],"stateMutability":"nonpayable"},{"type":"function","name":"addOperator","inputs":[{"name":"addr","type":"address","internalType":"address"}],"outputs":[],"stateMutability":"nonpayable"},{"type":"function","name":"addWalletToStakeholder","inputs":[{"name":"_stakeholder_id","type":"bytes16","internalType":"bytes16"},{"name":"_wallet","type":"address","internalType":"address"}],"outputs":[],"stateMutability":"nonpayable"},{"type":"function","name":"adjustIssuerAuthorizedShares","inputs":[{"name":"newSharesAuthorized","type":"uint256","internalType":"uint256"},{"name":"comments","type":"string[]","internalType":"string[]"},{"name":"boardApprovalDate","type":"string","internalType":"string"},{"name":"stockholderApprovalDate","type":"string","internalType":"string"}],"outputs":[],"stateMutability":"nonpayable"},{"type":"function","name":"adjustStockClassAuthorizedShares","inputs":[{"name":"stockClassId","type":"bytes16","internalType":"bytes16"},{"name":"newAuthorizedShares","type":"uint256","internalType":"uint256"},{"name":"comments","type":"string[]","internalType":"string[]"},{"name":"boardApprovalDate","type":"string","internalType":"string"},{"name":"stockholderApprovalDate","type":"string","internalType":"string"}],"outputs":[],"stateMutability":"nonpayable"},{"type":"function","name":"beginDefaultAdminTransfer","inputs":[{"name":"newAdmin","type":"address","internalType":"address"}],"outputs":[],"stateMutability":"nonpayable"},{"type":"function","name":"cancelDefaultAdminTransfer","inputs":[],"outputs":[],"stateMutability":"nonpayable"},{"type":"function","name":"cancelStock","inputs":[{"name":"params","type":"tuple","internalType":"struct StockParams","components":[{"name":"stakeholder_id","type":"bytes16","internalType":"bytes16"},{"name":"stock_class_id","type":"bytes16","internalType":"bytes16"},{"name":"security_id","type":"bytes16","internalType":"bytes16"},{"name":"comments","type":"string[]","internalType":"string[]"},{"name":"reason_text","type":"string","internalType":"string"}]},{"name":"quantity","type":"uint256","internalType":"uint256"}],"outputs":[],"stateMutability":"nonpayable"},{"type":"function","name":"changeDefaultAdminDelay","inputs":[{"name":"newDelay","type":"uint48","internalType":"uint48"}],"outputs":[],"stateMutability":"nonpayable"},{"type":"function","name":"createStakeholder","inputs":[{"name":"_id","type":"bytes16","internalType":"bytes16"},{"name":"_stakeholder_type","type":"string","internalType":"string"},{"name":"_current_relationship","type":"string","internalType":"string"}],"outputs":[],"stateMutability":"nonpayable"},{"type":"function","name":"createStockClass","inputs":[{"name":"_id","type":"bytes16","internalType":"bytes16"},{"name":"_class_type","type":"string","internalType":"string"},{"name":"_price_per_share","type":"uint256","internalType":"uint256"},{"name":"_initial_share_authorized","type":"uint256","internalType":"uint256"}],"outputs":[],"stateMutability":"nonpayable"},{"type":"function","name":"createStockLegendTemplate","inputs":[{"name":"_id","type":"bytes16","internalType":"bytes16"}],"outputs":[],"stateMutability":"nonpayable"},{"type":"function","name":"defaultAdmin","inputs":[],"outputs":[{"name":"","type":"address","internalType":"address"}],"stateMutability":"view"},{"type":"function","name":"defaultAdminDelay","inputs":[],"outputs":[{"name":"","type":"uint48","internalType":"uint48"}],"stateMutability":"view"},{"type":"function","name":"defaultAdminDelayIncreaseWait","inputs":[],"outputs":[{"name":"","type":"uint48","internalType":"uint48"}],"stateMutability":"view"},{"type":"function","name":"getActivePosition","inputs":[{"name":"stakeholderId","type":"bytes16","internalType":"bytes16"},{"name":"securityId","type":"bytes16","internalType":"bytes16"}],"outputs":[{"name":"","type":"bytes16","internalType":"bytes16"},{"name":"","type":"uint256","internalType":"uint256"},{"name":"","type":"uint256","internalType":"uint256"},{"name":"","type":"uint40","internalType":"uint40"}],"stateMutability":"view"},{"type":"function","name":"getAveragePosition","inputs":[{"name":"stakeholderId","type":"bytes16","internalType":"bytes16"},{"name":"stockClassId","type":"bytes16","internalType":"bytes16"}],"outputs":[{"name":"","type":"uint256","internalType":"uint256"},{"name":"","type":"uint256","internalType":"uint256"},{"name":"","type":"uint40","internalType":"uint40"}],"stateMutability":"view"},{"type":"function","name":"getRoleAdmin","inputs":[{"name":"role","type":"bytes32","internalType":"bytes32"}],"outputs":[{"name":"","type":"bytes32","internalType":"bytes32"}],"stateMutability":"view"},{"type":"function","name":"getStakeholderById","inputs":[{"name":"_id","type":"bytes16","internalType":"bytes16"}],"outputs":[{"name":"","type":"bytes16","internalType":"bytes16"},{"name":"","type":"string","internalType":"string"},{"name":"","type":"string","internalType":"string"}],"stateMutability":"view"},{"type":"function","name":"getStakeholderIdByWallet","inputs":[{"name":"_wallet","type":"address","internalType":"address"}],"outputs":[{"name":"stakeholderId","type":"bytes16","internalType":"bytes16"}],"stateMutability":"view"},{"type":"function","name":"getStockClassById","inputs":[{"name":"_id","type":"bytes16","internalType":"bytes16"}],"outputs":[{"name":"","type":"bytes16","internalType":"bytes16"},{"name":"","type":"string","internalType":"string"},{"name":"","type":"uint256","internalType":"uint256"},{"name":"","type":"uint256","internalType":"uint256"},{"name":"","type":"uint256","internalType":"uint256"}],"stateMutability":"view"},{"type":"function","name":"getTotalActiveSecuritiesCount","inputs":[],"outputs":[{"name":"","type":"uint256","internalType":"uint256"}],"stateMutability":"view"},{"type":"function","name":"getTotalNumberOfStakeholders","inputs":[],"outputs":[{"name":"","type":"uint256","internalType":"uint256"}],"stateMutability":"view"},{"type":"function","name":"getTotalNumberOfStockClasses","inputs":[],"outputs":[{"name":"","type":"uint256","internalType":"uint256"}],"stateMutability":"view"},{"type":"function","name":"getTransactionsCount","inputs":[],"outputs":[{"name":"","type":"uint256","internalType":"uint256"}],"stateMutability":"view"},{"type":"function","name":"grantRole","inputs":[{"name":"role","type":"bytes32","internalType":"bytes32"},{"name":"account","type":"address","internalType":"address"}],"outputs":[],"stateMutability":"nonpayable"},{"type":"function","name":"hasRole","inputs":[{"name":"role","type":"bytes32","internalType":"bytes32"},{"name":"account","type":"address","internalType":"address"}],"outputs":[{"name":"","type":"bool","internalType":"bool"}],"stateMutability":"view"},{"type":"function","name":"initialize","inputs":[{"name":"id","type":"bytes16","internalType":"bytes16"},{"name":"initial_shares_authorized","type":"uint256","internalType":"uint256"},{"name":"admin","type":"address","internalType":"address"}],"outputs":[],"stateMutability":"nonpayable"},{"type":"function","name":"issueStock","inputs":[{"name":"params","type":"tuple","internalType":"struct StockIssuanceParams","components":[{"name":"stock_class_id","type":"bytes16","internalType":"bytes16"},{"name":"stock_plan_id","type":"bytes16","internalType":"bytes16"},{"name":"share_numbers_issued","type":"tuple","internalType":"struct ShareNumbersIssued","components":[{"name":"starting_share_number","type":"uint256","internalType":"uint256"},{"name":"ending_share_number","type":"uint256","internalType":"uint256"}]},{"name":"share_price","type":"uint256","internalType":"uint256"},{"name":"quantity","type":"uint256","internalType":"uint256"},{"name":"vesting_terms_id","type":"bytes16","internalType":"bytes16"},{"name":"cost_basis","type":"uint256","internalType":"uint256"},{"name":"stock_legend_ids","type":"bytes16[]","internalType":"bytes16[]"},{"name":"issuance_type","type":"string","internalType":"string"},{"name":"comments","type":"string[]","internalType":"string[]"},{"name":"custom_id","type":"string","internalType":"string"},{"name":"stakeholder_id","type":"bytes16","internalType":"bytes16"},{"name":"board_approval_date","type":"string","internalType":"string"},{"name":"stockholder_approval_date","type":"string","internalType":"string"},{"name":"consideration_text","type":"string","internalType":"string"},{"name":"security_law_exemptions","type":"tuple[]","internalType":"struct SecurityLawExemption[]","components":[{"name":"description","type":"string","internalType":"string"},{"name":"jurisdiction","type":"string","internalType":"string"}]}]}],"outputs":[],"stateMutability":"nonpayable"},{"type":"function","name":"issuer","inputs":[],"outputs":[{"name":"id","type":"bytes16","internalType":"bytes16"},{"name":"shares_issued","type":"uint256","internalType":"uint256"},{"name":"shares_authorized","type":"uint256","internalType":"uint256"}],"stateMutability":"view"},{"type":"function","name":"nonce","inputs":[],"outputs":[{"name":"","type":"uint256","internalType":"uint256"}],"stateMutability":"view"},{"type":"function","name":"owner","inputs":[],"outputs":[{"name":"","type":"address","internalType":"address"}],"stateMutability":"view"},{"type":"function","name":"pendingDefaultAdmin","inputs":[],"outputs":[{"name":"newAdmin","type":"address","internalType":"address"},{"name":"schedule","type":"uint48","internalType":"uint48"}],"stateMutability":"view"},{"type":"function","name":"pendingDefaultAdminDelay","inputs":[],"outputs":[{"name":"newDelay","type":"uint48","internalType":"uint48"},{"name":"schedule","type":"uint48","internalType":"uint48"}],"stateMutability":"view"},{"type":"function","name":"reissueStock","inputs":[{"name":"params","type":"tuple","internalType":"struct StockParams","components":[{"name":"stakeholder_id","type":"bytes16","internalType":"bytes16"},{"name":"stock_class_id","type":"bytes16","internalType":"bytes16"},{"name":"security_id","type":"bytes16","internalType":"bytes16"},{"name":"comments","type":"string[]","internalType":"string[]"},{"name":"reason_text","type":"string","internalType":"string"}]},{"name":"resulting_security_ids","type":"bytes16[]","internalType":"bytes16[]"}],"outputs":[],"stateMutability":"nonpayable"},{"type":"function","name":"removeAdmin","inputs":[{"name":"addr","type":"address","internalType":"address"}],"outputs":[],"stateMutability":"nonpayable"},{"type":"function","name":"removeOperator","inputs":[{"name":"addr","type":"address","internalType":"address"}],"outputs":[],"stateMutability":"nonpayable"},{"type":"function","name":"removeWalletFromStakeholder","inputs":[{"name":"_stakeholder_id","type":"bytes16","internalType":"bytes16"},{"name":"_wallet","type":"address","internalType":"address"}],"outputs":[],"stateMutability":"nonpayable"},{"type":"function","name":"renounceRole","inputs":[{"name":"role","type":"bytes32","internalType":"bytes32"},{"name":"account","type":"address","internalType":"address"}],"outputs":[],"stateMutability":"nonpayable"},{"type":"function","name":"repurchaseStock","inputs":[{"name":"params","type":"tuple","internalType":"struct StockParams","components":[{"name":"stakeholder_id","type":"bytes16","internalType":"bytes16"},{"name":"stock_class_id","type":"bytes16","internalType":"bytes16"},{"name":"security_id","type":"bytes16","internalType":"bytes16"},{"name":"comments","type":"string[]","internalType":"string[]"},{"name":"reason_text","type":"string","internalType":"string"}]},{"name":"quantity","type":"uint256","internalType":"uint256"},{"name":"price","type":"uint256","internalType":"uint256"}],"outputs":[],"stateMutability":"nonpayable"},{"type":"function","name":"retractStockIssuance","inputs":[{"name":"params","type":"tuple","internalType":"struct StockParams","components":[{"name":"stakeholder_id","type":"bytes16","internalType":"bytes16"},{"name":"stock_class_id","type":"bytes16","internalType":"bytes16"},{"name":"security_id","type":"bytes16","internalType":"bytes16"},{"name":"comments","type":"string[]","internalType":"string[]"},{"name":"reason_text","type":"string","internalType":"string"}]}],"outputs":[],"stateMutability":"nonpayable"},{"type":"function","name":"revokeRole","inputs":[{"name":"role","type":"bytes32","internalType":"bytes32"},{"name":"account","type":"address","internalType":"address"}],"outputs":[],"stateMutability":"nonpayable"},{"type":"function","name":"rollbackDefaultAdminDelay","inputs":[],"outputs":[],"stateMutability":"nonpayable"},{"type":"function","name":"seedMultipleActivePositionsAndSecurityIds","inputs":[{"name":"stakeholderIds","type":"bytes16[]","internalType":"bytes16[]"},{"name":"securityIds","type":"bytes16[]","internalType":"bytes16[]"},{"name":"stockClassIds","type":"bytes16[]","internalType":"bytes16[]"},{"name":"quantities","type":"uint256[]","internalType":"uint256[]"},{"name":"sharePrices","type":"uint256[]","internalType":"uint256[]"},{"name":"timestamps","type":"uint40[]","internalType":"uint40[]"}],"outputs":[],"stateMutability":"nonpayable"},{"type":"function","name":"seedSharesAuthorizedAndIssued","inputs":[{"name":"params","type":"tuple","internalType":"struct InitialShares","components":[{"name":"issuerInitialShares","type":"tuple","internalType":"struct IssuerInitialShares","components":[{"name":"shares_authorized","type":"uint256","internalType":"uint256"},{"name":"shares_issued","type":"uint256","internalType":"uint256"}]},{"name":"stockClassesInitialShares","type":"tuple[]","internalType":"struct StockClassInitialShares[]","components":[{"name":"id","type":"bytes16","internalType":"bytes16"},{"name":"shares_authorized","type":"uint256","internalType":"uint256"},{"name":"shares_issued","type":"uint256","internalType":"uint256"}]}]}],"outputs":[],"stateMutability":"nonpayable"},{"type":"function","name":"stakeholderIndex","inputs":[{"name":"","type":"bytes16","internalType":"bytes16"}],"outputs":[{"name":"","type":"uint256","internalType":"uint256"}],"stateMutability":"view"},{"type":"function","name":"stakeholders","inputs":[{"name":"","type":"uint256","internalType":"uint256"}],"outputs":[{"name":"id","type":"bytes16","internalType":"bytes16"},{"name":"stakeholder_type","type":"string","internalType":"string"},{"name":"current_relationship","type":"string","internalType":"string"}],"stateMutability":"view"},{"type":"function","name":"stockClassIndex","inputs":[{"name":"","type":"bytes16","internalType":"bytes16"}],"outputs":[{"name":"","type":"uint256","internalType":"uint256"}],"stateMutability":"view"},{"type":"function","name":"stockClasses","inputs":[{"name":"","type":"uint256","internalType":"uint256"}],"outputs":[{"name":"id","type":"bytes16","internalType":"bytes16"},{"name":"class_type","type":"string","internalType":"string"},{"name":"price_per_share","type":"uint256","internalType":"uint256"},{"name":"shares_issued","type":"uint256","internalType":"uint256"},{"name":"shares_authorized","type":"uint256","internalType":"uint256"}],"stateMutability":"view"},{"type":"function","name":"stockLegendTemplates","inputs":[{"name":"","type":"uint256","internalType":"uint256"}],"outputs":[{"name":"id","type":"bytes16","internalType":"bytes16"}],"stateMutability":"view"},{"type":"function","name":"supportsInterface","inputs":[{"name":"interfaceId","type":"bytes4","internalType":"bytes4"}],"outputs":[{"name":"","type":"bool","internalType":"bool"}],"stateMutability":"view"},{"type":"function","name":"transactions","inputs":[{"name":"","type":"uint256","internalType":"uint256"}],"outputs":[{"name":"","type":"bytes","internalType":"bytes"}],"stateMutability":"view"},{"type":"function","name":"transferStock","inputs":[{"name":"transferorStakeholderId","type":"bytes16","internalType":"bytes16"},{"name":"transfereeStakeholderId","type":"bytes16","internalType":"bytes16"},{"name":"stockClassId","type":"bytes16","internalType":"bytes16"},{"name":"isBuyerVerified","type":"bool","internalType":"bool"},{"name":"quantity","type":"uint256","internalType":"uint256"},{"name":"share_price","type":"uint256","internalType":"uint256"}],"outputs":[],"stateMutability":"nonpayable"},{"type":"function","name":"walletsPerStakeholder","inputs":[{"name":"","type":"address","internalType":"address"}],"outputs":[{"name":"","type":"bytes16","internalType":"bytes16"}],"stateMutability":"view"},{"type":"event","name":"DefaultAdminDelayChangeCanceled","inputs":[],"anonymous":false},{"type":"event","name":"DefaultAdminDelayChangeScheduled","inputs":[{"name":"newDelay","type":"uint48","indexed":false,"internalType":"uint48"},{"name":"effectSchedule","type":"uint48","indexed":false,"internalType":"uint48"}],"anonymous":false},{"type":"event","name":"DefaultAdminTransferCanceled","inputs":[],"anonymous":false},{"type":"event","name":"DefaultAdminTransferScheduled","inputs":[{"name":"newAdmin","type":"address","indexed":true,"internalType":"address"},{"name":"acceptSchedule","type":"uint48","indexed":false,"internalType":"uint48"}],"anonymous":false},{"type":"event","name":"Initialized","inputs":[{"name":"version","type":"uint8","indexed":false,"internalType":"uint8"}],"anonymous":false},{"type":"event","name":"IssuerCreated","inputs":[{"name":"id","type":"bytes16","indexed":true,"internalType":"bytes16"}],"anonymous":false},{"type":"event","name":"RoleAdminChanged","inputs":[{"name":"role","type":"bytes32","indexed":true,"internalType":"bytes32"},{"name":"previousAdminRole","type":"bytes32","indexed":true,"internalType":"bytes32"},{"name":"newAdminRole","type":"bytes32","indexed":true,"internalType":"bytes32"}],"anonymous":false},{"type":"event","name":"RoleGranted","inputs":[{"name":"role","type":"bytes32","indexed":true,"internalType":"bytes32"},{"name":"account","type":"address","indexed":true,"internalType":"address"},{"name":"sender","type":"address","indexed":true,"internalType":"address"}],"anonymous":false},{"type":"event","name":"RoleRevoked","inputs":[{"name":"role","type":"bytes32","indexed":true,"internalType":"bytes32"},{"name":"account","type":"address","indexed":true,"internalType":"address"},{"name":"sender","type":"address","indexed":true,"internalType":"address"}],"anonymous":false},{"type":"event","name":"StakeholderCreated","inputs":[{"name":"id","type":"bytes16","indexed":true,"internalType":"bytes16"}],"anonymous":false},{"type":"event","name":"StockClassCreated","inputs":[{"name":"id","type":"bytes16","indexed":true,"internalType":"bytes16"},{"name":"classType","type":"string","indexed":true,"internalType":"string"},{"name":"pricePerShare","type":"uint256","indexed":true,"internalType":"uint256"},{"name":"initialSharesAuthorized","type":"uint256","indexed":false,"internalType":"uint256"}],"anonymous":false},{"type":"error","name":"InsufficientIssuerSharesAuthorized","inputs":[]},{"type":"error","name":"InsufficientStockClassSharesAuthorized","inputs":[]},{"type":"error","name":"InvalidStockClass","inputs":[{"name":"stock_class_id","type":"bytes16","internalType":"bytes16"}]},{"type":"error","name":"InvalidWallet","inputs":[{"name":"wallet","type":"address","internalType":"address"}]},{"type":"error","name":"NoActivePositionFound","inputs":[]},{"type":"error","name":"NoIssuanceFound","inputs":[]},{"type":"error","name":"NoStakeholder","inputs":[{"name":"stakeholder_id","type":"bytes16","internalType":"bytes16"}]},{"type":"error","name":"StakeholderAlreadyExists","inputs":[{"name":"stakeholder_id","type":"bytes16","internalType":"bytes16"}]},{"type":"error","name":"StockClassAlreadyExists","inputs":[{"name":"stock_class_id","type":"bytes16","internalType":"bytes16"}]},{"type":"error","name":"StockClassDoesNotExist","inputs":[{"name":"stock_class_id","type":"bytes16","internalType":"bytes16"}]},{"type":"error","name":"WalletAlreadyExists","inputs":[{"name":"wallet","type":"address","internalType":"address"}]}],"bytecode":{"object":"0x60808060405234620000c6576000549060ff8260081c1662000074575060ff8082160362000038575b604051614e049081620000cc8239f35b60ff90811916176000557f7f26b83ff96e1f2b6a682f133852f6798a09c465da95921460cefb3847402498602060405160ff8152a13862000028565b62461bcd60e51b815260206004820152602760248201527f496e697469616c697a61626c653a20636f6e747261637420697320696e697469604482015266616c697a696e6760c81b6064820152608490fd5b600080fdfe610100604052600436101561001357600080fd5b60008060e052803560e01c908163013f7f4f14613af957816301ffc9a714613a89578163022d63fb14613a695781630aa6220b146139ce5781630c22d6bb146136a75781631785f53c146136465781631d143848146136085781631d6b8b72146135b4578163248a9ca3146135835781632629ac0f1461349d5781632f2ff15d146133cb57816336568abe1461324a578163371dc885146132165781633cec69df1461308a5781633e4106f314612ee7578163438fd5d814612d845781634afd58fa14612af05781634d21af6414612a45578163578cb8f914612a2557816361dc98b91461285c578163634e93da1461277b57816363aefa5a146126f957816363e71c4c146126b9578163649a5ec71461252a57816369197f4d146124ed5781636924e428146124cd57816370480275146124a657816375b238fc1461247b5781637799960d1461230d57816384266a7d146122ed57816384ef8ffc1461202357816389ee70c61461204e5781638da5cb5b1461202357816391d1485414611fd6578163924a750e14611c675781639870d7fe14611bb75781639ace38c214611abb578163a1eda53c14611a56578163a1fc819614611879578163a217fddf1461185b578163a9e9f32a146117ba578163ac8a584a1461170e578163affed0e0146116ee578163b6238cd114611544578163c1ad1d2014611479578163c28aece914610f53578163c8acae8614610f0a578163c93fed6614610d09578163c95f650e14610ccc578163cc8463c814610c9f578163cefc142914610af0578163cf6eefb714610ab4578163d125ba8b14610a0b578163d547741f14610959578163d602b9fd146108ec57508063d95a6be514610562578063efb8751914610318578063f5b541a6146102ea5763f908b949146102ad57600080fd5b346102e45760203660031901126102e4576102e06102d16102cc613dec565b614b78565b60409391935193849384613eb2565b0390f35b60e05180fd5b346102e45760e05180600319360112610315576020604051600080516020614dc48339815191528152f35b80fd5b346102e45760031960a0368201126102e457610332613dec565b602435916001600160401b036044358181116102e457610356903690600401613fba565b906064358181116102e45761036f903690600401613f30565b906084359081116102e457610388903690600401613f30565b92610399610394614cf2565b61484b565b60e080516001600160801b03198716905260d260205251604081205460001981019190821161054b57506103cf6103d691613b53565b5095614d8a565b60cb5486116104ab576103ea60d0546147e2565b938460d05573__$c1299ed9651e866ee22f0392da2a89ff35$__93843b156102e45761046193610442610452926040519a8b99636f2ce39d60e11b8b5260048b015260248a015260e060448a015260e4890190614a3d565b9084888303016064890152613d78565b91858303016084860152613d78565b9260a483015260cf60c4830152818060e0519403915af4801561049e57610489575b60e05180f35b61049290613c0f565b60e05180156104835780fd5b6040513d60e051823e3d90fd5b60405162461bcd60e51b815260206004820152606660248201527f496e73756666696369656e7453746f636b436c6173735368617265734175746860448201527f6f72697a65643a2073746f636b20636c61737320617574686f72697a6564207360648201527f68617265732065786365656473206973737565722073686172657320617574686084820152651bdc9a5e995960d21b60a482015260c490fd5b634e487b7160e01b9052601160045260e051602490fd5b346102e45760603660031901126102e45761057b613dec565b6024906001600160401b0382358181116102e45761059d903690600401613f30565b916044358281116102e4576105b6903690600401613f30565b916105c2610394614cf2565b6001600160801b0319809216938460e0515260209560d18752604060e05120546108d657604051916105f383613c58565b8683528783019081526040830195865260cc5494600160401b8610156108a95761062460019687810160cc55613e77565b9490946108c0575160801c90845416178355518051928484116108a95785810161064e8154613ba4565b948a601f9687811161085d575b505060e0518b908783116001146107f45750819060029560e051926107e9575b5050600019600383901b1c191690881b1790555b0194519081519384116107d357506106a78554613ba4565b82811161078a575b5060e05187928411600114610727575092829391839260e0519461071c575b50501b916000199060031b1c19161790555b60d160cc54928260e051525260e0519160408320557f53df47344d1cdf2ddb4901af5df61e37e14606bb7c8cc004d65c7c83ab3d06938280a280f35b0151925087806106ce565b919085601f19851693528360e05193898520945b8a88838310610773575050501061075a575b505050811b0190556106e0565b015160001960f88460031b161c1916905585808061074d565b86860151885590960195948501948793500161073b565b8560e0515260e0518881208480870160051c8201938b88106107ca575b0160051c019186905b8381106107bf575050506106af565b8281550186906107b0565b935081936107a7565b60e08051634e487b7160e01b9052604160045251fd5b015190508c8061067b565b83905260e0518c81208a93929091601f198416908f5b82821061084457505096836002981061082b575b505050811b01905561068f565b015160001960f88460031b161c191690558c808061081e565b838a015185558d9690940193928301929081019061080a565b8360e0515260e05190888383209181860160051c83019486106108a0575b0160051c01918a905b8381106108955750508c915061065b565b828155018a90610884565b9350819361087b565b82634e487b7160e01b60e05152604160045260e051fd5b83634e487b7160e01b60e0515260e05180600452fd5b6040516333270c6160e01b815260048101879052fd5b346102e45760e0518060031936011261031557506109086142fa565b609780546001600160d01b0319811690915560a01c65ffffffffffff1661092f5760e05180f35b807f8886ebfc4259abdbc16601dd8fb5678e54878f47b3c34836cfc51154a960510991a180610483565b346102e45760403660031901126102e457600435610975613e61565b81156109a057816104839260e05152606560205261099b6001604060e0512001546144f4565b61424b565b60405162461bcd60e51b815260206004820152603760248201527f416363657373436f6e74726f6c3a2063616e2774206469726563746c7920726560448201527f766f6b652064656661756c742061646d696e20726f6c650000000000000000006064820152608490fd5b346102e45760403660031901126102e457610a78610a27613dec565b60ff6040610a33613e61565b94600080516020614dc483398151915260e0515260656020528160e051203382526020522054168015610aa1575b610a6a906148a7565b610a7383614d27565b614d51565b60018060a01b031660e0515260d360205260e051604081206001600160801b0319815416905580f35b50610a6a610aad614cf2565b9050610a61565b346102e45760e0518060031936011261031557609754604080516001600160a01b038316815260a09290921c65ffffffffffff16602083015290f35b346102e45760e0518060031936011261031557506097546001600160a01b03919082163303610c49576097546001600160a01b038116919060a01c65ffffffffffff168015159081610c3f575b5015610be957610b8892609854908116906bffffffffffffffffffffffff60a01b1660985581805260656020526040822081835260205260ff604083205416610b9e575b5050614144565b609780546001600160d01b031916905560e05180f35b8180526065602052604082208183526020526040822060ff19815416905533917ff6391f5c32d9c69d2a47ea670b442974b53935d1edc7fd64eb21e047a839171b8180a48280610b81565b60405162461bcd60e51b815260206004820152602860248201527f416363657373436f6e74726f6c3a207472616e736665722064656c6179206e6f6044820152671d081c185cdcd95960c21b6064820152608490fd5b9050421184610b3d565b60405162461bcd60e51b815260206004820152602860248201527f416363657373436f6e74726f6c3a2070656e64696e672061646d696e206d75736044820152671d081858d8d95c1d60c21b6064820152608490fd5b346102e45760e05180600319360112610315576020610cbc61403c565b65ffffffffffff60405191168152f35b346102e45760203660031901126102e4576001600160801b0319610cee613dec565b1660e0515260d26020526020604060e0512054604051908152f35b346102e4576003196060368201126102e457600435916001600160401b0383116102e45760a0836004019284360301126102e457604060ff91600080516020614dc483398151915260e0515260656020528160e051203382526020522054168015610ef7575b610d78906148a7565b610d84610a7382614836565b6024820191610d9a610d9584614836565b614d8a565b610e39610da860d0546147e2565b928360d055610db681614836565b610e2d610dc287614836565b946084610dec610dd460448401614836565b95610de260648501826149d6565b9390940190614a0b565b94909560405199610dfc8b613c22565b8a5260243560208b01526001600160801b031980998180941660408d01521660608b01521660808901523691613f4b565b60a08601523691613eea565b60c0830152610e5c73__$099b2b4dcca745b6363fe801534306d3af$__93614836565b1660e0515260d260205260e051604081205490600019820191821161054b5750610e8590613b53565b5090823b156102e457604051636014524760e11b815260e06004820152928391610eb39060e4840190614a92565b92604435602484015260d4604484015260d5606484015260cf608484015260c960a484015260c4830152818060e0519403915af4801561049e576104895760e05180f35b50610d78610f03614cf2565b9050610d6f565b346102e45760203660031901126102e4576001600160a01b03610f2b613e4b565b1660e0515260d36020526020604060e051205460801b604051906001600160801b0319168152f35b346102e457600319906020368301126102e4576001600160401b03600435116102e4576102208092600435360301126102e457604060ff91600080516020614dc483398151915260e0515260656020528160e051203382526020522054168015611466575b610fc1906148a7565b61018490610fd5610a738360043501614836565b610fe6610d95600435600401614836565b6001600160801b0319610ffc6004803501614836565b1660e0515260d260205260e051604081205490600019820191821161054b575061102590613b53565b5060ca549261103b60a4600435013580956145ff565b60cb5410611412576110518460038401546145ff565b6004830154106113ba5761106660d0546147e2565b938460d05573__$099b2b4dcca745b6363fe801534306d3af$__3b156102e4579392906040519485946315d8e5e760e31b8652600486015260e060248601526111516103048601916001600160801b03196110c5600435600401613e36565b1660e48801526001600160801b03196110e2600435602401613e36565b16906101049182890152604460043501356101248901526064600435013561014489015260846004350135610164890152848801526001600160801b031961112e60c460043501613e36565b166101a488015260e460043501356101c4880152600435016004356004016148f3565b918291946101e4880152526103248501929060e0515b81811061138b5750505061128e61126861124261129e936111fe6111d86111b261119c61012460043501600435600401614927565b60e3198d8c0381016102049e8f01529a91614958565b6111c7610144600435016004356004016148f3565b8d83038b016102248f015290614979565b6111ed61016460043501600435600401614927565b8c83038a016102448e015290614958565b906112156001600160801b03199160043501613e36565b166102648a01526112316101a460043501600435600401614927565b90878b8403016102848c0152614958565b6112576101c460043501600435600401614927565b90868a8403016102a48b0152614958565b61127d6101e460043501600435600401614927565b9085898403016102c48a0152614958565b93600435016004356004016148f3565b9091858503016102e4860152808452602084019060208160051b860101948360e051915b83831061131c5788888860d4604484015260d5606484015260cf608484015260c960a484015260c4830152818060e05192038173__$099b2b4dcca745b6363fe801534306d3af$__5af4801561049e576104895760e05180f35b909192939496601f198282030186528735603e19843603018112156102e457602061137d60019386839401906113706113666113588480614927565b604085526040850191614958565b9285810190614927565b9185818503910152614958565b9901960194930191906112c2565b91955091926020806001926001600160801b03196113a88a613e36565b16815201960191019186959392611167565b60405162461bcd60e51b815260206004820152602a60248201527f53746f636b436c6173733a20496e73756666696369656e742073686172657320604482015269185d5d1a1bdc9a5e995960b21b6064820152608490fd5b60405162461bcd60e51b815260206004820152602660248201527f4973737565723a20496e73756666696369656e742073686172657320617574686044820152651bdc9a5e995960d21b6064820152608490fd5b50610fc1611472614cf2565b9050610fb8565b346102e45760203660031901126102e457611492613dec565b61149d610394614cf2565b6040519160208301908382106001600160401b0383111761153057506040526001600160801b0319908116825260ce54600160401b811015611518578060016114e9920160ce55613fd5565b929092611501575160801c9082541617905560e05180f35b634e487b7160e01b60e05152602460e05180600452fd5b634e487b7160e01b60e051526041600452602460e051fd5b634e487b7160e01b81526041600452602490fd5b346102e4576003196080368201126102e457600435906001600160401b03906024358281116102e45761157b903690600401613fba565b916044358181116102e457611594903690600401613f30565b906064359081116102e4576115ad903690600401613f30565b916115b9610394614cf2565b60ca54851061166d576115cd60d0546147e2565b928360d05573__$c1299ed9651e866ee22f0392da2a89ff35$__94853b156102e4576116449361162561163592604051998a9863721ef53960e01b8a5260048a0152602489015260e0604489015260e4880190614a3d565b9084878303016064880152613d78565b91848303016084850152613d78565b9160c960a483015260cf60c4830152818060e0519403915af4801561049e576104895760e05180f35b60405162461bcd60e51b815260206004820152604d60248201527f496e73756666696369656e74497373756572536861726573417574686f72697a60448201527f65643a207368617265735f6973737565642065786365656473206e657753686160648201526c1c995cd05d5d1a1bdc9a5e9959609a1b608482015260a490fd5b346102e45760e0518060031936011261031557602060d054604051908152f35b346102e45760203660031901126102e457611727613e4b565b611732610394614cf2565b600080516020614dc48339815191528083526065602052604083209160018060a01b03169182845260205260ff60408420541661176f5760e05180f35b8083526065602052604083208284526020526040832060ff1981541690557ff6391f5c32d9c69d2a47ea670b442974b53935d1edc7fd64eb21e047a839171b339380a4808080610483565b346102e45760203660031901126102e4576001600160a01b036117db613e4b565b168060e0515260d36020526001600160801b031980604060e051205460801b161561181f5760209160e0515260d38252604060e051205460801b9060405191168152f35b60405162461bcd60e51b8152602060048201526014602482015273139bc81cdd185ad95a1bdb19195c88199bdd5b9960621b6044820152606490fd5b346102e45760e0518060031936011261031557602090604051908152f35b346102e45760403660031901126102e457611892613dec565b9061189b613e08565b916001600160801b0319809116918260e0515260209360d5855260e0518360408220921690528452604060e051209360405192839482875495868152019660e0515260e0519383852094975b60019087828b01101561191657906040600292868954818160801b1683521688820152019601980197946118e7565b88915061194482878093888e8d8d549185828210611a41575b5010611a34575b505090509392930382613c8e565b60e051908192829683975b8351891015611a17578760e0515260d4835260e051604081209085518b1015611a035783858c60051b880101511690528352604060e05120946001860154906002870154908183029183830414831517156119ef576003926119b86119df95936119be936145ff565b996145ff565b969091015464ffffffffff908116919081168211156119e857505b986147e2565b9794939461194f565b90506119d9565b634e487b7160e01b8a52601160045260248afd5b634e487b7160e01b89526032600452602489fd5b8464ffffffffff6060928886604051948552840152166040820152f35b168152018390888a611936565b60019195858560801b1681520194018561192f565b346102e45760e05180600319360112610315576098548060d01c9182151580611ab1575b15611aa8575060a01c65ffffffffffff165b6040805165ffffffffffff928316815292909116602083015290f35b91505080611a8c565b5042831015611a7a565b346102e457602090816003193601126102e4576004359060cf548210156102e45760cf90527facb8d954e2cfef495862221e91bd7523613cf8808827cb33edfe4904cc51bf290190604051918260e0518254611b1681613ba4565b93848452600191868382169182600014611b95575050600114611b56575b5050611b4292500383613c8e565b6102e0604051928284938452830190613d78565b85925060e0515260e051908282205b858310611b7d575050611b4293508201018580611b34565b80548389018501528794508693909201918101611b65565b9250935050611b4294915060ff191682840152151560051b8201018580611b34565b346102e45760203660031901126102e457611bd0613e4b565b611bdb610394614cf2565b600080516020614dc48339815191528083526065602052604083209160018060a01b03169182845260205260ff60408420541615611c195760e05180f35b80835260656020526040832082845260205260408320600160ff198254161790557f2f8788117e7eff1d82e926ec794901d17c78024a50270940304540a733656f0d339380a4808080610483565b346102e45760c03660031901126102e4576001600160401b036004358181116102e457611c9890369060040161400c565b60a052906024358181116102e457611cb490369060040161400c565b929060c0526044358281116102e457611cd190369060040161400c565b916064358481116102e457611cea90369060040161400c565b946084358181116102e457611d0390369060040161400c565b96909160a4359081116102e457611d1e90369060040161400c565b9190608052611d2e610394614cf2565b8860a0511480611fcd575b80611fc4575b80611fbb575b80611fb2575b15611f5e5760e0515b60a0518082101561048357610a73611d7083611d75938a614897565b614836565b611d86610d95611d70838b8b614897565b611d94611d70828a8a614897565b611d9f828488614897565b35611dab838c88614897565b35611db98487608051614897565b359064ffffffffff821682036102e45764ffffffffff9260405194611ddd86613bde565b6001600160801b0319168552602085015260408401521660608201526001600160801b0319611e12611d708460a0518b614897565b1660e0515260d4602052604060e051208b611e3c611d70856001600160801b03199360c051614897565b1660e0515260205264ffffffffff60606003604060e05120845160801c6001600160801b03198254161781556020850151600182015560408501516002820155019201511664ffffffffff198254161790556001600160801b0319611ea7611d708360a0518a614897565b1660e0515260d5602052604060e051206001600160801b0319611ece611d70848c8c614897565b1660e05152602052604060e0512090611eed611d70828d60c051614897565b825490600160401b8210156115185760018201808555821015611f4657611f419360e05152602060e051208260011c01916001600160801b03608084549260071b169260801c831b921b19161790556147e2565b611d54565b634e487b7160e01b60e051526032600452602460e051fd5b60405162461bcd60e51b815260206004820152602660248201527f496e70757420617272617973206d7573742068617665207468652073616d65206044820152650d8cadccee8d60d31b6064820152608490fd5b50818814611d4b565b50878114611d45565b50808714611d3f565b50868914611d39565b346102e45760403660031901126102e45760ff6040602092611ff6613e61565b60e08051600435905260658652518390206001600160a01b03909116825284522054604051911615158152f35b346102e45760e05180600319360112610315576098546040516001600160a01b039091168152602090f35b346102e45760603660031901126102e457612067613dec565b90602435906044356001600160a01b03811691908281036122e95760e051549260ff8460081c1615938480956122dc575b80156122c5575b156122695760ff6120d19160e0519087600184198316178355612258575b505460081c166120cc81614782565b614782565b1561221357609780546001600160d01b031690556120f7906120f281614144565b6140a5565b600080516020614de4833981519152908181526065602052600160408220018281549155827fbd79b86ffe0ab8e8776151514217cd7cacd52c909f66475c3af44e129f0b00ff9181838580a4600080516020614dc4833981519152908183526001604084200192848454945580a46040519261217284613c58565b6001600160801b0319908360408383169687815260e0516020820152015260801c9060c954161760c95560e051918260ca5560cb55604051927fb8cbde9f597f493a1b4d1c4db5fded9cd26293080750a0df6b7e7097f4b680dd8380a26121d95760e05180f35b805461ff0019169055600181527f7f26b83ff96e1f2b6a682f133852f6798a09c465da95921460cefb384740249890602090a18080610483565b60405162461bcd60e51b815260206004820152601e60248201527f416363657373436f6e74726f6c3a20302064656661756c742061646d696e00006044820152606490fd5b61ffff1916610101178155896120bd565b60405162461bcd60e51b815260206004820152602e60248201527f496e697469616c697a61626c653a20636f6e747261637420697320616c72656160448201526d191e481a5b9a5d1a585b1a5e995960921b6064820152608490fd5b50303b15801561209f5750600160ff82161461209f565b50600160ff821610612098565b5080fd5b346102e45760e0518060031936011261031557602060cc54604051908152f35b346102e457600319906020368301126102e4576004356001600160401b0381116102e45760a0816004019382360301126102e45760ff6040602493600080516020614dc483398151915260e0515260656020528160e051203382526020522054168015612468575b61237e906148a7565b61238a610a7384614836565b0190612398610d9583614836565b6123a360d0546147e2565b908160d05573__$099b2b4dcca745b6363fe801534306d3af$__926123d06001600160801b031991614836565b1660e0515260d260205260e051604081205490600019820191821161054b57506123f990613b53565b5092803b156102e45760405163e713a5a960e01b815260e060048201529384926124279060e4850190614afc565b93602484015260d4604484015260d5606484015260cf608484015260c960a484015260c4830152818060e0519403915af4801561049e576104895760e05180f35b5061237e612474614cf2565b9050612375565b346102e45760e05180600319360112610315576020604051600080516020614de48339815191528152f35b346102e45760203660031901126102e4576104836124c2613e4b565b6120f2610394614cf2565b346102e45760e0518060031936011261031557602060cd54604051908152f35b346102e45760203660031901126102e4576001600160801b031961250f613dec565b1660e0515260d16020526020604060e0512054604051908152f35b346102e45760203660031901126102e45765ffffffffffff60043581811692918382036102e4576125596142fa565b6125624261471b565b938161256c61403c565b60e05191168083111561268157507ff1038c18cf84a56e432fdbfaf746924b7ea511dfe03a6506a0ceba4888788d9b956125ba939092909150620697808082101561267a57505b1690614075565b91609854908160d01c8061261c575b5050609880546001600160a01b031660a084901b65ffffffffffff60a01b161760d085901b6001600160d01b031916179055506040805165ffffffffffff9283168152919092166020820152a160e05180f35b4211156126505750609780546001600160d01b031660309290921b6001600160d01b0319169190911790555b8380806125c9565b7f2b1fa2edafe6f7b9e97c1a9e0c3660e645beb2dcaa2d45bdbf9beaf5472e1ec5915080a1612648565b90506125b3565b9190910391821161054b57507ff1038c18cf84a56e432fdbfaf746924b7ea511dfe03a6506a0ceba4888788d9b936125ba9190614075565b346102e45760203660031901126102e45760043560ce548110156102e4576126e2602091613fd5565b505460801b604051906001600160801b0319168152f35b346102e45760403660031901126102e4576080612714613dec565b61271c613e08565b6001600160801b031980921660e0515260d460205260e051826040822092169052602052604060e0512090815491600181015464ffffffffff60036002840154930154169260405194861b168452602084015260408301526060820152f35b346102e45760203660031901126102e4577f3377dc44241e779dd06afab5b788a35ca5f3b778836e2990bdb26a2a4b2e5ed660206127b7613e4b565b6127bf6142fa565b6127d96127cb4261471b565b6127d361403c565b90614075565b609780546001600160d01b031981166001600160a01b039490941693841760a084811b65ffffffffffff60a01b16919091179092559295919265ffffffffffff92911c8216612832575b5060405191168152a260e05180f35b807f8886ebfc4259abdbc16601dd8fb5678e54878f47b3c34836cfc51154a960510991a185612823565b346102e45760c03660031901126102e457612875613dec565b9061287e613e08565b612886613e1f565b606435928315158094036102e457604060ff91600080516020614dc483398151915260e0515260656020528160e051203382526020522054168015612a12575b6128cf906148a7565b6128d884614d51565b6128e182614d51565b6128ea81614d8a565b6128f560d0546147e2565b908160d0556040519461290786613c22565b6001600160801b031980911686528060208701941684528060408701921694858352606087019081526080870191608435835260a088019360a435855260c0890195865273__$099b2b4dcca745b6363fe801534306d3af$__9760e0515260d260205260e051604081205490600019820191821161054b575061298990613b53565b5096883b156102e4578290816040519b631f7c9e9760e31b8d52511660048c0152511660248a01525116604488015251151560648701525160848601525160a48501525160c484015260d460e484015260d561010484015260cf61012484015260c9610144840152610164830152816101848160e051935af4801561049e576104895760e05180f35b506128cf612a1e614cf2565b90506128c6565b346102e45760e0518060031936011261031557602060cf54604051908152f35b346102e45760e05180600319360112610315578060cc549160cd54905b838110612a7457602083604051908152f35b60e0515b828110612a8e5750612a89906147e2565b612a62565b92612ae5612aeb91612a9f84613e77565b506001600160801b031990549080608092831b1660e0515260209060d58252604060e0512092612ace8a613b53565b5054901b1660e0515252604060e0512054906145ff565b936147e2565b612a78565b346102e45760803660031901126102e457612b09613dec565b6001600160401b03906024358281116102e457612b2a903690600401613f30565b612b35610394614cf2565b6001600160801b03199081831660e0515260d2602052604060e0512054612d6a57604051612b6281613c3d565b82841681526020810190828252604435604082015260e0516060820152606435608082015260cd54600160401b81101561151857806001612ba6920160cd55613b53565b92909261150157815160801c858454161783555195865190811161151857612bd16001840154613ba4565b601f8111612d20575b5060e051602090601f8311600114612ca957509181608092600494612c5f98999a60e05192612c9e575b50508160011b916000199060031b1c19161760018501555b6040810151600285015560608101516003850155015191015560cd5483851660e0515260d2602052604060e0512055602060405192828480945193849201613d55565b8101039020907fc7496d70298fcc793e1d058617af680232585e302f0185b14bba498b247a9c1d6020604051926064358452604435951692a460e05180f35b015190508a80612c04565b60018501905260e051602081209890601f198416905b818110612d08575092612c5f979899600495936001938360809710612cef575b505050811b016001850155612c1c565b015160001960f88460031b161c191690558a8080612cdf565b838301518b556001909a019960209384019301612cbf565b6001840160e0515260e05160208120601f840160051c810160208510612d63575b601f840160051c82018110612d5857505050612bda565b828155600101612d41565b5080612d41565b604051631339dd8760e21b81528284166004820152602490fd5b346102e4576003196040368201126102e457600435916001600160401b0383116102e45760a0836004019284360301126102e457604060ff91600080516020614dc483398151915260e0515260656020528160e051203382526020522054168015612ed4575b612df3906148a7565b612dff610a7382614836565b6024820191612e10610d9584614836565b612e1e610da860d0546147e2565b60c0830152612e4173__$099b2b4dcca745b6363fe801534306d3af$__93614836565b1660e0515260d260205260e051604081205490600019820191821161054b5750612e6a90613b53565b5090823b156102e457604051637e218e7760e11b815260c06004820152928391612e989060c4840190614a92565b9260d4602484015260d5604484015260cf606484015260c9608484015260a4830152818060e0519403915af4801561049e576104895760e05180f35b50612df3612ee0614cf2565b9050612dea565b346102e45760803660031901126102e457612f00613dec565b90612f09613e08565b91612f12613e1f565b92606435906001600160401b0382116102e45760ff6040612f3a612f7a943690600401613fba565b95600080516020614dc483398151915260e0515260656020528160e051203382526020522054168015613077575b612f71906148a7565b610d9583614d51565b612f8560d0546147e2565b908160d0556001600160801b031980911660e0515260d460205260e0519381604086209116809552602052604060e051209060405190612fc482613bde565b825460801b168152606064ffffffffff600360018501549485602086015260028101546040860152015416910152156130655773__$099b2b4dcca745b6363fe801534306d3af$__91823b156102e4576130439060405194859363a453f4bf60e01b855260048501526024840152608060448401526084830190614a3d565b9160cf6064830152818060e0519403915af4801561049e576104895760e05180f35b604051632b2eaacf60e21b8152600490fd5b50612f71613083614cf2565b9050612f68565b346102e457602060031981813601126102e457600435906001600160401b0382116102e4576060826004019183360301126102e457803580151580613209575b806131f2575b156131ad5760cb939293556024908184013560ca55604460e0519401935b6130f885836147f1565b905081101561048357613118611d708261311288866147f1565b90614826565b61312181614d8a565b6001600160801b03191660e0515260d2845260e0516040812054906000198201918211613197575090613192918561315d836131128a886147f1565b0135600461316a83613b53565b500155600361318a6040613182856131128c8a6147f1565b013592613b53565b5001556147e2565b6130ee565b634e487b7160e01b9052601160045260e0518490fd5b60405162461bcd60e51b815260048101859052601d60248201527f496e76616c69642053656564696e672053686172657320506172616d730000006044820152606490fd5b5061320060448401836147f1565b905015156130d0565b50602483013515156130ca565b346102e45760203660031901126102e4576102e061323a613235613dec565b614c3c565b9160409593955195869586613d9d565b346102e45760403660031901126102e457600435613266613e61565b8115806133b4575b6132e9575b336001600160a01b0382160361328c576104839161424b565b60405162461bcd60e51b815260206004820152602f60248201527f416363657373436f6e74726f6c3a2063616e206f6e6c792072656e6f756e636560448201526e103937b632b9903337b91039b2b63360891b6064820152608490fd5b6097546001600160a01b038116159060a01c65ffffffffffff16816133a2575b8161338f575b501561332c576097805465ffffffffffff60a01b19169055613273565b60405162461bcd60e51b815260206004820152603560248201527f416363657373436f6e74726f6c3a206f6e6c792063616e2072656e6f756e636560448201527420696e2074776f2064656c6179656420737465707360581b6064820152608490fd5b905065ffffffffffff429116108361330f565b65ffffffffffff811615159150613309565b506098546001600160a01b0382811691161461326e565b346102e45760403660031901126102e4576004356133e7613e61565b908015613439578060e05152606560205261340a6001604060e0512001546144f4565b8083526065602052604083209160018060a01b03169182845260205260ff60408420541615611c195760e05180f35b60405162461bcd60e51b815260206004820152603660248201527f416363657373436f6e74726f6c3a2063616e2774206469726563746c79206772604482015275616e742064656661756c742061646d696e20726f6c6560501b6064820152608490fd5b346102e45760403660031901126102e4576134b6613dec565b9060ff60406134c3613e61565b92600080516020614dc483398151915260e0515260656020528160e051203382526020522054168015613570575b6134fa906148a7565b61350381614d27565b61350c82614d51565b60018060a01b0316908160e0515260d36020526001600160801b03199182604060e051205460801b166135585760e0515260d360205260e05191604083209160801c9082541617905580f35b60249060405190633c4d084f60e11b82526004820152fd5b506134fa61357c614cf2565b90506134f1565b346102e45760203660031901126102e45760043560e05152606560205260206001604060e051200154604051908152f35b346102e45760203660031901126102e45760043560cc548110156102e4576135db90613e77565b50805460801b6102e06135fc60026135f560018601613caf565b9401613caf565b60405193849384613eb2565b346102e45760e0518060031936011261031557606060c95460801b60ca5460cb5490604051926001600160801b031916835260208301526040820152f35b346102e45760203660031901126102e45761365f613e4b565b61366a610394614cf2565b600080516020614de48339815191528083526065602052604083209160018060a01b03169182845260205260ff60408420541661176f5760e05180f35b346102e4576003196040368201126102e457600435906001600160401b038083116102e457826004019160a08185360301126102e45760249283359283116102e457366023840112156102e45782600401359361370385613dd5565b956137116040519788613c8e565b85875260209485880183819860051b830101913683116102e4579087858095949301915b8383106139b05750505050600080516020614dc483398151915260e051526065865260e0516040812090339052865260ff604060e051205416801561399d575b61377e906148a7565b61378a610a7385614836565b0193613798610d9586614836565b6137a183614836565b6137aa86614836565b9388511561398b57885115613974576001600160801b03199182808a5116911660e0515260d4845260e051906040822091528352604060e0512094604051956137f287613bde565b8380825460801b1691828952600198606064ffffffffff60038c85015494858c8601526002810154604086015201541691015215928315613967575b5050506130655761384060d0546147e2565b988960d0558261386473__$099b2b4dcca745b6363fe801534306d3af$__99614836565b1660e0515260d2845260e0516040812054906000198201918211613951575061388c90613b53565b5096883b156102e45793806101009996928b99968d6138c660049b976040519e8f9d8e630b5aa02f60e41b815201526101048d0190614afc565b958b01528985030160448a0152519283815201979360e051905b8382106139375750505050505060d4606484015260d5608484015260cf60a484015260c960c484015260e4830152818060e0519403915af4801561049e576139285760e05180f35b61393190613c0f565b80610483565b855181168a52988201988a985094820194908401906138e0565b634e487b7160e01b9052601160045260e0518690fd5b16141590508a838161382e565b83634e487b7160e01b60e05152603260045260e051fd5b6040516309ef2e0760e01b8152600490fd5b5061377e6139a9614cf2565b9050613775565b82939495506139bf8293613e36565b81520191018785949392613735565b346102e45760e05180600319360112610315576139e96142fa565b6098548060d01c80613a0b575b609880546001600160a01b0316905560e05180f35b421115613a3d57609780546001600160d01b031660309290921b6001600160d01b0319169190911790555b80806139f6565b507f2b1fa2edafe6f7b9e97c1a9e0c3660e645beb2dcaa2d45bdbf9beaf5472e1ec560e05180a1613a36565b346102e45760e05180600319360112610315576020604051620697808152f35b346102e45760203660031901126102e45760043563ffffffff60e01b81168091036102e4576020906318a4c3c360e11b8114908115613ace575b506040519015158152f35b637965db0b60e01b811491508115613ae8575b5082613ac3565b6301ffc9a760e01b14905082613ae1565b346103155760203660031901126103155760043560cd548110156122e957613b2090613b53565b50805460801b6102e0613b3560018401613caf565b92600281015490600460038201549101549160405195869586613d9d565b60cd54811015613b8e5760059060cd600052027f83978b4c69c48dd978ab43fe30f077615294f938fb7f936d9eb340e51ea7db2e0190600090565b634e487b7160e01b600052603260045260246000fd5b90600182811c92168015613bd4575b6020831014613bbe57565b634e487b7160e01b600052602260045260246000fd5b91607f1691613bb3565b608081019081106001600160401b03821117613bf957604052565b634e487b7160e01b600052604160045260246000fd5b6001600160401b038111613bf957604052565b60e081019081106001600160401b03821117613bf957604052565b60a081019081106001600160401b03821117613bf957604052565b606081019081106001600160401b03821117613bf957604052565b602081019081106001600160401b03821117613bf957604052565b90601f801991011681019081106001600160401b03821117613bf957604052565b9060405191826000825492613cc384613ba4565b908184526001948581169081600014613d325750600114613cef575b5050613ced92500383613c8e565b565b9093915060005260209081600020936000915b818310613d1a575050613ced93508201013880613cdf565b85548884018501529485019487945091830191613d02565b915050613ced94506020925060ff191682840152151560051b8201013880613cdf565b60005b838110613d685750506000910152565b8181015183820152602001613d58565b90602091613d9181518092818552858086019101613d55565b601f01601f1916010190565b91613dc690608094979695926001600160801b031916845260a0602085015260a0840190613d78565b95604083015260608201520152565b6001600160401b038111613bf95760051b60200190565b600435906001600160801b031982168203613e0357565b600080fd5b602435906001600160801b031982168203613e0357565b604435906001600160801b031982168203613e0357565b35906001600160801b031982168203613e0357565b600435906001600160a01b0382168203613e0357565b602435906001600160a01b0382168203613e0357565b60cc54811015613b8e5760039060cc600052027f47197230e1e4b29fc0bd84d7d78966c0925452aff72a2a121538b102457e9ebe0190600090565b91613ed990613ee794926001600160801b0319168452606060208501526060840190613d78565b916040818403910152613d78565b90565b9291926001600160401b038211613bf95760405191613f13601f8201601f191660200184613c8e565b829481845281830111613e03578281602093846000960137010152565b9080601f83011215613e0357816020613ee793359101613eea565b92919092613f5884613dd5565b91613f666040519384613c8e565b829480845260208094019060051b830192828411613e035780915b848310613f9057505050505050565b82356001600160401b038111613e03578691613faf8684938601613f30565b815201920191613f81565b9080601f83011215613e0357816020613ee793359101613f4b565b60ce54811015613b8e5760ce6000527fd36cd1c74ef8d7326d8021b776c18fb5a5724b7f7bc93c2f42e43e10ef27d12a0190600090565b9181601f84011215613e03578235916001600160401b038311613e03576020808501948460051b010111613e0357565b6098548060d01c801515908161406b575b50156140615760a01c65ffffffffffff1690565b5060975460d01c90565b905042113861404d565b91909165ffffffffffff8080941691160191821161408f57565b634e487b7160e01b600052601160045260246000fd5b6001600160a01b031660008181527f9de19bebcfec5fefaa13a42edbcc11cb6ff633bb0eb0a7f29bcb2311657057e06020526040812054909190600080516020614de48339815191529060ff16156140fc57505050565b80835260656020526040832082845260205260408320600160ff198254161790557f2f8788117e7eff1d82e926ec794901d17c78024a50270940304540a733656f0d339380a4565b609854906001600160a01b03908183166141f157166001600160a01b031991909116811760985560008181527fffdfc1249c027f9191656349feb0761381bb32c9f557e01f419fd08754bf5a1b602052604081205490919060ff16156141a8575050565b81805260656020526040822081835260205260408220600160ff1982541617905533917f2f8788117e7eff1d82e926ec794901d17c78024a50270940304540a733656f0d8180a4565b60405162461bcd60e51b815260206004820152602c60248201527f416363657373436f6e74726f6c3a2064656661756c742061646d696e20616c7260448201526b1958591e4819dc985b9d195960a21b6064820152608490fd5b908115806142e3575b6142ce575b6000918083526065602052604083209160018060a01b03169182845260205260ff60408420541661428957505050565b8083526065602052604083208284526020526040832060ff1981541690557ff6391f5c32d9c69d2a47ea670b442974b53935d1edc7fd64eb21e047a839171b339380a4565b609880546001600160a01b0319169055614259565b506098546001600160a01b03828116911614614254565b3360009081527fffdfc1249c027f9191656349feb0761381bb32c9f557e01f419fd08754bf5a1b602090815260408083205490929060ff161561433c57505050565b6143453361461d565b908084519061435382613bde565b604282528482019260603685378251156144e057603084538251906001918210156144e05790607860218501536041915b8183116144725750505061443057604861442c93869361441093614401985198899376020b1b1b2b9b9a1b7b73a3937b61d1030b1b1b7bab73a1604d1b8a8601526143d8815180928c603789019101613d55565b8401917001034b99036b4b9b9b4b733903937b6329607d1b603784015251809386840190613d55565b01036028810187520185613c8e565b5192839262461bcd60e51b845260048401526024830190613d78565b0390fd5b60648486519062461bcd60e51b825280600483015260248201527f537472696e67733a20686578206c656e67746820696e73756666696369656e746044820152fd5b909192600f811660108110156144cc576f181899199a1a9b1b9c1cb0b131b232b360811b901a6144a2858761460c565b5360041c9280156144b857600019019190614384565b634e487b7160e01b82526011600452602482fd5b634e487b7160e01b83526032600452602483fd5b634e487b7160e01b81526032600452602490fd5b60009080825260209060658252604092838120338252835260ff84822054161561451e5750505050565b6145273361461d565b9184519061453482613bde565b604282528482019260603685378251156144e057603084538251906001918210156144e05790607860218501536041915b8183116145b95750505061443057604861442c93869361441093614401985198899376020b1b1b2b9b9a1b7b73a3937b61d1030b1b1b7bab73a1604d1b8a8601526143d8815180928c603789019101613d55565b909192600f811660108110156144cc576f181899199a1a9b1b9c1cb0b131b232b360811b901a6145e9858761460c565b5360041c9280156144b857600019019190614565565b9190820180921161408f57565b908151811015613b8e570160200190565b6040519061462a82613c58565b602a8252602082016040368237825115613b8e57603090538151600190811015613b8e57607860218401536029905b8082116146ad5750506146695790565b606460405162461bcd60e51b815260206004820152602060248201527f537472696e67733a20686578206c656e67746820696e73756666696369656e746044820152fd5b9091600f81166010811015614706576f181899199a1a9b1b9c1cb0b131b232b360811b901a6146dc848661460c565b5360041c9180156146f1576000190190614659565b60246000634e487b7160e01b81526011600452fd5b60246000634e487b7160e01b81526032600452fd5b65ffffffffffff9081811161472e571690565b60405162461bcd60e51b815260206004820152602660248201527f53616665436173743a2076616c756520646f65736e27742066697420696e203460448201526538206269747360d01b6064820152608490fd5b1561478957565b60405162461bcd60e51b815260206004820152602b60248201527f496e697469616c697a61626c653a20636f6e7472616374206973206e6f74206960448201526a6e697469616c697a696e6760a81b6064820152608490fd5b600019811461408f5760010190565b903590601e1981360301821215613e0357018035906001600160401b038211613e0357602001916060820236038313613e0357565b9190811015613b8e576060020190565b356001600160801b031981168103613e035790565b1561485257565b60405162461bcd60e51b815260206004820152601860248201527f446f6573206e6f7420686176652061646d696e20726f6c6500000000000000006044820152606490fd5b9190811015613b8e5760051b0190565b156148ae57565b60405162461bcd60e51b815260206004820152601b60248201527f446f6573206e6f742068617665206f70657261746f7220726f6c6500000000006044820152606490fd5b9035601e1982360301811215613e035701602081359101916001600160401b038211613e03578160051b36038313613e0357565b9035601e1982360301811215613e035701602081359101916001600160401b038211613e03578136038313613e0357565b908060209392818452848401376000828201840152601f01601f1916010190565b90808352602080930192838260051b850194846000925b8584106149a1575050505050505090565b9091929394959685806149c583856001950388526149bf8c88614927565b90614958565b990194019401929594939190614990565b903590601e1981360301821215613e0357018035906001600160401b038211613e0357602001918160051b36038313613e0357565b903590601e1981360301821215613e0357018035906001600160401b038211613e0357602001918136038313613e0357565b90815180825260208092019182818360051b82019501936000915b848310614a685750505050505090565b9091929394958480614a8283856001950387528a51613d78565b9801930193019194939290614a58565b613ee79181518152602082015160208201526001600160801b0319806040840151166040830152806060840151166060830152608083015116608082015260c0614aeb60a084015160e060a085015260e0840190614a3d565b9201519060c0818403910152613d78565b613ee7916001600160801b031980614b1384613e36565b16825280614b2360208501613e36565b166020830152614b3560408401613e36565b166040820152614b6a614b5f614b4e60608501856148f3565b60a0606086015260a0850191614979565b926080810190614927565b916080818503910152614958565b906001600160801b031980921690600082815260d1602052604092838220541515600014614c1857815260d160205282812054600019810191908211614c045750614bc290613e77565b50928251614bcf81613c58565b81855460801b168152614bf76002614be960018801613caf565b966020840197885201613caf565b8094820152511692519190565b634e487b7160e01b81526011600452602490fd5b50809350928251614c2881613c73565b818152925190614c3782613c73565b815290565b6001600160801b0319908116600081815260d2602052604081205490919015614cd757815260d26020526040812054600019810191908211614c045750614c8290613b53565b50604051614c8f81613c3d565b82825460801b168152614ca460018301613caf565b93846020830152600283015493846040840152600460038501549485606086015201549283608082015251169493929190565b5080915091604051614ce881613c73565b8281529180918190565b3360009081527f9de19bebcfec5fefaa13a42edbcc11cb6ff633bb0eb0a7f29bcb2311657057e0602052604090205460ff1690565b6001600160a01b03168015614d395750565b60249060405190633146914d60e11b82526004820152fd5b6001600160801b0319168060005260d160205260406000205415614d725750565b6024906040519063b4586dfb60e01b82526004820152fd5b6001600160801b0319168060005260d260205260406000205415614dab5750565b60249060405190630b2b152360e21b82526004820152fdfe523a704056dcd17bcf83bed8b68c59416dac1119be77755efe3bde0a64e46e0cdf8b4c520ffe197c5343c6f5aec59570151ef9a492f2c624fd45ddde6135ec42","linkReferences":{"src/lib/Stock.sol":{"StockLib":[{"start":3855,"length":20},{"start":4409,"length":20},{"start":5059,"length":20},{"start":9334,"length":20},{"start":10777,"length":20},{"start":12020,"length":20},{"start":12485,"length":20},{"start":14615,"length":20}]},"src/lib/transactions/Adjustment.sol":{"Adjustment":[{"start":1213,"length":20},{"start":5792,"length":20}]}}},"methodIdentifiers":{"ADMIN_ROLE()":"75b238fc","DEFAULT_ADMIN_ROLE()":"a217fddf","OPERATOR_ROLE()":"f5b541a6","acceptDefaultAdminTransfer()":"cefc1429","acceptStock(bytes16,bytes16,bytes16,string[])":"3e4106f3","addAdmin(address)":"70480275","addOperator(address)":"9870d7fe","addWalletToStakeholder(bytes16,address)":"2629ac0f","adjustIssuerAuthorizedShares(uint256,string[],string,string)":"b6238cd1","adjustStockClassAuthorizedShares(bytes16,uint256,string[],string,string)":"efb87519","beginDefaultAdminTransfer(address)":"634e93da","cancelDefaultAdminTransfer()":"d602b9fd","cancelStock((bytes16,bytes16,bytes16,string[],string),uint256)":"438fd5d8","changeDefaultAdminDelay(uint48)":"649a5ec7","createStakeholder(bytes16,string,string)":"d95a6be5","createStockClass(bytes16,string,uint256,uint256)":"4afd58fa","createStockLegendTemplate(bytes16)":"c1ad1d20","defaultAdmin()":"84ef8ffc","defaultAdminDelay()":"cc8463c8","defaultAdminDelayIncreaseWait()":"022d63fb","getActivePosition(bytes16,bytes16)":"63aefa5a","getAveragePosition(bytes16,bytes16)":"a1fc8196","getRoleAdmin(bytes32)":"248a9ca3","getStakeholderById(bytes16)":"f908b949","getStakeholderIdByWallet(address)":"a9e9f32a","getStockClassById(bytes16)":"371dc885","getTotalActiveSecuritiesCount()":"4d21af64","getTotalNumberOfStakeholders()":"84266a7d","getTotalNumberOfStockClasses()":"6924e428","getTransactionsCount()":"578cb8f9","grantRole(bytes32,address)":"2f2ff15d","hasRole(bytes32,address)":"91d14854","initialize(bytes16,uint256,address)":"89ee70c6","issueStock((bytes16,bytes16,(uint256,uint256),uint256,uint256,bytes16,uint256,bytes16[],string,string[],string,bytes16,string,string,string,(string,string)[]))":"c28aece9","issuer()":"1d143848","nonce()":"affed0e0","owner()":"8da5cb5b","pendingDefaultAdmin()":"cf6eefb7","pendingDefaultAdminDelay()":"a1eda53c","reissueStock((bytes16,bytes16,bytes16,string[],string),bytes16[])":"0c22d6bb","removeAdmin(address)":"1785f53c","removeOperator(address)":"ac8a584a","removeWalletFromStakeholder(bytes16,address)":"d125ba8b","renounceRole(bytes32,address)":"36568abe","repurchaseStock((bytes16,bytes16,bytes16,string[],string),uint256,uint256)":"c93fed66","retractStockIssuance((bytes16,bytes16,bytes16,string[],string))":"7799960d","revokeRole(bytes32,address)":"d547741f","rollbackDefaultAdminDelay()":"0aa6220b","seedMultipleActivePositionsAndSecurityIds(bytes16[],bytes16[],bytes16[],uint256[],uint256[],uint40[])":"924a750e","seedSharesAuthorizedAndIssued(((uint256,uint256),(bytes16,uint256,uint256)[]))":"3cec69df","stakeholderIndex(bytes16)":"69197f4d","stakeholders(uint256)":"1d6b8b72","stockClassIndex(bytes16)":"c95f650e","stockClasses(uint256)":"013f7f4f","stockLegendTemplates(uint256)":"63e71c4c","supportsInterface(bytes4)":"01ffc9a7","transactions(uint256)":"9ace38c2","transferStock(bytes16,bytes16,bytes16,bool,uint256,uint256)":"61dc98b9","walletsPerStakeholder(address)":"c8acae86"},"id":54}