{"abi":[{"type":"constructor","inputs":[],"stateMutability":"nonpayable"},{"type":"function","name":"ADMIN_ROLE","inputs":[],"outputs":[{"name":"","type":"bytes32","internalType":"bytes32"}],"stateMutability":"view"},{"type":"function","name":"DEFAULT_ADMIN_ROLE","inputs":[],"outputs":[{"name":"","type":"bytes32","internalType":"bytes32"}],"stateMutability":"view"},{"type":"function","name":"OPERATOR_ROLE","inputs":[],"outputs":[{"name":"","type":"bytes32","internalType":"bytes32"}],"stateMutability":"view"},{"type":"function","name":"acceptDefaultAdminTransfer","inputs":[],"outputs":[],"stateMutability":"nonpayable"},{"type":"function","name":"acceptStock","inputs":[{"name":"stakeholderId","type":"bytes16","internalType":"bytes16"},{"name":"stockClassId","type":"bytes16","internalType":"bytes16"},{"name":"securityId","type":"bytes16","internalType":"bytes16"},{"name":"comments","type":"string[]","internalType":"string[]"}],"outputs":[],"stateMutability":"nonpayable"},{"type":"function","name":"addAdmin","inputs":[{"name":"addr","type":"address","internalType":"address"}],"outputs":[],"stateMutability":"nonpayable"},{"type":"function","name":"addOperator","inputs":[{"name":"addr","type":"address","internalType":"address"}],"outputs":[],"stateMutability":"nonpayable"},{"type":"function","name":"addWalletToStakeholder","inputs":[{"name":"_stakeholder_id","type":"bytes16","internalType":"bytes16"},{"name":"_wallet","type":"address","internalType":"address"}],"outputs":[],"stateMutability":"nonpayable"},{"type":"function","name":"adjustIssuerAuthorizedShares","inputs":[{"name":"newSharesAuthorized","type":"uint256","internalType":"uint256"},{"name":"comments","type":"string[]","internalType":"string[]"},{"name":"boardApprovalDate","type":"string","internalType":"string"},{"name":"stockholderApprovalDate","type":"string","internalType":"string"}],"outputs":[],"stateMutability":"nonpayable"},{"type":"function","name":"adjustStockClassAuthorizedShares","inputs":[{"name":"stockClassId","type":"bytes16","internalType":"bytes16"},{"name":"newAuthorizedShares","type":"uint256","internalType":"uint256"},{"name":"comments","type":"string[]","internalType":"string[]"},{"name":"boardApprovalDate","type":"string","internalType":"string"},{"name":"stockholderApprovalDate","type":"string","internalType":"string"}],"outputs":[],"stateMutability":"nonpayable"},{"type":"function","name":"beginDefaultAdminTransfer","inputs":[{"name":"newAdmin","type":"address","internalType":"address"}],"outputs":[],"stateMutability":"nonpayable"},{"type":"function","name":"cancelDefaultAdminTransfer","inputs":[],"outputs":[],"stateMutability":"nonpayable"},{"type":"function","name":"cancelStock","inputs":[{"name":"params","type":"tuple","internalType":"struct StockParams","components":[{"name":"stakeholder_id","type":"bytes16","internalType":"bytes16"},{"name":"stock_class_id","type":"bytes16","internalType":"bytes16"},{"name":"security_id","type":"bytes16","internalType":"bytes16"},{"name":"comments","type":"string[]","internalType":"string[]"},{"name":"reason_text","type":"string","internalType":"string"}]},{"name":"quantity","type":"uint256","internalType":"uint256"}],"outputs":[],"stateMutability":"nonpayable"},{"type":"function","name":"changeDefaultAdminDelay","inputs":[{"name":"newDelay","type":"uint48","internalType":"uint48"}],"outputs":[],"stateMutability":"nonpayable"},{"type":"function","name":"createStakeholder","inputs":[{"name":"_id","type":"bytes16","internalType":"bytes16"},{"name":"_stakeholder_type","type":"string","internalType":"string"},{"name":"_current_relationship","type":"string","internalType":"string"}],"outputs":[],"stateMutability":"nonpayable"},{"type":"function","name":"createStockClass","inputs":[{"name":"_id","type":"bytes16","internalType":"bytes16"},{"name":"_class_type","type":"string","internalType":"string"},{"name":"_price_per_share","type":"uint256","internalType":"uint256"},{"name":"_initial_share_authorized","type":"uint256","internalType":"uint256"}],"outputs":[],"stateMutability":"nonpayable"},{"type":"function","name":"createStockLegendTemplate","inputs":[{"name":"_id","type":"bytes16","internalType":"bytes16"}],"outputs":[],"stateMutability":"nonpayable"},{"type":"function","name":"defaultAdmin","inputs":[],"outputs":[{"name":"","type":"address","internalType":"address"}],"stateMutability":"view"},{"type":"function","name":"defaultAdminDelay","inputs":[],"outputs":[{"name":"","type":"uint48","internalType":"uint48"}],"stateMutability":"view"},{"type":"function","name":"defaultAdminDelayIncreaseWait","inputs":[],"outputs":[{"name":"","type":"uint48","internalType":"uint48"}],"stateMutability":"view"},{"type":"function","name":"getActivePosition","inputs":[{"name":"stakeholderId","type":"bytes16","internalType":"bytes16"},{"name":"securityId","type":"bytes16","internalType":"bytes16"}],"outputs":[{"name":"","type":"bytes16","internalType":"bytes16"},{"name":"","type":"uint256","internalType":"uint256"},{"name":"","type":"uint256","internalType":"uint256"},{"name":"","type":"uint40","internalType":"uint40"}],"stateMutability":"view"},{"type":"function","name":"getAveragePosition","inputs":[{"name":"stakeholderId","type":"bytes16","internalType":"bytes16"},{"name":"stockClassId","type":"bytes16","internalType":"bytes16"}],"outputs":[{"name":"","type":"uint256","internalType":"uint256"},{"name":"","type":"uint256","internalType":"uint256"},{"name":"","type":"uint40","internalType":"uint40"}],"stateMutability":"view"},{"type":"function","name":"getRoleAdmin","inputs":[{"name":"role","type":"bytes32","internalType":"bytes32"}],"outputs":[{"name":"","type":"bytes32","internalType":"bytes32"}],"stateMutability":"view"},{"type":"function","name":"getStakeholderById","inputs":[{"name":"_id","type":"bytes16","internalType":"bytes16"}],"outputs":[{"name":"","type":"bytes16","internalType":"bytes16"},{"name":"","type":"string","internalType":"string"},{"name":"","type":"string","internalType":"string"}],"stateMutability":"view"},{"type":"function","name":"getStakeholderIdByWallet","inputs":[{"name":"_wallet","type":"address","internalType":"address"}],"outputs":[{"name":"stakeholderId","type":"bytes16","internalType":"bytes16"}],"stateMutability":"view"},{"type":"function","name":"getStockClassById","inputs":[{"name":"_id","type":"bytes16","internalType":"bytes16"}],"outputs":[{"name":"","type":"bytes16","internalType":"bytes16"},{"name":"","type":"string","internalType":"string"},{"name":"","type":"uint256","internalType":"uint256"},{"name":"","type":"uint256","internalType":"uint256"},{"name":"","type":"uint256","internalType":"uint256"}],"stateMutability":"view"},{"type":"function","name":"getTotalActiveSecuritiesCount","inputs":[],"outputs":[{"name":"","type":"uint256","internalType":"uint256"}],"stateMutability":"view"},{"type":"function","name":"getTotalNumberOfStakeholders","inputs":[],"outputs":[{"name":"","type":"uint256","internalType":"uint256"}],"stateMutability":"view"},{"type":"function","name":"getTotalNumberOfStockClasses","inputs":[],"outputs":[{"name":"","type":"uint256","internalType":"uint256"}],"stateMutability":"view"},{"type":"function","name":"getTransactionsCount","inputs":[],"outputs":[{"name":"","type":"uint256","internalType":"uint256"}],"stateMutability":"view"},{"type":"function","name":"grantRole","inputs":[{"name":"role","type":"bytes32","internalType":"bytes32"},{"name":"account","type":"address","internalType":"address"}],"outputs":[],"stateMutability":"nonpayable"},{"type":"function","name":"hasRole","inputs":[{"name":"role","type":"bytes32","internalType":"bytes32"},{"name":"account","type":"address","internalType":"address"}],"outputs":[{"name":"","type":"bool","internalType":"bool"}],"stateMutability":"view"},{"type":"function","name":"initialize","inputs":[{"name":"id","type":"bytes16","internalType":"bytes16"},{"name":"initial_shares_authorized","type":"uint256","internalType":"uint256"},{"name":"admin","type":"address","internalType":"address"}],"outputs":[],"stateMutability":"nonpayable"},{"type":"function","name":"issueStock","inputs":[{"name":"params","type":"tuple","internalType":"struct StockIssuanceParams","components":[{"name":"stock_class_id","type":"bytes16","internalType":"bytes16"},{"name":"stock_plan_id","type":"bytes16","internalType":"bytes16"},{"name":"share_numbers_issued","type":"tuple","internalType":"struct ShareNumbersIssued","components":[{"name":"starting_share_number","type":"uint256","internalType":"uint256"},{"name":"ending_share_number","type":"uint256","internalType":"uint256"}]},{"name":"share_price","type":"uint256","internalType":"uint256"},{"name":"quantity","type":"uint256","internalType":"uint256"},{"name":"vesting_terms_id","type":"bytes16","internalType":"bytes16"},{"name":"cost_basis","type":"uint256","internalType":"uint256"},{"name":"stock_legend_ids","type":"bytes16[]","internalType":"bytes16[]"},{"name":"issuance_type","type":"string","internalType":"string"},{"name":"comments","type":"string[]","internalType":"string[]"},{"name":"custom_id","type":"string","internalType":"string"},{"name":"stakeholder_id","type":"bytes16","internalType":"bytes16"},{"name":"board_approval_date","type":"string","internalType":"string"},{"name":"stockholder_approval_date","type":"string","internalType":"string"},{"name":"consideration_text","type":"string","internalType":"string"},{"name":"security_law_exemptions","type":"string[]","internalType":"string[]"}]}],"outputs":[],"stateMutability":"nonpayable"},{"type":"function","name":"issuer","inputs":[],"outputs":[{"name":"id","type":"bytes16","internalType":"bytes16"},{"name":"shares_issued","type":"uint256","internalType":"uint256"},{"name":"shares_authorized","type":"uint256","internalType":"uint256"}],"stateMutability":"view"},{"type":"function","name":"nonce","inputs":[],"outputs":[{"name":"","type":"uint256","internalType":"uint256"}],"stateMutability":"view"},{"type":"function","name":"owner","inputs":[],"outputs":[{"name":"","type":"address","internalType":"address"}],"stateMutability":"view"},{"type":"function","name":"pendingDefaultAdmin","inputs":[],"outputs":[{"name":"newAdmin","type":"address","internalType":"address"},{"name":"schedule","type":"uint48","internalType":"uint48"}],"stateMutability":"view"},{"type":"function","name":"pendingDefaultAdminDelay","inputs":[],"outputs":[{"name":"newDelay","type":"uint48","internalType":"uint48"},{"name":"schedule","type":"uint48","internalType":"uint48"}],"stateMutability":"view"},{"type":"function","name":"reissueStock","inputs":[{"name":"params","type":"tuple","internalType":"struct StockParams","components":[{"name":"stakeholder_id","type":"bytes16","internalType":"bytes16"},{"name":"stock_class_id","type":"bytes16","internalType":"bytes16"},{"name":"security_id","type":"bytes16","internalType":"bytes16"},{"name":"comments","type":"string[]","internalType":"string[]"},{"name":"reason_text","type":"string","internalType":"string"}]},{"name":"resulting_security_ids","type":"bytes16[]","internalType":"bytes16[]"}],"outputs":[],"stateMutability":"nonpayable"},{"type":"function","name":"removeAdmin","inputs":[{"name":"addr","type":"address","internalType":"address"}],"outputs":[],"stateMutability":"nonpayable"},{"type":"function","name":"removeOperator","inputs":[{"name":"addr","type":"address","internalType":"address"}],"outputs":[],"stateMutability":"nonpayable"},{"type":"function","name":"removeWalletFromStakeholder","inputs":[{"name":"_stakeholder_id","type":"bytes16","internalType":"bytes16"},{"name":"_wallet","type":"address","internalType":"address"}],"outputs":[],"stateMutability":"nonpayable"},{"type":"function","name":"renounceRole","inputs":[{"name":"role","type":"bytes32","internalType":"bytes32"},{"name":"account","type":"address","internalType":"address"}],"outputs":[],"stateMutability":"nonpayable"},{"type":"function","name":"repurchaseStock","inputs":[{"name":"params","type":"tuple","internalType":"struct StockParams","components":[{"name":"stakeholder_id","type":"bytes16","internalType":"bytes16"},{"name":"stock_class_id","type":"bytes16","internalType":"bytes16"},{"name":"security_id","type":"bytes16","internalType":"bytes16"},{"name":"comments","type":"string[]","internalType":"string[]"},{"name":"reason_text","type":"string","internalType":"string"}]},{"name":"quantity","type":"uint256","internalType":"uint256"},{"name":"price","type":"uint256","internalType":"uint256"}],"outputs":[],"stateMutability":"nonpayable"},{"type":"function","name":"retractStockIssuance","inputs":[{"name":"params","type":"tuple","internalType":"struct StockParams","components":[{"name":"stakeholder_id","type":"bytes16","internalType":"bytes16"},{"name":"stock_class_id","type":"bytes16","internalType":"bytes16"},{"name":"security_id","type":"bytes16","internalType":"bytes16"},{"name":"comments","type":"string[]","internalType":"string[]"},{"name":"reason_text","type":"string","internalType":"string"}]}],"outputs":[],"stateMutability":"nonpayable"},{"type":"function","name":"revokeRole","inputs":[{"name":"role","type":"bytes32","internalType":"bytes32"},{"name":"account","type":"address","internalType":"address"}],"outputs":[],"stateMutability":"nonpayable"},{"type":"function","name":"rollbackDefaultAdminDelay","inputs":[],"outputs":[],"stateMutability":"nonpayable"},{"type":"function","name":"seedMultipleActivePositionsAndSecurityIds","inputs":[{"name":"stakeholderIds","type":"bytes16[]","internalType":"bytes16[]"},{"name":"securityIds","type":"bytes16[]","internalType":"bytes16[]"},{"name":"stockClassIds","type":"bytes16[]","internalType":"bytes16[]"},{"name":"quantities","type":"uint256[]","internalType":"uint256[]"},{"name":"sharePrices","type":"uint256[]","internalType":"uint256[]"},{"name":"timestamps","type":"uint40[]","internalType":"uint40[]"}],"outputs":[],"stateMutability":"nonpayable"},{"type":"function","name":"seedSharesAuthorizedAndIssued","inputs":[{"name":"params","type":"tuple","internalType":"struct InitialShares","components":[{"name":"issuerInitialShares","type":"tuple","internalType":"struct IssuerInitialShares","components":[{"name":"shares_authorized","type":"uint256","internalType":"uint256"},{"name":"shares_issued","type":"uint256","internalType":"uint256"}]},{"name":"stockClassesInitialShares","type":"tuple[]","internalType":"struct StockClassInitialShares[]","components":[{"name":"id","type":"bytes16","internalType":"bytes16"},{"name":"shares_authorized","type":"uint256","internalType":"uint256"},{"name":"shares_issued","type":"uint256","internalType":"uint256"}]}]}],"outputs":[],"stateMutability":"nonpayable"},{"type":"function","name":"stakeholderIndex","inputs":[{"name":"","type":"bytes16","internalType":"bytes16"}],"outputs":[{"name":"","type":"uint256","internalType":"uint256"}],"stateMutability":"view"},{"type":"function","name":"stakeholders","inputs":[{"name":"","type":"uint256","internalType":"uint256"}],"outputs":[{"name":"id","type":"bytes16","internalType":"bytes16"},{"name":"stakeholder_type","type":"string","internalType":"string"},{"name":"current_relationship","type":"string","internalType":"string"}],"stateMutability":"view"},{"type":"function","name":"stockClassIndex","inputs":[{"name":"","type":"bytes16","internalType":"bytes16"}],"outputs":[{"name":"","type":"uint256","internalType":"uint256"}],"stateMutability":"view"},{"type":"function","name":"stockClasses","inputs":[{"name":"","type":"uint256","internalType":"uint256"}],"outputs":[{"name":"id","type":"bytes16","internalType":"bytes16"},{"name":"class_type","type":"string","internalType":"string"},{"name":"price_per_share","type":"uint256","internalType":"uint256"},{"name":"shares_issued","type":"uint256","internalType":"uint256"},{"name":"shares_authorized","type":"uint256","internalType":"uint256"}],"stateMutability":"view"},{"type":"function","name":"stockLegendTemplates","inputs":[{"name":"","type":"uint256","internalType":"uint256"}],"outputs":[{"name":"id","type":"bytes16","internalType":"bytes16"}],"stateMutability":"view"},{"type":"function","name":"supportsInterface","inputs":[{"name":"interfaceId","type":"bytes4","internalType":"bytes4"}],"outputs":[{"name":"","type":"bool","internalType":"bool"}],"stateMutability":"view"},{"type":"function","name":"transactions","inputs":[{"name":"","type":"uint256","internalType":"uint256"}],"outputs":[{"name":"","type":"bytes","internalType":"bytes"}],"stateMutability":"view"},{"type":"function","name":"transferStock","inputs":[{"name":"transferorStakeholderId","type":"bytes16","internalType":"bytes16"},{"name":"transfereeStakeholderId","type":"bytes16","internalType":"bytes16"},{"name":"stockClassId","type":"bytes16","internalType":"bytes16"},{"name":"isBuyerVerified","type":"bool","internalType":"bool"},{"name":"quantity","type":"uint256","internalType":"uint256"},{"name":"share_price","type":"uint256","internalType":"uint256"}],"outputs":[],"stateMutability":"nonpayable"},{"type":"function","name":"walletsPerStakeholder","inputs":[{"name":"","type":"address","internalType":"address"}],"outputs":[{"name":"","type":"bytes16","internalType":"bytes16"}],"stateMutability":"view"},{"type":"event","name":"DefaultAdminDelayChangeCanceled","inputs":[],"anonymous":false},{"type":"event","name":"DefaultAdminDelayChangeScheduled","inputs":[{"name":"newDelay","type":"uint48","indexed":false,"internalType":"uint48"},{"name":"effectSchedule","type":"uint48","indexed":false,"internalType":"uint48"}],"anonymous":false},{"type":"event","name":"DefaultAdminTransferCanceled","inputs":[],"anonymous":false},{"type":"event","name":"DefaultAdminTransferScheduled","inputs":[{"name":"newAdmin","type":"address","indexed":true,"internalType":"address"},{"name":"acceptSchedule","type":"uint48","indexed":false,"internalType":"uint48"}],"anonymous":false},{"type":"event","name":"Initialized","inputs":[{"name":"version","type":"uint8","indexed":false,"internalType":"uint8"}],"anonymous":false},{"type":"event","name":"IssuerCreated","inputs":[{"name":"id","type":"bytes16","indexed":true,"internalType":"bytes16"}],"anonymous":false},{"type":"event","name":"RoleAdminChanged","inputs":[{"name":"role","type":"bytes32","indexed":true,"internalType":"bytes32"},{"name":"previousAdminRole","type":"bytes32","indexed":true,"internalType":"bytes32"},{"name":"newAdminRole","type":"bytes32","indexed":true,"internalType":"bytes32"}],"anonymous":false},{"type":"event","name":"RoleGranted","inputs":[{"name":"role","type":"bytes32","indexed":true,"internalType":"bytes32"},{"name":"account","type":"address","indexed":true,"internalType":"address"},{"name":"sender","type":"address","indexed":true,"internalType":"address"}],"anonymous":false},{"type":"event","name":"RoleRevoked","inputs":[{"name":"role","type":"bytes32","indexed":true,"internalType":"bytes32"},{"name":"account","type":"address","indexed":true,"internalType":"address"},{"name":"sender","type":"address","indexed":true,"internalType":"address"}],"anonymous":false},{"type":"event","name":"StakeholderCreated","inputs":[{"name":"id","type":"bytes16","indexed":true,"internalType":"bytes16"}],"anonymous":false},{"type":"event","name":"StockClassCreated","inputs":[{"name":"id","type":"bytes16","indexed":true,"internalType":"bytes16"},{"name":"classType","type":"string","indexed":true,"internalType":"string"},{"name":"pricePerShare","type":"uint256","indexed":true,"internalType":"uint256"},{"name":"initialSharesAuthorized","type":"uint256","indexed":false,"internalType":"uint256"}],"anonymous":false},{"type":"error","name":"InsufficientIssuerSharesAuthorized","inputs":[]},{"type":"error","name":"InsufficientStockClassSharesAuthorized","inputs":[]},{"type":"error","name":"InvalidStockClass","inputs":[{"name":"stock_class_id","type":"bytes16","internalType":"bytes16"}]},{"type":"error","name":"InvalidWallet","inputs":[{"name":"wallet","type":"address","internalType":"address"}]},{"type":"error","name":"NoActivePositionFound","inputs":[]},{"type":"error","name":"NoIssuanceFound","inputs":[]},{"type":"error","name":"NoStakeholder","inputs":[{"name":"stakeholder_id","type":"bytes16","internalType":"bytes16"}]},{"type":"error","name":"StakeholderAlreadyExists","inputs":[{"name":"stakeholder_id","type":"bytes16","internalType":"bytes16"}]},{"type":"error","name":"StockClassAlreadyExists","inputs":[{"name":"stock_class_id","type":"bytes16","internalType":"bytes16"}]},{"type":"error","name":"StockClassDoesNotExist","inputs":[{"name":"stock_class_id","type":"bytes16","internalType":"bytes16"}]},{"type":"error","name":"WalletAlreadyExists","inputs":[{"name":"wallet","type":"address","internalType":"address"}]}],"bytecode":{"object":"0x60806040523480156200001157600080fd5b506200001c62000022565b620000e3565b600054610100900460ff16156200008f5760405162461bcd60e51b815260206004820152602760248201527f496e697469616c697a61626c653a20636f6e747261637420697320696e697469604482015266616c697a696e6760c81b606482015260840160405180910390fd5b60005460ff90811614620000e1576000805460ff191660ff9081179091556040519081527f7f26b83ff96e1f2b6a682f133852f6798a09c465da95921460cefb38474024989060200160405180910390a15b565b61551f80620000f36000396000f3fe608060405234801561001057600080fd5b50600436106103995760003560e01c80637799960d116101e9578063b6238cd11161010f578063cf6eefb7116100ad578063d95a6be51161007c578063d95a6be5146108e9578063efb87519146108fc578063f5b541a61461090f578063f908b9491461092457600080fd5b8063cf6eefb71461088d578063d125ba8b146108bb578063d547741f146108ce578063d602b9fd146108e157600080fd5b8063c93fed66116100e9578063c93fed661461084a578063c95f650e1461085d578063cc8463c81461087d578063cefc14291461088557600080fd5b8063b6238cd114610801578063c1ad1d2014610814578063c8acae861461082757600080fd5b80639870d7fe11610187578063a217fddf11610156578063a217fddf146107ca578063a9e9f32a146107d2578063ac8a584a146107e5578063affed0e0146107f857600080fd5b80639870d7fe1461073b5780639ace38c21461074e578063a1eda53c1461076e578063a1fc81961461079557600080fd5b806389ee70c6116101c357806389ee70c6146106fa5780638da5cb5b1461070d57806391d1485414610715578063924a750e1461072857600080fd5b80637799960d146106ba57806384266a7d146106cd57806384ef8ffc146106d557600080fd5b80633cec69df116102ce578063634e93da1161026c57806369197f4d1161023b57806369197f4d1461066a5780636924e4281461068a578063704802751461069257806375b238fc146106a557600080fd5b8063634e93da1461059657806363aefa5a146105a957806363e71c4c14610637578063649a5ec71461065757600080fd5b80634afd58fa116102a85780634afd58fa146105605780634d21af6414610573578063578cb8f91461057b57806361dc98b91461058357600080fd5b80633cec69df146105275780633e4106f31461053a578063438fd5d81461054d57600080fd5b80631d1438481161033b5780632629ac0f116103155780632629ac0f146104db5780632f2ff15d146104ee57806336568abe14610501578063371dc8851461051457600080fd5b80631d1438481461044d5780631d6b8b7214610488578063248a9ca3146104aa57600080fd5b80630874803011610377578063087480301461040a5780630aa6220b1461041f5780630c22d6bb146104275780631785f53c1461043a57600080fd5b8063013f7f4f1461039e57806301ffc9a7146103cb578063022d63fb146103ee575b600080fd5b6103b16103ac366004613f81565b610937565b6040516103c2959493929190613fea565b60405180910390f35b6103de6103d936600461402a565b610a06565b60405190151581526020016103c2565b620697805b60405165ffffffffffff90911681526020016103c2565b61041d610418366004614054565b610a31565b005b61041d610c8a565b61041d610435366004614127565b610ca0565b61041d610448366004614204565b610de8565b60c95460ca5460cb546104629260801b919083565b604080516001600160801b031990941684526020840192909252908201526060016103c2565b61049b610496366004613f81565b610e24565b6040516103c29392919061421f565b6104cd6104b8366004613f81565b60009081526065602052604090206001015490565b6040519081526020016103c2565b61041d6104e936600461425e565b610f6f565b61041d6104fc366004614291565b610ffd565b61041d61050f366004614291565b611077565b6103b16105223660046142b4565b611161565b61041d6105353660046142cf565b611306565b61041d61054836600461440b565b6114bf565b61041d61055b366004614479565b61160a565b61041d61056e3660046144bd565b611844565b6104cd6119b5565b60cf546104cd565b61041d61059136600461451a565b611a96565b61041d6105a4366004614204565b611caa565b6106056105b7366004614587565b6001600160801b0319918216600090815260d460209081526040808320939094168252919091522080546001820154600283015460039093015460809290921b9390929164ffffffffff1690565b604080516001600160801b0319909516855260208501939093529183015264ffffffffff1660608201526080016103c2565b61064a610645366004613f81565b611cbe565b6040516103c291906145b1565b61041d6106653660046145c6565b611ce2565b6104cd6106783660046142b4565b60d16020526000908152604090205481565b60cd546104cd565b61041d6106a0366004614204565b611cf6565b6104cd6000805160206154ff83398151915281565b61041d6106c83660046145ee565b611d32565b60cc546104cd565b6098546001600160a01b03165b6040516001600160a01b0390911681526020016103c2565b61041d61070836600461462a565b611e85565b6106e261205a565b6103de610723366004614291565b612073565b61041d6107363660046146b1565b61209e565b61041d610749366004614204565b612451565b61076161075c366004613f81565b61248d565b6040516103c291906147ee565b610776612539565b6040805165ffffffffffff9384168152929091166020830152016103c2565b6107a86107a3366004614587565b61258d565b60408051938452602084019290925264ffffffffff16908201526060016103c2565b6104cd600081565b61064a6107e0366004614204565b61271f565b61041d6107f3366004614204565b6127a7565b6104cd60d05481565b61041d61080f366004614801565b6127e3565b61041d6108223660046142b4565b612927565b61064a610835366004614204565b60d36020526000908152604090205460801b81565b61041d610858366004614886565b6129aa565b6104cd61086b3660046142b4565b60d26020526000908152604090205481565b6103f3612bb1565b61041d612c10565b610895612c8e565b604080516001600160a01b03909316835265ffffffffffff9091166020830152016103c2565b61041d6108c936600461425e565b612caf565b61041d6108dc366004614291565b612d2b565b61041d612da8565b61041d6108f73660046148d3565b612dbb565b61041d61090a366004614946565b612ef1565b6104cd6000805160206154df83398151915281565b61049b6109323660046142b4565b6130a7565b60cd818154811061094757600080fd5b60009182526020909120600590910201805460018201805460809290921b935090610971906149e8565b80601f016020809104026020016040519081016040528092919081815260200182805461099d906149e8565b80156109ea5780601f106109bf576101008083540402835291602001916109ea565b820191906000526020600020905b8154815290600101906020018083116109cd57829003601f168201915b5050505050908060020154908060030154908060040154905085565b60006001600160e01b031982166318a4c3c360e11b1480610a2b5750610a2b826132b2565b92915050565b610a496000805160206154df83398151915233612073565b80610a575750610a576132e7565b610a7c5760405162461bcd60e51b8152600401610a7390614a1c565b60405180910390fd5b610a96610a916101a0830161018084016142b4565b613301565b610aab610aa660208301836142b4565b61333c565b600060cd600160d283610ac160208701876142b4565b6001600160801b0319168152602081019190915260400160002054610ae69190614a69565b81548110610af657610af6614a7c565b9060005260206000209060050201905060c9600201548260a0013560c960010154610b219190614a92565b1115610b7e5760405162461bcd60e51b815260206004820152602660248201527f4973737565723a20496e73756666696369656e742073686172657320617574686044820152651bdc9a5e995960d21b6064820152608401610a73565b80600401548260a001358260030154610b979190614a92565b1115610bf85760405162461bcd60e51b815260206004820152602a60248201527f53746f636b436c6173733a20496e73756666696369656e742073686172657320604482015269185d5d1a1bdc9a5e995960b21b6064820152608401610a73565b60d08054906000610c0883614aa5565b909155505060d0546040516315d8e5e760e31b815273__$099b2b4dcca745b6363fe801534306d3af$__9163aec72f3891610c569190869060d49060d59060cf9060c9908a90600401614c19565b60006040518083038186803b158015610c6e57600080fd5b505af4158015610c82573d6000803e3d6000fd5b505050505050565b6000610c9581613377565b610c9d613381565b50565b610cb86000805160206154df83398151915233612073565b80610cc65750610cc66132e7565b610ce25760405162461bcd60e51b8152600401610a7390614a1c565b610cf2610a9160208401846142b4565b610d05610aa660408401602085016142b4565b610d2b81610d1660208501856142b4565b610d2660408601602087016142b4565b61338e565b60d08054906000610d3b83614aa5565b919050555073__$099b2b4dcca745b6363fe801534306d3af$__63b5aa02f08360d0548460d460d560cf60c960cd600160d260008e6020016020810190610d8291906142b4565b6001600160801b0319168152602081019190915260400160002054610da79190614a69565b81548110610db757610db7614a7c565b90600052602060002090600502016040518963ffffffff1660e01b8152600401610c56989796959493929190614ed1565b610df06132e7565b610e0c5760405162461bcd60e51b8152600401610a7390614f5c565b610c9d6000805160206154ff8339815191528261346b565b60cc8181548110610e3457600080fd5b60009182526020909120600390910201805460018201805460809290921b935090610e5e906149e8565b80601f0160208091040260200160405190810160405280929190818152602001828054610e8a906149e8565b8015610ed75780601f10610eac57610100808354040283529160200191610ed7565b820191906000526020600020905b815481529060010190602001808311610eba57829003601f168201915b505050505090806002018054610eec906149e8565b80601f0160208091040260200160405190810160405280929190818152602001828054610f18906149e8565b8015610f655780601f10610f3a57610100808354040283529160200191610f65565b820191906000526020600020905b815481529060010190602001808311610f4857829003601f168201915b5050505050905083565b610f876000805160206154df83398151915233612073565b80610f955750610f956132e7565b610fb15760405162461bcd60e51b8152600401610a7390614a1c565b610fba816134a6565b610fc382613301565b610fcc816134d8565b6001600160a01b0316600090815260d36020526040902080546001600160801b03191660809290921c919091179055565b816110695760405162461bcd60e51b815260206004820152603660248201527f416363657373436f6e74726f6c3a2063616e2774206469726563746c79206772604482015275616e742064656661756c742061646d696e20726f6c6560501b6064820152608401610a73565b6110738282613527565b5050565b8115801561109257506098546001600160a01b038281169116145b15611157576000806110a2612c8e565b90925090506001600160a01b0382161580156110c5575065ffffffffffff811615155b80156110d857504265ffffffffffff8216105b6111425760405162461bcd60e51b815260206004820152603560248201527f416363657373436f6e74726f6c3a206f6e6c792063616e2072656e6f756e636560448201527420696e2074776f2064656c6179656420737465707360581b6064820152608401610a73565b50506097805465ffffffffffff60a01b191690555b6110738282613551565b6001600160801b03198116600090815260d26020526040812054606090829081908190156112e1576001600160801b03198616600090815260d2602052604081205460cd906111b290600190614a69565b815481106111c2576111c2614a7c565b90600052602060002090600502016040518060a00160405290816000820160009054906101000a900460801b6001600160801b0319166001600160801b0319168152602001600182018054611216906149e8565b80601f0160208091040260200160405190810160405280929190818152602001828054611242906149e8565b801561128f5780601f106112645761010080835404028352916020019161128f565b820191906000526020600020905b81548152906001019060200180831161127257829003601f168201915b50505050508152602001600282015481526020016003820154815260200160048201548152505090508060000151816020015182604001518360600151846080015195509550955095509550506112fd565b5050604080516020810190915260008082529350915082905080805b91939590929450565b8035158015906113195750602081013515155b80156113335750600061132f6040830183614f93565b9050115b61137f5760405162461bcd60e51b815260206004820152601d60248201527f496e76616c69642053656564696e672053686172657320506172616d730000006044820152606401610a73565b803560cb55602081013560ca5560005b61139c6040830183614f93565b90508110156110735760006113b46040840184614f93565b838181106113c4576113c4614a7c565b6113da92602060609092020190810191506142b4565b90506113e58161333c565b6001600160801b03198116600090815260d2602052604081205461140b90600190614a69565b905061141a6040850185614f93565b8481811061142a5761142a614a7c565b9050606002016020013560cd828154811061144757611447614a7c565b60009182526020909120600460059092020101556114686040850185614f93565b8481811061147857611478614a7c565b9050606002016040013560cd828154811061149557611495614a7c565b906000526020600020906005020160030181905550505080806114b790614aa5565b91505061138f565b6114d76000805160206154df83398151915233612073565b806114e557506114e56132e7565b6115015760405162461bcd60e51b8152600401610a7390614a1c565b61150a84613301565b6115138361333c565b60d0805490600061152383614aa5565b90915550506001600160801b0319808516600090815260d46020908152604080832086851684528252918290208251608080820185528254901b90941684526001810154918401919091526002810154918301919091526003015464ffffffffff166060820152611593816135cb565b60d05460405163a453f4bf60e01b815273__$099b2b4dcca745b6363fe801534306d3af$__9163a453f4bf916115d391908790879060cf90600401615023565b60006040518083038186803b1580156115eb57600080fd5b505af41580156115ff573d6000803e3d6000fd5b505050505050505050565b6116226000805160206154df83398151915233612073565b8061163057506116306132e7565b61164c5760405162461bcd60e51b8152600401610a7390614a1c565b61165c610a9160208401846142b4565b61166f610aa660408401602085016142b4565b60d0805490600061167f83614aa5565b90915550506040805160e08101825260d054815260208082018490526000928201906116ad908601866142b4565b6001600160801b03191681526020018460200160208101906116cf91906142b4565b6001600160801b03191681526020016116ee60608601604087016142b4565b6001600160801b031916815260200161170a606086018661505d565b611713916150a6565b815260200161172560808601866150b3565b8080601f016020809104026020016040519081016040528093929190818152602001838380828437600081840152601f19601f82011690508083019250505050505050815250905073__$099b2b4dcca745b6363fe801534306d3af$__63fc431cee8260d460d560cf60c960cd600160d260008d60200160208101906117ab91906142b4565b6001600160801b03191681526020810191909152604001600020546117d09190614a69565b815481106117e0576117e0614a7c565b90600052602060002090600502016040518763ffffffff1660e01b815260040161180f96959493929190615174565b60006040518083038186803b15801561182757600080fd5b505af415801561183b573d6000803e3d6000fd5b50505050505050565b61184c6132e7565b6118685760405162461bcd60e51b8152600401610a7390614f5c565b611871846135f0565b6040805160a0810182526001600160801b0319868116825260208201868152928201859052600060608301819052608080840186905260cd8054600181018255925283517f83978b4c69c48dd978ab43fe30f077615294f938fb7f936d9eb340e51ea7db2e60059093029283018054909416911c1782559251919290917f83978b4c69c48dd978ab43fe30f077615294f938fb7f936d9eb340e51ea7db2f9091019061191d90826151f6565b5060408281015160028301556060830151600383015560809092015160049091015560cd546001600160801b03198616600090815260d2602052829020555182906119699085906152b5565b604051908190038120838252906001600160801b03198716907fc7496d70298fcc793e1d058617af680232585e302f0185b14bba498b247a9c1d9060200160405180910390a450505050565b600080805b60cc54811015611a905760005b60cd54811015611a7d5760d5600001600060cc84815481106119eb576119eb614a7c565b600091825260208083206003929092029091015460801b6001600160801b0319168352820192909252604001812060cd805491929184908110611a3057611a30614a7c565b600091825260208083206005929092029091015460801b6001600160801b0319168352820192909252604001902054611a699084614a92565b925080611a7581614aa5565b9150506119c7565b5080611a8881614aa5565b9150506119ba565b50919050565b611aae6000805160206154df83398151915233612073565b80611abc5750611abc6132e7565b611ad85760405162461bcd60e51b8152600401610a7390614a1c565b611ae186613301565b611aea85613301565b611af38461333c565b60d08054906000611b0383614aa5565b919050555060006040518060e00160405280886001600160801b0319168152602001876001600160801b0319168152602001866001600160801b0319168152602001851515815260200184815260200183815260200160d054815250905073__$099b2b4dcca745b6363fe801534306d3af$__63fbe4f4b88260d460d560cf60c960cd600160d260008f6001600160801b0319166001600160801b031916815260200190815260200160002054611bba9190614a69565b81548110611bca57611bca614a7c565b6000918252602091829020604080516001600160e01b031960e08c901b16815289516001600160801b03199081166004830152948a0151851660248201529089015190931660448401526060880151151560648401526080880151608484015260a088015160a484015260c09097015160c483015260e482019590955261010481019390935261012483019190915261014482015260059091029091016101648201526101840160006040518083038186803b158015611c8957600080fd5b505af4158015611c9d573d6000803e3d6000fd5b5050505050505050505050565b6000611cb581613377565b6110738261362a565b60ce8181548110611cce57600080fd5b60009182526020909120015460801b905081565b6000611ced81613377565b6110738261369d565b611cfe6132e7565b611d1a5760405162461bcd60e51b8152600401610a7390614f5c565b610c9d6000805160206154ff8339815191528261370d565b611d4a6000805160206154df83398151915233612073565b80611d585750611d586132e7565b611d745760405162461bcd60e51b8152600401610a7390614a1c565b611d84610a9160208301836142b4565b611d97610aa660408301602084016142b4565b60d08054906000611da783614aa5565b919050555073__$099b2b4dcca745b6363fe801534306d3af$__63e713a5a98260d05460d460d560cf60c960cd600160d260008c6020016020810190611ded91906142b4565b6001600160801b0319168152602081019190915260400160002054611e129190614a69565b81548110611e2257611e22614a7c565b90600052602060002090600502016040518863ffffffff1660e01b8152600401611e5297969594939291906152d1565b60006040518083038186803b158015611e6a57600080fd5b505af4158015611e7e573d6000803e3d6000fd5b5050505050565b600054610100900460ff1615808015611ea55750600054600160ff909116105b80611ebf5750303b158015611ebf575060005460ff166001145b611f225760405162461bcd60e51b815260206004820152602e60248201527f496e697469616c697a61626c653a20636f6e747261637420697320616c72656160448201526d191e481a5b9a5d1a585b1a5e995960921b6064820152608401610a73565b6000805460ff191660011790558015611f45576000805461ff0019166101001790555b611f506000836137b7565b611f686000805160206154ff8339815191528361370d565b611f806000805160206154ff833981519152806137e8565b611fa66000805160206154df8339815191526000805160206154ff8339815191526137e8565b604080516060810182526001600160801b031986811680835260006020840181905292840187905260c98054909216608089901c1790915560ca82905560cb86905591517fb8cbde9f597f493a1b4d1c4db5fded9cd26293080750a0df6b7e7097f4b680dd9190a28015612054576000805461ff0019169055604051600181527f7f26b83ff96e1f2b6a682f133852f6798a09c465da95921460cefb38474024989060200160405180910390a15b50505050565b600061206e6098546001600160a01b031690565b905090565b60009182526065602090815260408084206001600160a01b0393909316845291905290205460ff1690565b6120a66132e7565b6120c25760405162461bcd60e51b8152600401610a7390614f5c565b8a891480156120d057508887145b80156120db57508685145b80156120e657508483145b80156120f157508281145b61214c5760405162461bcd60e51b815260206004820152602660248201527f496e70757420617272617973206d7573742068617665207468652073616d65206044820152650d8cadccee8d60d31b6064820152608401610a73565b60005b8b811015612442576121818d8d8381811061216c5761216c614a7c565b9050602002016020810190610a9191906142b4565b6121ab89898381811061219657612196614a7c565b9050602002016020810190610aa691906142b4565b60405180608001604052808a8a848181106121c8576121c8614a7c565b90506020020160208101906121dd91906142b4565b6001600160801b03191681526020018888848181106121fe576121fe614a7c565b90506020020135815260200186868481811061221c5761221c614a7c565b90506020020135815260200184848481811061223a5761223a614a7c565b905060200201602081019061224f9190615315565b64ffffffffff16905260d460008f8f8581811061226e5761226e614a7c565b905060200201602081019061228391906142b4565b6001600160801b0319166001600160801b031916815260200190815260200160002060008d8d858181106122b9576122b9614a7c565b90506020020160208101906122ce91906142b4565b6001600160801b03199081168252602080830193909352604091820160009081208551815490931660809390931c9290921782559284015160018201559083015160028201556060909201516003909201805464ffffffffff191664ffffffffff9093169290921790915560d5908e8e8481811061234e5761234e614a7c565b905060200201602081019061236391906142b4565b6001600160801b0319166001600160801b031916815260200190815260200160002060008a8a8481811061239957612399614a7c565b90506020020160208101906123ae91906142b4565b6001600160801b031916815260208101919091526040016000208b8b838181106123da576123da614a7c565b90506020020160208101906123ef91906142b4565b81546001808201845560009384526020909320600282040180546001600160801b03949092166010026101000a9384021990911660809290921c929092021790558061243a81614aa5565b91505061214f565b50505050505050505050505050565b6124596132e7565b6124755760405162461bcd60e51b8152600401610a7390614f5c565b610c9d6000805160206154df8339815191528261370d565b60cf818154811061249d57600080fd5b9060005260206000200160009150905080546124b8906149e8565b80601f01602080910402602001604051908101604052809291908181526020018280546124e4906149e8565b80156125315780601f1061250657610100808354040283529160200191612531565b820191906000526020600020905b81548152906001019060200180831161251457829003601f168201915b505050505081565b609854600090600160d01b900465ffffffffffff16801515801561256557504265ffffffffffff821610155b61257157600080612585565b609854600160a01b900465ffffffffffff16815b915091509091565b6001600160801b0319808316600090815260d560209081526040808320938516835292815282822080548451818402810184019095528085529293849384938493919083018282801561262c57602002820191906000526020600020906000905b82829054906101000a900460801b6001600160801b03191681526020019060100190602082600f010492830192600103820291508084116125ee5790505b505050505090506000806000805b845181101561270f576001600160801b03198a16600090815260d4602052604081208651829088908590811061267257612672614a7c565b60200260200101516001600160801b0319166001600160801b03191681526020019081526020016000209050806002015481600101546126b2919061533c565b6126bc9086614a92565b94508060010154846126ce9190614a92565b600382015490945064ffffffffff8085169116116126ec57826126f9565b600381015464ffffffffff165b925050808061270790614aa5565b91505061263a565b5091955093509150509250925092565b6001600160a01b038116600090815260d3602052604081205460801b6001600160801b0319166127885760405162461bcd60e51b8152602060048201526014602482015273139bc81cdd185ad95a1bdb19195c88199bdd5b9960621b6044820152606401610a73565b506001600160a01b0316600090815260d3602052604090205460801b90565b6127af6132e7565b6127cb5760405162461bcd60e51b8152600401610a7390614f5c565b610c9d6000805160206154df8339815191528261346b565b6127eb6132e7565b6128075760405162461bcd60e51b8152600401610a7390614f5c565b60ca548410156128955760405162461bcd60e51b815260206004820152604d60248201527f496e73756666696369656e74497373756572536861726573417574686f72697a60448201527f65643a207368617265735f6973737565642065786365656473206e657753686160648201526c1c995cd05d5d1a1bdc9a5e9959609a1b608482015260a401610a73565b60d080549060006128a583614aa5565b909155505060d05460405163721ef53960e01b815273__$c1299ed9651e866ee22f0392da2a89ff35$__9163721ef539916128f19190889088908890889060c99060cf90600401615353565b60006040518083038186803b15801561290957600080fd5b505af415801561291d573d6000803e3d6000fd5b5050505050505050565b61292f6132e7565b61294b5760405162461bcd60e51b8152600401610a7390614f5c565b60408051602081019091526001600160801b0319918216815260ce805460018101825560009190915290517fd36cd1c74ef8d7326d8021b776c18fb5a5724b7f7bc93c2f42e43e10ef27d12a909101805490921660809190911c179055565b6129c26000805160206154df83398151915233612073565b806129d057506129d06132e7565b6129ec5760405162461bcd60e51b8152600401610a7390614a1c565b6129fc610a9160208501856142b4565b612a0f610aa660408501602086016142b4565b60d08054906000612a1f83614aa5565b90915550506040805160e08101825260d05481526020808201859052600092820190612a4d908701876142b4565b6001600160801b0319168152602001856020016020810190612a6f91906142b4565b6001600160801b0319168152602001612a8e60608701604088016142b4565b6001600160801b0319168152602001612aaa606087018761505d565b612ab3916150a6565b8152602001612ac560808701876150b3565b8080601f016020809104026020016040519081016040528093929190818152602001838380828437600081840152601f19601f82011690508083019250505050505050815250905073__$099b2b4dcca745b6363fe801534306d3af$__63c028a48e828460d460d560cf60c960cd600160d260008f6020016020810190612b4c91906142b4565b6001600160801b0319168152602081019190915260400160002054612b719190614a69565b81548110612b8157612b81614a7c565b90600052602060002090600502016040518863ffffffff1660e01b81526004016128f197969594939291906153af565b609854600090600160d01b900465ffffffffffff168015158015612bdc57504265ffffffffffff8216105b612bf757609754600160d01b900465ffffffffffff16612c0a565b609854600160a01b900465ffffffffffff165b91505090565b6000612c1a612c8e565b509050336001600160a01b03821614612c865760405162461bcd60e51b815260206004820152602860248201527f416363657373436f6e74726f6c3a2070656e64696e672061646d696e206d75736044820152671d081858d8d95c1d60c21b6064820152608401610a73565b610c9d613858565b6097546001600160a01b03811691600160a01b90910465ffffffffffff1690565b612cc76000805160206154df83398151915233612073565b80612cd55750612cd56132e7565b612cf15760405162461bcd60e51b8152600401610a7390614a1c565b612cfa816134a6565b612d0382613301565b6001600160a01b0316600090815260d36020526040902080546001600160801b031916905550565b81612d9e5760405162461bcd60e51b815260206004820152603760248201527f416363657373436f6e74726f6c3a2063616e2774206469726563746c7920726560448201527f766f6b652064656661756c742061646d696e20726f6c650000000000000000006064820152608401610a73565b6110738282613923565b6000612db381613377565b610c9d613948565b612dc36132e7565b612ddf5760405162461bcd60e51b8152600401610a7390614f5c565b612de883613953565b604080516060810182526001600160801b031985811682526020820185815292820184905260cc805460018101825560009190915282517f47197230e1e4b29fc0bd84d7d78966c0925452aff72a2a121538b102457e9ebe6003909202918201805490931660809190911c1782559251919290917f47197230e1e4b29fc0bd84d7d78966c0925452aff72a2a121538b102457e9ebf90910190612e8b90826151f6565b5060408201516002820190612ea090826151f6565b505060cc546001600160801b03198516600081815260d160205260408082209390935591519092507f53df47344d1cdf2ddb4901af5df61e37e14606bb7c8cc004d65c7c83ab3d06939190a2505050565b612ef96132e7565b612f155760405162461bcd60e51b8152600401610a7390614f5c565b6001600160801b03198516600090815260d2602052604081205460cd90612f3e90600190614a69565b81548110612f4e57612f4e614a7c565b90600052602060002090600502019050612f678661333c565b60cb548511156130145760405162461bcd60e51b815260206004820152606660248201527f496e73756666696369656e7453746f636b436c6173735368617265734175746860448201527f6f72697a65643a2073746f636b20636c61737320617574686f72697a6564207360648201527f68617265732065786365656473206973737565722073686172657320617574686084820152651bdc9a5e995960d21b60a482015260c401610a73565b60d0805490600061302483614aa5565b909155505060d054604051636f2ce39d60e11b815273__$c1299ed9651e866ee22f0392da2a89ff35$__9163de59c73a9161306f91908990899089908990899060cf90600401615353565b60006040518083038186803b15801561308757600080fd5b505af415801561309b573d6000803e3d6000fd5b50505050505050505050565b6001600160801b03198116600090815260d16020526040812054606090819015613289576001600160801b03198416600090815260d1602052604081205460cc906130f490600190614a69565b8154811061310457613104614a7c565b90600052602060002090600302016040518060600160405290816000820160009054906101000a900460801b6001600160801b0319166001600160801b0319168152602001600182018054613158906149e8565b80601f0160208091040260200160405190810160405280929190818152602001828054613184906149e8565b80156131d15780601f106131a6576101008083540402835291602001916131d1565b820191906000526020600020905b8154815290600101906020018083116131b457829003601f168201915b505050505081526020016002820180546131ea906149e8565b80601f0160208091040260200160405190810160405280929190818152602001828054613216906149e8565b80156132635780601f1061323857610100808354040283529160200191613263565b820191906000526020600020905b81548152906001019060200180831161324657829003601f168201915b5050505050815250509050806000015181602001518260400151935093509350506132ab565b5050604080516020808201835260008083528351918201909352828152919250905b9193909250565b60006001600160e01b03198216637965db0b60e01b1480610a2b57506301ffc9a760e01b6001600160e01b0319831614610a2b565b600061206e6000805160206154ff83398151915233612073565b6001600160801b03198116600090815260d160205260408120549003610c9d578060405163b4586dfb60e01b8152600401610a7391906145b1565b6001600160801b03198116600090815260d260205260408120549003610c9d5780604051630b2b152360e21b8152600401610a7391906145b1565b610c9d813361398d565b61338c6000806139e6565b565b82516000036133b0576040516309ef2e0760e01b815260040160405180910390fd5b6000836000815181106133c5576133c5614a7c565b6020908102919091018101516001600160801b0319808616600090815260d48452604080822083851683528552908190208151608080820184528254901b909316835260018101549483018590526002810154918301919091526003015464ffffffffff16606082015290925090158061344d575080516001600160801b0319848116911614155b15611e7e57604051632b2eaacf60e21b815260040160405180910390fd5b8115801561348657506098546001600160a01b038281169116145b1561349c57609880546001600160a01b03191690555b6110738282613aa6565b6001600160a01b038116610c9d57604051633146914d60e11b81526001600160a01b0382166004820152602401610a73565b6001600160a01b038116600090815260d3602052604090205460801b6001600160801b03191615610c9d57604051633c4d084f60e11b81526001600160a01b0382166004820152602401610a73565b60008281526065602052604090206001015461354281613377565b61354c838361370d565b505050565b6001600160a01b03811633146135c15760405162461bcd60e51b815260206004820152602f60248201527f416363657373436f6e74726f6c3a2063616e206f6e6c792072656e6f756e636560448201526e103937b632b9903337b91039b2b63360891b6064820152608401610a73565b611073828261346b565b8060200151600003610c9d57604051632b2eaacf60e21b815260040160405180910390fd5b6001600160801b03198116600090815260d2602052604090205415610c9d5780604051631339dd8760e21b8152600401610a7391906145b1565b6000613634612bb1565b61363d42613b0d565b61364791906153c2565b90506136538282613b78565b60405165ffffffffffff821681526001600160a01b038316907f3377dc44241e779dd06afab5b788a35ca5f3b778836e2990bdb26a2a4b2e5ed69060200160405180910390a25050565b60006136a882613bf7565b6136b142613b0d565b6136bb91906153c2565b90506136c782826139e6565b6040805165ffffffffffff8085168252831660208201527ff1038c18cf84a56e432fdbfaf746924b7ea511dfe03a6506a0ceba4888788d9b910160405180910390a15050565b816137ad5760006137266098546001600160a01b031690565b6001600160a01b0316146137915760405162461bcd60e51b815260206004820152602c60248201527f416363657373436f6e74726f6c3a2064656661756c742061646d696e20616c7260448201526b1958591e4819dc985b9d195960a21b6064820152608401610a73565b609880546001600160a01b0319166001600160a01b0383161790555b6110738282613c46565b600054610100900460ff166137de5760405162461bcd60e51b8152600401610a73906153e8565b6110738282613ccc565b8161384e5760405162461bcd60e51b815260206004820152603060248201527f416363657373436f6e74726f6c3a2063616e27742076696f6c6174652064656660448201526f61756c742061646d696e2072756c657360801b6064820152608401610a73565b6110738282613d73565b600080613863612c8e565b915091506138788165ffffffffffff16151590565b801561388b57504265ffffffffffff8216105b6138e85760405162461bcd60e51b815260206004820152602860248201527f416363657373436f6e74726f6c3a207472616e736665722064656c6179206e6f6044820152671d081c185cdcd95960c21b6064820152608401610a73565b61390460006138ff6098546001600160a01b031690565b61346b565b61390f60008361370d565b5050609780546001600160d01b0319169055565b60008281526065602052604090206001015461393e81613377565b61354c838361346b565b61338c600080613b78565b6001600160801b03198116600090815260d1602052604090205415610c9d57806040516333270c6160e01b8152600401610a7391906145b1565b6139978282612073565b611073576139a481613dbe565b6139af836020613dd0565b6040516020016139c0929190615433565b60408051601f198184030181529082905262461bcd60e51b8252610a73916004016147ee565b609854600160d01b900465ffffffffffff168015613a69574265ffffffffffff82161015613a3f57609854609780546001600160d01b0316600160a01b90920465ffffffffffff16600160d01b02919091179055613a69565b6040517f2b1fa2edafe6f7b9e97c1a9e0c3660e645beb2dcaa2d45bdbf9beaf5472e1ec590600090a15b50609880546001600160a01b0316600160a01b65ffffffffffff948516026001600160d01b031617600160d01b9290931691909102919091179055565b613ab08282612073565b156110735760008281526065602090815260408083206001600160a01b0385168085529252808320805460ff1916905551339285917ff6391f5c32d9c69d2a47ea670b442974b53935d1edc7fd64eb21e047a839171b9190a45050565b600065ffffffffffff821115613b745760405162461bcd60e51b815260206004820152602660248201527f53616665436173743a2076616c756520646f65736e27742066697420696e203460448201526538206269747360d01b6064820152608401610a73565b5090565b6000613b82612c8e565b6097805465ffffffffffff8616600160a01b026001600160d01b03199091166001600160a01b038816171790559150613bc490508165ffffffffffff16151590565b1561354c576040517f8886ebfc4259abdbc16601dd8fb5678e54878f47b3c34836cfc51154a960510990600090a1505050565b600080613c02612bb1565b90508065ffffffffffff168365ffffffffffff1611613c2a57613c2583826154a8565b613c3f565b613c3f65ffffffffffff841662069780613f6b565b9392505050565b613c508282612073565b6110735760008281526065602090815260408083206001600160a01b03851684529091529020805460ff19166001179055613c883390565b6001600160a01b0316816001600160a01b0316837f2f8788117e7eff1d82e926ec794901d17c78024a50270940304540a733656f0d60405160405180910390a45050565b600054610100900460ff16613cf35760405162461bcd60e51b8152600401610a73906153e8565b6001600160a01b038116613d495760405162461bcd60e51b815260206004820152601e60248201527f416363657373436f6e74726f6c3a20302064656661756c742061646d696e00006044820152606401610a73565b609780546001600160d01b0316600160d01b65ffffffffffff85160217905561107360008261370d565b600082815260656020526040808220600101805490849055905190918391839186917fbd79b86ffe0ab8e8776151514217cd7cacd52c909f66475c3af44e129f0b00ff9190a4505050565b6060610a2b6001600160a01b03831660145b60606000613ddf83600261533c565b613dea906002614a92565b6001600160401b03811115613e0157613e016140a1565b6040519080825280601f01601f191660200182016040528015613e2b576020820181803683370190505b509050600360fc1b81600081518110613e4657613e46614a7c565b60200101906001600160f81b031916908160001a905350600f60fb1b81600181518110613e7557613e75614a7c565b60200101906001600160f81b031916908160001a9053506000613e9984600261533c565b613ea4906001614a92565b90505b6001811115613f1c576f181899199a1a9b1b9c1cb0b131b232b360811b85600f1660108110613ed857613ed8614a7c565b1a60f81b828281518110613eee57613eee614a7c565b60200101906001600160f81b031916908160001a90535060049490941c93613f15816154c7565b9050613ea7565b508315613c3f5760405162461bcd60e51b815260206004820181905260248201527f537472696e67733a20686578206c656e67746820696e73756666696369656e746044820152606401610a73565b6000818310613f7a5781613c3f565b5090919050565b600060208284031215613f9357600080fd5b5035919050565b60005b83811015613fb5578181015183820152602001613f9d565b50506000910152565b60008151808452613fd6816020860160208601613f9a565b601f01601f19169290920160200192915050565b6001600160801b03198616815260a06020820152600061400d60a0830187613fbe565b604083019590955250606081019290925260809091015292915050565b60006020828403121561403c57600080fd5b81356001600160e01b031981168114613c3f57600080fd5b60006020828403121561406657600080fd5b81356001600160401b0381111561407c57600080fd5b82016102208185031215613c3f57600080fd5b600060a08284031215611a9057600080fd5b634e487b7160e01b600052604160045260246000fd5b604051601f8201601f191681016001600160401b03811182821017156140df576140df6140a1565b604052919050565b60006001600160401b03821115614100576141006140a1565b5060051b60200190565b80356001600160801b03198116811461412257600080fd5b919050565b6000806040838503121561413a57600080fd5b82356001600160401b038082111561415157600080fd5b61415d8683870161408f565b935060209150818501358181111561417457600080fd5b85019050601f8101861361418757600080fd5b803561419a614195826140e7565b6140b7565b81815260059190911b820183019083810190888311156141b957600080fd5b928401925b828410156141de576141cf8461410a565b825292840192908401906141be565b80955050505050509250929050565b80356001600160a01b038116811461412257600080fd5b60006020828403121561421657600080fd5b613c3f826141ed565b6001600160801b0319841681526060602082015260006142426060830185613fbe565b82810360408401526142548185613fbe565b9695505050505050565b6000806040838503121561427157600080fd5b61427a8361410a565b9150614288602084016141ed565b90509250929050565b600080604083850312156142a457600080fd5b82359150614288602084016141ed565b6000602082840312156142c657600080fd5b613c3f8261410a565b6000602082840312156142e157600080fd5b81356001600160401b038111156142f757600080fd5b820160608185031215613c3f57600080fd5b600082601f83011261431a57600080fd5b81356001600160401b03811115614333576143336140a1565b614346601f8201601f19166020016140b7565b81815284602083860101111561435b57600080fd5b816020850160208301376000918101602001919091529392505050565b6000614386614195846140e7565b8381529050602080820190600585901b8401868111156143a557600080fd5b845b818110156143e05780356001600160401b038111156143c65760008081fd5b6143d289828901614309565b8552509282019282016143a7565b505050509392505050565b600082601f8301126143fc57600080fd5b613c3f83833560208501614378565b6000806000806080858703121561442157600080fd5b61442a8561410a565b93506144386020860161410a565b92506144466040860161410a565b915060608501356001600160401b0381111561446157600080fd5b61446d878288016143eb565b91505092959194509250565b6000806040838503121561448c57600080fd5b82356001600160401b038111156144a257600080fd5b6144ae8582860161408f565b95602094909401359450505050565b600080600080608085870312156144d357600080fd5b6144dc8561410a565b935060208501356001600160401b038111156144f757600080fd5b61450387828801614309565b949794965050505060408301359260600135919050565b60008060008060008060c0878903121561453357600080fd5b61453c8761410a565b955061454a6020880161410a565b94506145586040880161410a565b93506060870135801515811461456d57600080fd5b9598949750929560808101359460a0909101359350915050565b6000806040838503121561459a57600080fd5b6145a38361410a565b91506142886020840161410a565b6001600160801b031991909116815260200190565b6000602082840312156145d857600080fd5b813565ffffffffffff81168114613c3f57600080fd5b60006020828403121561460057600080fd5b81356001600160401b0381111561461657600080fd5b6146228482850161408f565b949350505050565b60008060006060848603121561463f57600080fd5b6146488461410a565b92506020840135915061465d604085016141ed565b90509250925092565b60008083601f84011261467857600080fd5b5081356001600160401b0381111561468f57600080fd5b6020830191508360208260051b85010111156146aa57600080fd5b9250929050565b60008060008060008060008060008060008060c08d8f0312156146d357600080fd5b6001600160401b038d3511156146e857600080fd5b6146f58e8e358f01614666565b909c509a506001600160401b0360208e0135111561471257600080fd5b6147228e60208f01358f01614666565b909a5098506001600160401b0360408e0135111561473f57600080fd5b61474f8e60408f01358f01614666565b90985096506001600160401b0360608e0135111561476c57600080fd5b61477c8e60608f01358f01614666565b90965094506001600160401b0360808e0135111561479957600080fd5b6147a98e60808f01358f01614666565b90945092506001600160401b0360a08e013511156147c657600080fd5b6147d68e60a08f01358f01614666565b81935080925050509295989b509295989b509295989b565b602081526000613c3f6020830184613fbe565b6000806000806080858703121561481757600080fd5b8435935060208501356001600160401b038082111561483557600080fd5b614841888389016143eb565b9450604087013591508082111561485757600080fd5b61486388838901614309565b9350606087013591508082111561487957600080fd5b5061446d87828801614309565b60008060006060848603121561489b57600080fd5b83356001600160401b038111156148b157600080fd5b6148bd8682870161408f565b9660208601359650604090950135949350505050565b6000806000606084860312156148e857600080fd5b6148f18461410a565b925060208401356001600160401b038082111561490d57600080fd5b61491987838801614309565b9350604086013591508082111561492f57600080fd5b5061493c86828701614309565b9150509250925092565b600080600080600060a0868803121561495e57600080fd5b6149678661410a565b94506020860135935060408601356001600160401b038082111561498a57600080fd5b61499689838a016143eb565b945060608801359150808211156149ac57600080fd5b6149b889838a01614309565b935060808801359150808211156149ce57600080fd5b506149db88828901614309565b9150509295509295909350565b600181811c908216806149fc57607f821691505b602082108103611a9057634e487b7160e01b600052602260045260246000fd5b6020808252601b908201527f446f6573206e6f742068617665206f70657261746f7220726f6c650000000000604082015260600190565b634e487b7160e01b600052601160045260246000fd5b81810381811115610a2b57610a2b614a53565b634e487b7160e01b600052603260045260246000fd5b80820180821115610a2b57610a2b614a53565b600060018201614ab757614ab7614a53565b5060010190565b6000808335601e19843603018112614ad557600080fd5b83016020810192503590506001600160401b03811115614af457600080fd5b8060051b36038213156146aa57600080fd5b8183526000602080850194508260005b85811015614b43576001600160801b0319614b308361410a565b1687529582019590820190600101614b16565b509495945050505050565b6000808335601e19843603018112614b6557600080fd5b83016020810192503590506001600160401b03811115614b8457600080fd5b8036038213156146aa57600080fd5b81835281816020850137506000828201602090810191909152601f909101601f19169091010190565b81835260006020808501808196508560051b810191508460005b87811015614c0c578284038952614bed8288614b4e565b614bf8868284614b93565b9a87019a9550505090840190600101614bd6565b5091979650505050505050565b87815260e06020820152614c4160e08201614c338961410a565b6001600160801b0319169052565b6000614c4f6020890161410a565b6001600160801b03191661010083015260408801356101208301526060880135610140830152608088013561016083015260a0880135610180830152614c9760c0890161410a565b6001600160801b0319166101a083015260e08801356101c0830152614cc0610100890189614abe565b6101e061022081860152614cd961030086018385614b06565b9250614ce96101208c018c614b4e565b925060df19610200818887030181890152614d05868685614b93565b9550614d156101408f018f614abe565b955092508188870301610220890152614d2f868685614bbc565b9550614d3f6101608f018f614b4e565b955092508188870301610240890152614d59868685614b93565b9550614d686101808f0161410a565b6001600160801b031981166102608a01529450614d896101a08f018f614b4e565b955092508188870301610280890152614da3868685614b93565b9550614db36101c08f018f614b4e565b9550925081888703016102a0890152614dcd868685614b93565b9550614ddb848f018f614b4e565b9550935081888703016102c0890152614df5868686614b93565b9550614e03818f018f614abe565b955093505080878603016102e08801525050614e20838383614bbc565b604086019a909a52505050506060810194909452608084019290925260a083015260c09091015292915050565b60006001600160801b031980614e628461410a565b16845280614e726020850161410a565b16602085015280614e856040850161410a565b16604085015250614e996060830183614abe565b60a06060860152614eae60a086018284614bbc565b915050614ebe6080840184614b4e565b8583036080870152614254838284614b93565b6000610100808352614ee58184018c614e4d565b60208481018c905284820360408601528a518083528b82019350909182019060005b81811015614f2d5784516001600160801b03191683529383019391830191600101614f07565b50506060850199909952505050608081019490945260a084019290925260c083015260e0909101529392505050565b60208082526018908201527f446f6573206e6f7420686176652061646d696e20726f6c650000000000000000604082015260600190565b6000808335601e19843603018112614faa57600080fd5b8301803591506001600160401b03821115614fc457600080fd5b60200191506060810236038213156146aa57600080fd5b600081518084526020808501808196508360051b8101915082860160005b85811015614c0c578284038952615011848351613fbe565b98850198935090840190600101614ff9565b8481526001600160801b03198416602082015260806040820152600061504c6080830185614fdb565b905082606083015295945050505050565b6000808335601e1984360301811261507457600080fd5b8301803591506001600160401b0382111561508e57600080fd5b6020019150600581901b36038213156146aa57600080fd5b6000613c3f368484614378565b6000808335601e198436030181126150ca57600080fd5b8301803591506001600160401b038211156150e457600080fd5b6020019150368190038213156146aa57600080fd5b8051825260208101516020830152600060408201516001600160801b03198082166040860152806060850151166060860152806080850151166080860152505060a082015160e060a085015261515260e0850182614fdb565b905060c083015184820360c086015261516b8282613fbe565b95945050505050565b60c08152600061518760c08301896150f9565b60208301979097525060408101949094526060840192909252608083015260a090910152919050565b601f82111561354c57600081815260208120601f850160051c810160208610156151d75750805b601f850160051c820191505b81811015610c82578281556001016151e3565b81516001600160401b0381111561520f5761520f6140a1565b6152238161521d84546149e8565b846151b0565b602080601f83116001811461525857600084156152405750858301515b600019600386901b1c1916600185901b178555610c82565b600085815260208120601f198616915b8281101561528757888601518255948401946001909101908401615268565b50858210156152a55787850151600019600388901b60f8161c191681555b5050505050600190811b01905550565b600082516152c7818460208701613f9a565b9190910192915050565b60e0815260006152e460e083018a614e4d565b60208301989098525060408101959095526060850193909352608084019190915260a083015260c090910152919050565b60006020828403121561532757600080fd5b813564ffffffffff81168114613c3f57600080fd5b8082028115828204841417610a2b57610a2b614a53565b87815286602082015260e06040820152600061537260e0830188614fdb565b82810360608401526153848188613fbe565b905082810360808401526153988187613fbe565b60a0840195909552505060c0015295945050505050565b60e0815260006152e460e083018a6150f9565b65ffffffffffff8181168382160190808211156153e1576153e1614a53565b5092915050565b6020808252602b908201527f496e697469616c697a61626c653a20636f6e7472616374206973206e6f74206960408201526a6e697469616c697a696e6760a81b606082015260800190565b7f416363657373436f6e74726f6c3a206163636f756e742000000000000000000081526000835161546b816017850160208801613f9a565b7001034b99036b4b9b9b4b733903937b6329607d1b601791840191820152835161549c816028840160208801613f9a565b01602801949350505050565b65ffffffffffff8281168282160390808211156153e1576153e1614a53565b6000816154d6576154d6614a53565b50600019019056fe523a704056dcd17bcf83bed8b68c59416dac1119be77755efe3bde0a64e46e0cdf8b4c520ffe197c5343c6f5aec59570151ef9a492f2c624fd45ddde6135ec42","linkReferences":{"src/lib/Stock.sol":{"StockLib":[{"start":3346,"length":20},{"start":3637,"length":20},{"start":5784,"length":20},{"start":6242,"length":20},{"start":7254,"length":20},{"start":7841,"length":20},{"start":11266,"length":20}]},"src/lib/transactions/Adjustment.sol":{"Adjustment":[{"start":10671,"length":20},{"start":12590,"length":20}]}}},"methodIdentifiers":{"ADMIN_ROLE()":"75b238fc","DEFAULT_ADMIN_ROLE()":"a217fddf","OPERATOR_ROLE()":"f5b541a6","acceptDefaultAdminTransfer()":"cefc1429","acceptStock(bytes16,bytes16,bytes16,string[])":"3e4106f3","addAdmin(address)":"70480275","addOperator(address)":"9870d7fe","addWalletToStakeholder(bytes16,address)":"2629ac0f","adjustIssuerAuthorizedShares(uint256,string[],string,string)":"b6238cd1","adjustStockClassAuthorizedShares(bytes16,uint256,string[],string,string)":"efb87519","beginDefaultAdminTransfer(address)":"634e93da","cancelDefaultAdminTransfer()":"d602b9fd","cancelStock((bytes16,bytes16,bytes16,string[],string),uint256)":"438fd5d8","changeDefaultAdminDelay(uint48)":"649a5ec7","createStakeholder(bytes16,string,string)":"d95a6be5","createStockClass(bytes16,string,uint256,uint256)":"4afd58fa","createStockLegendTemplate(bytes16)":"c1ad1d20","defaultAdmin()":"84ef8ffc","defaultAdminDelay()":"cc8463c8","defaultAdminDelayIncreaseWait()":"022d63fb","getActivePosition(bytes16,bytes16)":"63aefa5a","getAveragePosition(bytes16,bytes16)":"a1fc8196","getRoleAdmin(bytes32)":"248a9ca3","getStakeholderById(bytes16)":"f908b949","getStakeholderIdByWallet(address)":"a9e9f32a","getStockClassById(bytes16)":"371dc885","getTotalActiveSecuritiesCount()":"4d21af64","getTotalNumberOfStakeholders()":"84266a7d","getTotalNumberOfStockClasses()":"6924e428","getTransactionsCount()":"578cb8f9","grantRole(bytes32,address)":"2f2ff15d","hasRole(bytes32,address)":"91d14854","initialize(bytes16,uint256,address)":"89ee70c6","issueStock((bytes16,bytes16,(uint256,uint256),uint256,uint256,bytes16,uint256,bytes16[],string,string[],string,bytes16,string,string,string,string[]))":"08748030","issuer()":"1d143848","nonce()":"affed0e0","owner()":"8da5cb5b","pendingDefaultAdmin()":"cf6eefb7","pendingDefaultAdminDelay()":"a1eda53c","reissueStock((bytes16,bytes16,bytes16,string[],string),bytes16[])":"0c22d6bb","removeAdmin(address)":"1785f53c","removeOperator(address)":"ac8a584a","removeWalletFromStakeholder(bytes16,address)":"d125ba8b","renounceRole(bytes32,address)":"36568abe","repurchaseStock((bytes16,bytes16,bytes16,string[],string),uint256,uint256)":"c93fed66","retractStockIssuance((bytes16,bytes16,bytes16,string[],string))":"7799960d","revokeRole(bytes32,address)":"d547741f","rollbackDefaultAdminDelay()":"0aa6220b","seedMultipleActivePositionsAndSecurityIds(bytes16[],bytes16[],bytes16[],uint256[],uint256[],uint40[])":"924a750e","seedSharesAuthorizedAndIssued(((uint256,uint256),(bytes16,uint256,uint256)[]))":"3cec69df","stakeholderIndex(bytes16)":"69197f4d","stakeholders(uint256)":"1d6b8b72","stockClassIndex(bytes16)":"c95f650e","stockClasses(uint256)":"013f7f4f","stockLegendTemplates(uint256)":"63e71c4c","supportsInterface(bytes4)":"01ffc9a7","transactions(uint256)":"9ace38c2","transferStock(bytes16,bytes16,bytes16,bool,uint256,uint256)":"61dc98b9","walletsPerStakeholder(address)":"c8acae86"},"id":51}