{"abi":[{"type":"function","name":"adjustIssuerAuthorizedShares","inputs":[{"name":"newSharesAuthorized","type":"uint256","internalType":"uint256"}],"outputs":[],"stateMutability":"nonpayable"},{"type":"function","name":"initializeIssuer","inputs":[{"name":"id","type":"bytes16","internalType":"bytes16"},{"name":"initial_shares_authorized","type":"uint256","internalType":"uint256"}],"outputs":[],"stateMutability":"nonpayable"},{"type":"event","name":"IssuerAuthorizedSharesAdjusted","inputs":[{"name":"newSharesAuthorized","type":"uint256","indexed":false,"internalType":"uint256"}],"anonymous":false},{"type":"event","name":"TxCreated","inputs":[{"name":"txType","type":"uint8","indexed":false,"internalType":"enum TxType"},{"name":"txData","type":"bytes","indexed":false,"internalType":"bytes"}],"anonymous":false},{"type":"error","name":"AccessControlUnauthorized","inputs":[{"name":"account","type":"address","internalType":"address"},{"name":"role","type":"bytes32","internalType":"bytes32"}]},{"type":"error","name":"InvalidSharesAuthorized","inputs":[]},{"type":"error","name":"IssuerAlreadyInitialized","inputs":[]}],"bytecode":{"object":"0x6080806040523461001657610310908161001c8239f35b600080fdfe608060408181526004908136101561001657600080fd5b600092833560e01c9081632f539c451461021f5750633f7a08e31461003a57600080fd5b3461021b57602080600319360112610217578235918480527f2031468f0c30f7087de4da9398818763b546d7f89935fa65485c24ff1df26bf38252808520338652825260ff8186205416156101fb577f2031468f0c30f7087de4da9398818763b546d7f89935fa65485c24ff1df26bf65483106101a357827f2031468f0c30f7087de4da9398818763b546d7f89935fa65485c24ff1df26bf7557fc4f6dc90809178743bbf231e348ffbad613598a05f67b2cc824c4a12ceffdde1828251858152a1805192828401528183528083019383851067ffffffffffffffff8611176101905750838152600184526060830152815190816080840152845b82811061017c5782840160a001869052857f88aa35e399ceb8d6b2e810abb3df607c140128e7c089c428f212598bda6a7eb7601f8501601f1916860186900360600187a180f35b808291850160a08382015191015201610135565b634e487b7160e01b865260419052602485fd5b5162461bcd60e51b81529283015250602e60248201527f4e65772073686172657320617574686f72697a6564206d757374206265203e3d60448201526d081cda185c995cc81a5cdcdd595960921b6064820152608490fd5b51633cea3dfb60e11b8152338185015260248101859052604490fd5b8380fd5b8280fd5b92919050346102175780600319360112610217578135916fffffffffffffffffffffffffffffffff1991828416840361030c577f2031468f0c30f7087de4da9398818763b546d7f89935fa65485c24ff1df26bf79485546102fe57505167ffffffffffffffff606082019182109111176102eb57507f2031468f0c30f7087de4da9398818763b546d7f89935fa65485c24ff1df26bf59160801c90825416179055817f2031468f0c30f7087de4da9398818763b546d7f89935fa65485c24ff1df26bf655602435905580f35b634e487b7160e01b855260419052602484fd5b63334bd48b60e21b81529050fd5b8580fd","linkReferences":{}},"methodIdentifiers":{"adjustIssuerAuthorizedShares(uint256)":"3f7a08e3","initializeIssuer(bytes16,uint256)":"2f539c45"},"id":49}