{"abi":[{"type":"function","name":"adjustIssuerAuthorizedShares","inputs":[{"name":"newSharesAuthorized","type":"uint256","internalType":"uint256"}],"outputs":[],"stateMutability":"nonpayable"},{"type":"function","name":"getAuthorizedShares","inputs":[],"outputs":[{"name":"","type":"uint256","internalType":"uint256"}],"stateMutability":"view"},{"type":"function","name":"getIssuedShares","inputs":[],"outputs":[{"name":"","type":"uint256","internalType":"uint256"}],"stateMutability":"view"},{"type":"function","name":"initializeIssuer","inputs":[{"name":"id","type":"bytes16","internalType":"bytes16"},{"name":"initial_shares_authorized","type":"uint256","internalType":"uint256"}],"outputs":[],"stateMutability":"nonpayable"},{"type":"event","name":"IssuerAuthorizedSharesAdjusted","inputs":[{"name":"newSharesAuthorized","type":"uint256","indexed":false,"internalType":"uint256"}],"anonymous":false},{"type":"event","name":"TxCreated","inputs":[{"name":"txType","type":"uint8","indexed":false,"internalType":"enum TxType"},{"name":"txData","type":"bytes","indexed":false,"internalType":"bytes"}],"anonymous":false},{"type":"error","name":"AccessControlUnauthorized","inputs":[{"name":"account","type":"address","internalType":"address"},{"name":"role","type":"bytes32","internalType":"bytes32"}]},{"type":"error","name":"InvalidSharesAuthorized","inputs":[]},{"type":"error","name":"IssuerAlreadyInitialized","inputs":[]}],"bytecode":{"object":"0x6080806040523461001657610576908161001c8239f35b600080fdfe608060408181526004918236101561001657600080fd5b600092833560e01c9182632f539c45146102fa575081633f7a08e3146100ce5750806359c3aea3146100915763e243d9c51461005157600080fd5b3461008d578160031936011261008d576020907f2031468f0c30f7087de4da9398818763b546d7f89935fa65485c24ff1df26bf9549051908152f35b5080fd5b503461008d578160031936011261008d576020907f2031468f0c30f7087de4da9398818763b546d7f89935fa65485c24ff1df26bf8549051908152f35b83833461008d576020806003193601126102f6578335937f2031468f0c30f7087de4da9398818763b546d7f89935fa65485c24ff1df26bf99061015382548551610117816104ae565b602681527f4265666f72652061646a7573746d656e74202d2073686172657320617574686f86820152653934bd32b21d60d11b8782015261050a565b8480527f2031468f0c30f7087de4da9398818763b546d7f89935fa65485c24ff1df26bf38352838520338652835260ff8486205416156102d9577f2031468f0c30f7087de4da9398818763b546d7f89935fa65485c24ff1df26bf854861061027f5750847f88aa35e399ceb8d6b2e810abb3df607c140128e7c089c428f212598bda6a7eb7949561027992556102298185516101ee816104ae565b602581527f41667465722061646a7573746d656e74202d2073686172657320617574686f72868201526434bd32b21d60d91b8782015261050a565b7fc4f6dc90809178743bbf231e348ffbad613598a05f67b2cc824c4a12ceffdde1838551838152a1835190838201528281526102648161047c565b838051948594600186528501528301906104ca565b0390a180f35b835162461bcd60e51b8152908101839052602e60248201527f4e65772073686172657320617574686f72697a6564206d757374206265203e3d60448201526d081cda185c995cc81a5cdcdd595960921b6064820152608490fd5b60449085855191633cea3dfb60e11b835233908301526024820152fd5b8280fd5b849084346102f657806003193601126102f6576fffffffffffffffffffffffffffffffff198435818116918282036104785761036c6024358661033d829861047c565b602081527f496e697469616c697a696e67206973737565722077697468207368617265733a602082015261050a565b7f2031468f0c30f7087de4da9398818763b546d7f89935fa65485c24ff1df26bf9928354610468578451906060820182811067ffffffffffffffff82111761045557610452989950879594939286928892835281528a602082015201527f2031468f0c30f7087de4da9398818763b546d7f89935fa65485c24ff1df26bf79160801c90825416179055857f2031468f0c30f7087de4da9398818763b546d7f89935fa65485c24ff1df26bf85555516104238161047c565b601f81527f416674657220696e6974202d2073686172657320617574686f72697a65643a00602082015261050a565b80f35b634e487b7160e01b895260418a52602489fd5b845163334bd48b60e21b81528890fd5b8580fd5b6040810190811067ffffffffffffffff82111761049857604052565b634e487b7160e01b600052604160045260246000fd5b6060810190811067ffffffffffffffff82111761049857604052565b919082519283825260005b8481106104f6575050826000602080949584010152601f8019910116010190565b6020818301810151848301820152016104d5565b604051809261053260208301936309710a9d60e41b85526040602485015260648401906104ca565b90604483015203601f8019918281018552011682019082821067ffffffffffffffff83111761049857600092839260405251906a636f6e736f6c652e6c6f675afa5056","linkReferences":{}},"methodIdentifiers":{"adjustIssuerAuthorizedShares(uint256)":"3f7a08e3","getAuthorizedShares()":"e243d9c5","getIssuedShares()":"59c3aea3","initializeIssuer(bytes16,uint256)":"2f539c45"},"id":49}