{"abi":[{"type":"function","name":"adjustAuthorizedShares","inputs":[{"name":"newSharesAuthorized","type":"uint256","internalType":"uint256"}],"outputs":[],"stateMutability":"nonpayable"},{"type":"function","name":"initializeIssuer","inputs":[{"name":"id","type":"bytes16","internalType":"bytes16"},{"name":"initial_shares_authorized","type":"uint256","internalType":"uint256"}],"outputs":[],"stateMutability":"nonpayable"},{"type":"event","name":"IssuerAuthorizedSharesAdjusted","inputs":[{"name":"newSharesAuthorized","type":"uint256","indexed":false,"internalType":"uint256"}],"anonymous":false},{"type":"event","name":"TxCreated","inputs":[{"name":"txType","type":"uint8","indexed":false,"internalType":"enum TxType"},{"name":"txData","type":"bytes","indexed":false,"internalType":"bytes"}],"anonymous":false},{"type":"error","name":"InvalidSharesAuthorized","inputs":[]},{"type":"error","name":"IssuerAlreadyInitialized","inputs":[]}],"bytecode":{"object":"0x608060405234801561001057600080fd5b50610358806100206000396000f3fe608060405234801561001057600080fd5b50600436106100365760003560e01c80632f539c451461003b578063673c395914610050575b600080fd5b61004e610049366004610292565b610063565b005b61004e61005e3660046102cb565b610116565b61006b6101c8565b7f2031468f0c30f7087de4da9398818763b546d7f89935fa65485c24ff1df26bf5547f2031468f0c30f7087de4da9398818763b546d7f89935fa65485c24ff1df26bf390156100cd5760405163334bd48b60e21b815260040160405180910390fd5b604080516060810182526001600160801b0319858116825260006020830181905291909201849052825490911660809490941c9390931781556001810192909255600290910155565b61011e6101c8565b7f2031468f0c30f7087de4da9398818763b546d7f89935fa65485c24ff1df26bf58190556040805182815290517f2031468f0c30f7087de4da9398818763b546d7f89935fa65485c24ff1df26bf3917fc4f6dc90809178743bbf231e348ffbad613598a05f67b2cc824c4a12ceffdde1919081900360200190a16101c46001836040516020016101b091815260200190565b604051602081830303815290604052610255565b5050565b7fc8fcad8db84d3cc18b4c41d551ea0ee66dd599cde068d998e57d5e09332c131c600401546001600160a01b031633146102535760405162461bcd60e51b815260206004820152602260248201527f4c69624469616d6f6e643a204d75737420626520636f6e7472616374206f776e60448201526132b960f11b606482015260840160405180910390fd5b565b7f88aa35e399ceb8d6b2e810abb3df607c140128e7c089c428f212598bda6a7eb782826040516102869291906102e4565b60405180910390a15050565b600080604083850312156102a557600080fd5b82356001600160801b0319811681146102bd57600080fd5b946020939093013593505050565b6000602082840312156102dd57600080fd5b5035919050565b6000600f841061030457634e487b7160e01b600052602160045260246000fd5b8382526020604081840152835180604085015260005b818110156103365785810183015185820160600152820161031a565b506000606082860101526060601f19601f83011685010192505050939250505056","linkReferences":{}},"methodIdentifiers":{"adjustAuthorizedShares(uint256)":"673c3959","initializeIssuer(bytes16,uint256)":"2f539c45"},"id":74}