{"abi":[{"type":"function","name":"getStockPosition","inputs":[{"name":"securityId","type":"bytes16","internalType":"bytes16"}],"outputs":[{"name":"","type":"tuple","internalType":"struct StockActivePosition","components":[{"name":"stakeholder_id","type":"bytes16","internalType":"bytes16"},{"name":"stock_class_id","type":"bytes16","internalType":"bytes16"},{"name":"quantity","type":"uint256","internalType":"uint256"},{"name":"share_price","type":"uint256","internalType":"uint256"}]}],"stateMutability":"view"},{"type":"function","name":"issueStock","inputs":[{"name":"stock_class_id","type":"bytes16","internalType":"bytes16"},{"name":"share_price","type":"uint256","internalType":"uint256"},{"name":"quantity","type":"uint256","internalType":"uint256"},{"name":"stakeholder_id","type":"bytes16","internalType":"bytes16"},{"name":"security_id","type":"bytes16","internalType":"bytes16"}],"outputs":[],"stateMutability":"nonpayable"},{"type":"event","name":"TxCreated","inputs":[{"name":"txType","type":"uint8","indexed":false,"internalType":"enum TxType"},{"name":"txData","type":"bytes","indexed":false,"internalType":"bytes"}],"anonymous":false},{"type":"error","name":"AccessControlUnauthorized","inputs":[{"name":"account","type":"address","internalType":"address"},{"name":"role","type":"bytes32","internalType":"bytes32"}]},{"type":"error","name":"AccessControlUnauthorizedOrInvestor","inputs":[{"name":"account","type":"address","internalType":"address"}]},{"type":"error","name":"InvalidAmount","inputs":[]},{"type":"error","name":"InvalidQuantity","inputs":[]},{"type":"error","name":"InvalidStockClass","inputs":[{"name":"stock_class_id","type":"bytes16","internalType":"bytes16"}]},{"type":"error","name":"NoStakeholder","inputs":[{"name":"stakeholder_id","type":"bytes16","internalType":"bytes16"}]}],"bytecode":{"object":"0x60808060405234610016576108c8908161001c8239f35b600080fdfe60406080815260048036101561001457600080fd5b600091823560e01c806355356b8b14610239576393d14df11461003657600080fd5b34610235576020908160031936011261023157610051610730565b928460608351610060816107bc565b82815282868201528285820152015261007833610811565b1580610221575b80610211575b6101fb576100923361088b565b806101eb575b806101db575b610129575b50806080946001600160801b031980951681527f2031468f0c30f7087de4da9398818763b546d7f89935fa65485c24ff1df26c018452208151926100e6846107bc565b8154948086881b16958686528183870191168152606060026001860154958789019687520154960195865284519687525116908501525190830152516060820152f35b6001600160801b031980851686527f2031468f0c30f7087de4da9398818763b546d7f89935fa65485c24ff1df26c02845282862054903387527f2031468f0c30f7087de4da9398818763b546d7f89935fa65485c24ff1df26c0c855280848820549260801b169160801b1603156100a35782606492519162461bcd60e51b8352820152601b60248201527f43616e206f6e6c792076696577206f776e20706f736974696f6e7300000000006044820152fd5b506101e533610811565b1561009e565b506101f53361084e565b15610098565b602491519063ad41016d60e01b82523390820152fd5b5061021b3361088b565b15610085565b5061022b3361084e565b1561007f565b8380fd5b8280fd5b50346102355760a036600319011261023557610253610730565b606435916001600160801b031980841680850361072c576084359180831692838103610728576102823361084e565b156106ec578289526020957f2031468f0c30f7087de4da9398818763b546d7f89935fa65485c24ff1df26bfb8752858a2054156106d557821696878a527f2031468f0c30f7087de4da9398818763b546d7f89935fa65485c24ff1df26bfd90818852868b2054156106be576044359384156106ae5760243593841561069e578a8d52838a52888d20546000199081810190811161068a576103229061074c565b50947f2031468f0c30f7087de4da9398818763b546d7f89935fa65485c24ff1df26bf8956103518988546107ee565b7f2031468f0c30f7087de4da9398818763b546d7f89935fa65485c24ff1df26bf95410610639578e6103878a60038401546107ee565b910154106105e3578c8f528b52898e20549081019081116105d05790898e8960028f8f8b918f9a99988e926103dc7f2031468f0c30f7087de4da9398818763b546d7f89935fa65485c24ff1df26c019261074c565b509c8951976103ea896107bc565b8852818801938452898801948552606088019586528852528887872095519151169060801c178455516001840155519101558981527f2031468f0c30f7087de4da9398818763b546d7f89935fa65485c24ff1df26c008d522090815491680100000000000000008310156105bb57600183018082558310156105a6578f90928c928e600398979695845283208260011c01916001600160801b03608084549260071b169260801c831b921b19161790558a81527f2031468f0c30f7087de4da9398818763b546d7f89935fa65485c24ff1df26c028d52209160801c90825416179055016104d88482546107ee565b90556104e58382546107ee565b905584519686880152848701526060860152608085015260a084015260a0835260c083019383851067ffffffffffffffff86111761059357508381526005845260e083015281519081610100840152845b82811061057e5782840161012001869052857f88aa35e399ceb8d6b2e810abb3df607c140128e7c089c428f212598bda6a7eb7601f8501601f1916860186900360600187a180f35b80829185016101208382015191015201610536565b634e487b7160e01b865260419052602485fd5b5050634e487b7160e01b8e5260328d5260248efd5b5050634e487b7160e01b8e5260418d5260248efd5b634e487b7160e01b8e5260118d5260248efd5b8a5162461bcd60e51b8152808f018d9052602a60248201527f53746f636b436c6173733a20496e73756666696369656e742073686172657320604482015269185d5d1a1bdc9a5e995960b21b6064820152608490fd5b60848f8e8e519162461bcd60e51b8352820152602660248201527f4973737565723a20496e73756666696369656e742073686172657320617574686044820152651bdc9a5e995960d21b6064820152fd5b50634e487b7160e01b8e5260118d5260248efd5b885163162908e360e11b81528c90fd5b875163524f409b60e01b81528b90fd5b8651630b2b152360e21b8152808b018a9052602490fd5b855163b4586dfb60e01b8152808a01859052602490fd5b8451633cea3dfb60e11b815233818a01527f97667070c54ef182b0f5858b034beac1b6f3089aa2d3188bb1e8929f4fa9b9296024820152604490fd5b8880fd5b8680fd5b600435906001600160801b03198216820361074757565b600080fd5b7f2031468f0c30f7087de4da9398818763b546d7f89935fa65485c24ff1df26bfc9081548110156107a657600591600052027f94b5f77b4b204cddc741b178a8d917ffac6e054e48f6d661772a7d99481cab890190600090565b634e487b7160e01b600052603260045260246000fd5b6080810190811067ffffffffffffffff8211176107d857604052565b634e487b7160e01b600052604160045260246000fd5b919082018092116107fb57565b634e487b7160e01b600052601160045260246000fd5b6001600160a01b031660009081527f5b8426ad6b46b2b80795b73723cafbcfb6f2e137b2c69c0c73ffc6754f1a64f5602052604090205460ff1690565b6001600160a01b031660009081527f20a65b27cef39f8cbee4f7fb947dec892749a5832be62c5137636d27b859f46d602052604090205460ff1690565b6001600160a01b031660009081527f46ddf1a90037197a25a2701fd5799aab0404e92a4c3ece6b11e607601ebd16a6602052604090205460ff169056","linkReferences":{}},"methodIdentifiers":{"getStockPosition(bytes16)":"93d14df1","issueStock(bytes16,uint256,uint256,bytes16,bytes16)":"55356b8b"},"id":53}