{"abi":[{"type":"function","name":"getStockPosition","inputs":[{"name":"securityId","type":"bytes16","internalType":"bytes16"}],"outputs":[{"name":"","type":"tuple","internalType":"struct StockActivePosition","components":[{"name":"stakeholder_id","type":"bytes16","internalType":"bytes16"},{"name":"stock_class_id","type":"bytes16","internalType":"bytes16"},{"name":"quantity","type":"uint256","internalType":"uint256"},{"name":"share_price","type":"uint256","internalType":"uint256"}]}],"stateMutability":"view"},{"type":"function","name":"issueStock","inputs":[{"name":"stock_class_id","type":"bytes16","internalType":"bytes16"},{"name":"share_price","type":"uint256","internalType":"uint256"},{"name":"quantity","type":"uint256","internalType":"uint256"},{"name":"stakeholder_id","type":"bytes16","internalType":"bytes16"},{"name":"security_id","type":"bytes16","internalType":"bytes16"},{"name":"custom_id","type":"string","internalType":"string"},{"name":"stock_legend_ids_mapping","type":"string","internalType":"string"},{"name":"security_law_exemptions_mapping","type":"string","internalType":"string"}],"outputs":[],"stateMutability":"nonpayable"},{"type":"event","name":"TxCreated","inputs":[{"name":"txType","type":"uint8","indexed":false,"internalType":"enum TxType"},{"name":"txData","type":"bytes","indexed":false,"internalType":"bytes"}],"anonymous":false},{"type":"error","name":"InvalidAmount","inputs":[]},{"type":"error","name":"InvalidQuantity","inputs":[]},{"type":"error","name":"InvalidStockClass","inputs":[{"name":"stock_class_id","type":"bytes16","internalType":"bytes16"}]},{"type":"error","name":"NoStakeholder","inputs":[{"name":"stakeholder_id","type":"bytes16","internalType":"bytes16"}]}],"bytecode":{"object":"0x6080806040523461001657610879908161001c8239f35b600080fdfe608080604052600436101561001357600080fd5b60003560e01c9081631246e5fb1461010357506393d14df11461003557600080fd5b346100fe5760203660031901126100fe576080610050610790565b600060606040516100608161082f565b82815282602082015282604082015201526001600160801b03198091166000527f2031468f0c30f7087de4da9398818763b546d7f89935fa65485c24ff1df26bfd6020526040600020604051906100b68261082f565b8054928084861b169384845281602085019116815260606002600185015494604087019586520154940193845260405194855251166020840152516040830152516060820152f35b600080fd5b346100fe576101003660031901126100fe5761011d610790565b6064356001600160801b0319811690036100fe576084356001600160801b0319811690036100fe5760a43567ffffffffffffffff81116100fe576101659036906004016107a7565b9260c43567ffffffffffffffff81116100fe576101869036906004016107a7565b93909160e43567ffffffffffffffff81116100fe576101a99036906004016107a7565b916001600160801b0319606435166000527f2031468f0c30f7087de4da9398818763b546d7f89935fa65485c24ff1df26bf76020526040600020541561076f57506001600160801b031983166000527f2031468f0c30f7087de4da9398818763b546d7f89935fa65485c24ff1df26bf96020526040600020541561074d576044351561073b5760243515610729576001600160801b031983166000527f2031468f0c30f7087de4da9398818763b546d7f89935fa65485c24ff1df26bf9602052604060002054600019810190811161066757610284906107d5565b506102b26044357f2031468f0c30f7087de4da9398818763b546d7f89935fa65485c24ff1df26bf45461084b565b7f2031468f0c30f7087de4da9398818763b546d7f89935fa65485c24ff1df26bf554106106d55760046102eb604435600284015461084b565b9101541061067d576001600160801b031983166000527f2031468f0c30f7087de4da9398818763b546d7f89935fa65485c24ff1df26bf9602052604060002054806000198101116106675761034390600019016107d5565b50916040516103518161082f565b6001600160801b03196064351681526001600160801b031985166020820152604435604082015260026060820160243581526001600160801b0319608435166000527f2031468f0c30f7087de4da9398818763b546d7f89935fa65485c24ff1df26bfd6020526040806000209380516001600160801b03196020830151169060801c17855501516001840155519101556001600160801b0319606435166000527f2031468f0c30f7087de4da9398818763b546d7f89935fa65485c24ff1df26bfc60205260406000209283546801000000000000000081101561063b576001810180865581101561065157601f96600261059993610585936105aa9860005260206000208160011c0190608082549160071b16906001600160801b0360843560801c831b921b19161790556001600160801b0319608435166000527f2031468f0c30f7087de4da9398818763b546d7f89935fa65485c24ff1df26bfe602052604060002060643560801c6001600160801b0319825416179055016104d8604435825461084b565b90556105076044357f2031468f0c30f7087de4da9398818763b546d7f89935fa65485c24ff1df26bf45461084b565b7f2031468f0c30f7087de4da9398818763b546d7f89935fa65485c24ff1df26bf455604051998a976001600160801b0319166020890152602435604089015260443560608901526001600160801b03196064351660808901526001600160801b03196084351660a089015261010060c0890152610120880191610858565b8619998a98898884030160e0890152610858565b918685840301610100860152610858565b038281018452011681019080821067ffffffffffffffff83111761063b5781604052600582526040602083015280519081604084015260005b828110610625577f88aa35e399ceb8d6b2e810abb3df607c140128e7c089c428f212598bda6a7eb78460608188601f88600085828601015201168101030190a1005b80602080928401015160608287010152016105e3565b634e487b7160e01b600052604160045260246000fd5b634e487b7160e01b600052603260045260246000fd5b634e487b7160e01b600052601160045260246000fd5b60405162461bcd60e51b815260206004820152602a60248201527f53746f636b436c6173733a20496e73756666696369656e742073686172657320604482015269185d5d1a1bdc9a5e995960b21b6064820152608490fd5b60405162461bcd60e51b815260206004820152602660248201527f4973737565723a20496e73756666696369656e742073686172657320617574686044820152651bdc9a5e995960d21b6064820152608490fd5b60405163162908e360e11b8152600490fd5b60405163524f409b60e01b8152600490fd5b604051630b2b152360e21b81526001600160801b031984166004820152602490fd5b63b4586dfb60e01b81526064356001600160801b0319166004820152602490fd5b600435906001600160801b0319821682036100fe57565b9181601f840112156100fe5782359167ffffffffffffffff83116100fe57602083818601950101116100fe57565b7f2031468f0c30f7087de4da9398818763b546d7f89935fa65485c24ff1df26bf890815481101561065157600591600052027fee6f7b31ced919e4b28e9b6e4406f8a625ca3bdeb0e9e0c4c4bc61059574b3180190600090565b6080810190811067ffffffffffffffff82111761063b57604052565b9190820180921161066757565b908060209392818452848401376000828201840152601f01601f191601019056","linkReferences":{}},"methodIdentifiers":{"getStockPosition(bytes16)":"93d14df1","issueStock(bytes16,uint256,uint256,bytes16,bytes16,string,string,string)":"1246e5fb"},"id":42}