{"abi":[{"type":"constructor","inputs":[{"name":"_capTableImplementation","type":"address","internalType":"address"}],"stateMutability":"nonpayable"},{"type":"function","name":"capTableBeacon","inputs":[],"outputs":[{"name":"","type":"address","internalType":"contract UpgradeableBeacon"}],"stateMutability":"view"},{"type":"function","name":"capTableImplementation","inputs":[],"outputs":[{"name":"","type":"address","internalType":"address"}],"stateMutability":"view"},{"type":"function","name":"capTableProxies","inputs":[{"name":"","type":"uint256","internalType":"uint256"}],"outputs":[{"name":"","type":"address","internalType":"address"}],"stateMutability":"view"},{"type":"function","name":"createCapTable","inputs":[{"name":"id","type":"bytes16","internalType":"bytes16"},{"name":"initial_shares_authorized","type":"uint256","internalType":"uint256"}],"outputs":[{"name":"","type":"address","internalType":"address"}],"stateMutability":"nonpayable"},{"type":"function","name":"getCapTableCount","inputs":[],"outputs":[{"name":"","type":"uint256","internalType":"uint256"}],"stateMutability":"view"},{"type":"function","name":"owner","inputs":[],"outputs":[{"name":"","type":"address","internalType":"address"}],"stateMutability":"view"},{"type":"function","name":"renounceOwnership","inputs":[],"outputs":[],"stateMutability":"nonpayable"},{"type":"function","name":"transferOwnership","inputs":[{"name":"newOwner","type":"address","internalType":"address"}],"outputs":[],"stateMutability":"nonpayable"},{"type":"function","name":"updateCapTableImplementation","inputs":[{"name":"newImplementation","type":"address","internalType":"address"}],"outputs":[],"stateMutability":"nonpayable"},{"type":"event","name":"CapTableCreated","inputs":[{"name":"capTableProxy","type":"address","indexed":true,"internalType":"address"}],"anonymous":false},{"type":"event","name":"OwnershipTransferred","inputs":[{"name":"previousOwner","type":"address","indexed":true,"internalType":"address"},{"name":"newOwner","type":"address","indexed":true,"internalType":"address"}],"anonymous":false}],"bytecode":{"object":"0x608034610156576001600160401b0390601f61123638819003918201601f19168301918483118484101761015b5780849260209460405283398101031261015657516001600160a01b03908181169081900361015657600080546001600160a01b031980821633908117845560405191969394939286167f8be0079c531659141344cd1fd0a4f28419497f9722a3daafe3b4186f6b6457e08680a3821561011457508185600154161760015560405191610424808401928484109084111761010057918391602093610e128439815203019082f09081156100f4575016906002541617600255604051610ca090816101728239f35b604051903d90823e3d90fd5b634e487b7160e01b85526041600452602485fd5b62461bcd60e51b815260206004820152601e60248201527f496e76616c696420696d706c656d656e746174696f6e206164647265737300006044820152606490fd5b600080fd5b634e487b7160e01b600052604160045260246000fdfe6040608081526004803610156200001557600080fd5b600091823560e01c80636200b50914620005795780636adff8fb1462000374578063715018a61462000316578063795a24ba14620002eb5780638da5cb5b14620002c1578063973837f914620001b9578063aa3c962d146200018e578063f0f6d5a014620001695763f2fde38b146200008d57600080fd5b346200016557602036600319011262000165576001600160a01b038235818116939192908490036200016157620000c36200060d565b83156200010f575050600054826bffffffffffffffffffffffff60a01b821617600055167f8be0079c531659141344cd1fd0a4f28419497f9722a3daafe3b4186f6b6457e0600080a380f35b906020608492519162461bcd60e51b8352820152602660248201527f4f776e61626c653a206e6577206f776e657220697320746865207a65726f206160448201526564647265737360d01b6064820152fd5b8480fd5b8280fd5b8382346200018a57816003193601126200018a576020906003549051908152f35b5080fd5b8382346200018a57816003193601126200018a5760025490516001600160a01b039091168152602090f35b508234620002be576020366003190112620002be5782356001600160a01b0381811693918490036200016557620001ef6200060d565b83156200027b576002541693843b156200016557828094956024845180968193631b2ce7f360e11b83528a878401525af18015620002715762000243575b600180546001600160a01b031916861790558380f35b67ffffffffffffffff83116200025e5750528280806200022d565b634e487b7160e01b845260419052602483fd5b82513d86823e3d90fd5b815162461bcd60e51b8152602081870152601e60248201527f496e76616c696420696d706c656d656e746174696f6e206164647265737300006044820152606490fd5b80fd5b8382346200018a57816003193601126200018a57905490516001600160a01b039091168152602090f35b8382346200018a57816003193601126200018a5760015490516001600160a01b039091168152602090f35b8334620002be5780600319360112620002be57620003336200060d565b80546001600160a01b03198116825581906001600160a01b03167f8be0079c531659141344cd1fd0a4f28419497f9722a3daafe3b4186f6b6457e08280a380f35b509190346200018a57826003193601126200018a578035926fffffffffffffffffffffffffffffffff1984168094036200016557602491823590620003b86200060d565b851515806200056f575b1562000535578251916020966344f7386360e11b888501528584015260448301523360648301526064825260a0820167ffffffffffffffff928082108483111762000523578185526002546001600160a01b03946106398381019287169160a0840191908211868310176200051157620006678639528560c082015281518060e083015289895b828110620004fa57505081810161010001899052601f01601f191601036060019086f08015620004f0578216936003549168010000000000000000831015620004df575050917f2a588e339f58f8b979f2068206590a6ec33cb720d94f5dc3d7e84ae9f25ea53891620004c4846001879601600355620005bf565b819291549060031b9186831b921b1916179055519380a28152f35b634e487b7160e01b87526041905285fd5b83513d87823e3d90fd5b8181860101516101008286010152018a9062000449565b634e487b7160e01b8b5260418752898bfd5b634e487b7160e01b8752604183528587fd5b606490601585602086519362461bcd60e51b855284015282015274496e76616c69642069737375657220706172616d7360581b6044820152fd5b50811515620003c2565b5090346200016557602036600319011262000165573591600354831015620002be5750620005a9602092620005bf565b60018060a01b0391549060031b1c169051908152f35b600354811015620005f75760036000527fc2575a0e9e593c00f959f8c92f12db2869c3395a3b0502d05e2516446f71f85b0190600090565b634e487b7160e01b600052603260045260246000fd5b6000546001600160a01b031633036200062257565b606460405162461bcd60e51b815260206004820152602060248201527f4f776e61626c653a2063616c6c6572206973206e6f7420746865206f776e65726044820152fdfe608060409080825261063980380380916100198285610350565b8339810190828183031261034b5761003081610373565b6020828101516001600160401b039391929184821161034b57019084601f8301121561034b5781519161006283610387565b9261006f88519485610350565b8084528484019685828401011161034b57868561008c93016103a2565b803b156102f9578551635c60da1b60e01b80825292916001600160a01b0316908481600481855afa9081156102ee576000916102b9575b503b1561025c577fa3f0ad74e5423aebfd80d3ef4346578335a9a72aeaee59ff6cb3582b35133d5080546001600160a01b03191682179055865192817f1cf3b03a6cf19fa2baba4df148e9dcabedea7f8a5c07840e207e5c089be95d3e600080a2825115801590610254575b610142575b87516101c090816104798239f35b6004848693819382525afa9182156102495760009261020f575b5085519360608501908111858210176101f9578652602784527f416464726573733a206c6f772d6c6576656c2064656c65676174652063616c6c83850152660819985a5b195960ca1b84870152516101e3946000918291845af4903d156101f0573d6101c781610387565b906101d488519283610350565b8152600081943d92013e6103c5565b5038808080808080610134565b606092506103c5565b634e487b7160e01b600052604160045260246000fd5b90918382813d8311610242575b6102268183610350565b8101031261023f575061023890610373565b903861015c565b80fd5b503d61021c565b86513d6000823e3d90fd5b50600061012f565b865162461bcd60e51b815260048101859052603060248201527f455243313936373a20626561636f6e20696d706c656d656e746174696f6e206960448201526f1cc81b9bdd08184818dbdb9d1c9858dd60821b6064820152608490fd5b908582813d83116102e7575b6102cf8183610350565b8101031261023f57506102e190610373565b386100c3565b503d6102c5565b88513d6000823e3d90fd5b855162461bcd60e51b815260048101849052602560248201527f455243313936373a206e657720626561636f6e206973206e6f74206120636f6e6044820152641d1c9858dd60da1b6064820152608490fd5b600080fd5b601f909101601f19168101906001600160401b038211908210176101f957604052565b51906001600160a01b038216820361034b57565b6001600160401b0381116101f957601f01601f191660200190565b60005b8381106103b55750506000910152565b81810151838201526020016103a5565b9192901561042757508151156103d9575090565b3b156103e25790565b60405162461bcd60e51b815260206004820152601d60248201527f416464726573733a2063616c6c20746f206e6f6e2d636f6e74726163740000006044820152606490fd5b82519091501561043a5750805190602001fd5b6044604051809262461bcd60e51b82526020600483015261046a81518092816024860152602086860191016103a2565b601f01601f19168101030190fdfe608080604052366100c4577fa3f0ad74e5423aebfd80d3ef4346578335a9a72aeaee59ff6cb3582b35133d5054635c60da1b60e01b8252602090829060049082906001600160a01b03165afa9081156100b857600091610060575b5061015b565b6020903d82116100b0575b601f8201601f1916810167ffffffffffffffff81118282101761009c5761009693506040520161017a565b3861005a565b634e487b7160e01b84526041600452602484fd5b3d915061006b565b6040513d6000823e3d90fd5b7fa3f0ad74e5423aebfd80d3ef4346578335a9a72aeaee59ff6cb3582b35133d5054604051635c60da1b60e01b815290602090829060049082906001600160a01b03165afa9081156100b85760009161011d575061015b565b60203d8111610154575b601f8101601f1916820167ffffffffffffffff81118382101761009c5761009693506040528101906101a1565b503d610127565b6000808092368280378136915af43d82803e15610176573d90f35b3d90fd5b602090607f19011261019c576080516001600160a01b038116810361019c5790565b600080fd5b9081602091031261019c57516001600160a01b038116810361019c57905660803461011a57601f61042438819003918201601f19168301916001600160401b0383118484101761011f5780849260209460405283398101031261011a57516001600160a01b03808216919082820361011a576000549160018060a01b0319923384821617600055604051923391167f8be0079c531659141344cd1fd0a4f28419497f9722a3daafe3b4186f6b6457e0600080a33b156100b2575060015416176001556040516102ee90816101368239f35b62461bcd60e51b815260206004820152603360248201527f5570677261646561626c65426561636f6e3a20696d706c656d656e746174696f60448201527f6e206973206e6f74206120636f6e7472616374000000000000000000000000006064820152608490fd5b600080fd5b634e487b7160e01b600052604160045260246000fdfe6080604052600436101561001257600080fd5b6000803560e01c80633659cfe6146101c75780635c60da1b1461019e578063715018a6146101445780638da5cb5b1461011d5763f2fde38b1461005457600080fd5b3461011a57602036600319011261011a576004356001600160a01b038181169182900361011657610083610296565b81156100c25782546001600160a01b0319811683178455167f8be0079c531659141344cd1fd0a4f28419497f9722a3daafe3b4186f6b6457e08380a380f35b60405162461bcd60e51b815260206004820152602660248201527f4f776e61626c653a206e6577206f776e657220697320746865207a65726f206160448201526564647265737360d01b6064820152608490fd5b8280fd5b80fd5b503461011a578060031936011261011a57546040516001600160a01b039091168152602090f35b503461011a578060031936011261011a5761015d610296565b80546001600160a01b03198116825581906001600160a01b03167f8be0079c531659141344cd1fd0a4f28419497f9722a3daafe3b4186f6b6457e08280a380f35b503461011a578060031936011261011a576001546040516001600160a01b039091168152602090f35b503461011a57602036600319011261011a576004356001600160a01b03811690818103610116576101f6610296565b3b1561023557600180546001600160a01b031916821790557fbc7cd75a20ee27fd9adebab32041f755214dbc6bffa90cc0225b39da2e5c2d3b8280a280f35b60405162461bcd60e51b815260206004820152603360248201527f5570677261646561626c65426561636f6e3a20696d706c656d656e746174696f6044820152721b881a5cc81b9bdd08184818dbdb9d1c9858dd606a1b6064820152608490fd5b6000546001600160a01b031633036102aa57565b606460405162461bcd60e51b815260206004820152602060248201527f4f776e61626c653a2063616c6c6572206973206e6f7420746865206f776e65726044820152fd","linkReferences":{}},"methodIdentifiers":{"capTableBeacon()":"aa3c962d","capTableImplementation()":"795a24ba","capTableProxies(uint256)":"6200b509","createCapTable(bytes16,uint256)":"6adff8fb","getCapTableCount()":"f0f6d5a0","owner()":"8da5cb5b","renounceOwnership()":"715018a6","transferOwnership(address)":"f2fde38b","updateCapTableImplementation(address)":"973837f9"},"id":55}