{"abi":[{"type":"constructor","inputs":[],"stateMutability":"nonpayable"},{"type":"function","name":"approve","inputs":[{"name":"to","type":"address","internalType":"address"},{"name":"tokenId","type":"uint256","internalType":"uint256"}],"outputs":[],"stateMutability":"nonpayable"},{"type":"function","name":"balanceOf","inputs":[{"name":"owner","type":"address","internalType":"address"}],"outputs":[{"name":"","type":"uint256","internalType":"uint256"}],"stateMutability":"view"},{"type":"function","name":"getApproved","inputs":[{"name":"tokenId","type":"uint256","internalType":"uint256"}],"outputs":[{"name":"","type":"address","internalType":"address"}],"stateMutability":"view"},{"type":"function","name":"isApprovedForAll","inputs":[{"name":"owner","type":"address","internalType":"address"},{"name":"operator","type":"address","internalType":"address"}],"outputs":[{"name":"","type":"bool","internalType":"bool"}],"stateMutability":"view"},{"type":"function","name":"mint","inputs":[],"outputs":[],"stateMutability":"nonpayable"},{"type":"function","name":"name","inputs":[],"outputs":[{"name":"","type":"string","internalType":"string"}],"stateMutability":"view"},{"type":"function","name":"ownerOf","inputs":[{"name":"tokenId","type":"uint256","internalType":"uint256"}],"outputs":[{"name":"","type":"address","internalType":"address"}],"stateMutability":"view"},{"type":"function","name":"safeTransferFrom","inputs":[{"name":"from","type":"address","internalType":"address"},{"name":"to","type":"address","internalType":"address"},{"name":"tokenId","type":"uint256","internalType":"uint256"}],"outputs":[],"stateMutability":"nonpayable"},{"type":"function","name":"safeTransferFrom","inputs":[{"name":"from","type":"address","internalType":"address"},{"name":"to","type":"address","internalType":"address"},{"name":"tokenId","type":"uint256","internalType":"uint256"},{"name":"data","type":"bytes","internalType":"bytes"}],"outputs":[],"stateMutability":"nonpayable"},{"type":"function","name":"setApprovalForAll","inputs":[{"name":"operator","type":"address","internalType":"address"},{"name":"approved","type":"bool","internalType":"bool"}],"outputs":[],"stateMutability":"nonpayable"},{"type":"function","name":"supportsInterface","inputs":[{"name":"interfaceId","type":"bytes4","internalType":"bytes4"}],"outputs":[{"name":"","type":"bool","internalType":"bool"}],"stateMutability":"view"},{"type":"function","name":"symbol","inputs":[],"outputs":[{"name":"","type":"string","internalType":"string"}],"stateMutability":"view"},{"type":"function","name":"tokenURI","inputs":[{"name":"tokenId","type":"uint256","internalType":"uint256"}],"outputs":[{"name":"","type":"string","internalType":"string"}],"stateMutability":"view"},{"type":"function","name":"transferFrom","inputs":[{"name":"from","type":"address","internalType":"address"},{"name":"to","type":"address","internalType":"address"},{"name":"tokenId","type":"uint256","internalType":"uint256"}],"outputs":[],"stateMutability":"nonpayable"},{"type":"event","name":"Approval","inputs":[{"name":"owner","type":"address","indexed":true,"internalType":"address"},{"name":"approved","type":"address","indexed":true,"internalType":"address"},{"name":"tokenId","type":"uint256","indexed":true,"internalType":"uint256"}],"anonymous":false},{"type":"event","name":"ApprovalForAll","inputs":[{"name":"owner","type":"address","indexed":true,"internalType":"address"},{"name":"operator","type":"address","indexed":true,"internalType":"address"},{"name":"approved","type":"bool","indexed":false,"internalType":"bool"}],"anonymous":false},{"type":"event","name":"Transfer","inputs":[{"name":"from","type":"address","indexed":true,"internalType":"address"},{"name":"to","type":"address","indexed":true,"internalType":"address"},{"name":"tokenId","type":"uint256","indexed":true,"internalType":"uint256"}],"anonymous":false},{"type":"error","name":"AlreadyMinted","inputs":[]},{"type":"error","name":"NotStakeholder","inputs":[]},{"type":"error","name":"URIQueryForNonexistentToken","inputs":[]}],"bytecode":{"object":"0x60806040523480156200001157600080fd5b506040518060400160405280601481526020017f5374616b65686f6c64657220506f736974696f6e0000000000000000000000008152506040518060400160405280600681526020016553544b504f5360d01b815250816000908162000078919062000135565b50600162000087828262000135565b50505062000201565b634e487b7160e01b600052604160045260246000fd5b600181811c90821680620000bb57607f821691505b602082108103620000dc57634e487b7160e01b600052602260045260246000fd5b50919050565b601f8211156200013057600081815260208120601f850160051c810160208610156200010b5750805b601f850160051c820191505b818110156200012c5782815560010162000117565b5050505b505050565b81516001600160401b0381111562000151576200015162000090565b6200016981620001628454620000a6565b84620000e2565b602080601f831160018114620001a15760008415620001885750858301515b600019600386901b1c1916600185901b1785556200012c565b600085815260208120601f198616915b82811015620001d257888601518255948401946001909101908401620001b1565b5085821015620001f15787850151600019600388901b60f8161c191681555b5050505050600190811b01905550565b611eee80620002116000396000f3fe608060405234801561001057600080fd5b50600436106100ea5760003560e01c80636352211e1161008c578063a22cb46511610066578063a22cb465146101d6578063b88d4fde146101e9578063c87b56dd146101fc578063e985e9c51461020f57600080fd5b80636352211e1461019a57806370a08231146101ad57806395d89b41146101ce57600080fd5b8063095ea7b3116100c8578063095ea7b3146101575780631249c58b1461016c57806323b872dd1461017457806342842e0e1461018757600080fd5b806301ffc9a7146100ef57806306fdde0314610117578063081812fc1461012c575b600080fd5b6101026100fd3660046111fc565b610222565b60405190151581526020015b60405180910390f35b61011f610274565b60405161010e9190611270565b61013f61013a366004611283565b610306565b6040516001600160a01b03909116815260200161010e565b61016a6101653660046112b8565b61032d565b005b61016a610447565b61016a6101823660046112e2565b61053b565b61016a6101953660046112e2565b61056c565b61013f6101a8366004611283565b610587565b6101c06101bb36600461131e565b6105e7565b60405190815260200161010e565b61011f61066d565b61016a6101e4366004611339565b61067c565b61016a6101f7366004611408565b61068b565b61011f61020a366004611283565b6106c3565b61010261021d3660046114c8565b6107d5565b60006001600160e01b031982166380ac58cd60e01b148061025357506001600160e01b03198216635b5e139f60e01b145b8061026e57506301ffc9a760e01b6001600160e01b03198316145b92915050565b606060008054610283906114fb565b80601f01602080910402602001604051908101604052809291908181526020018280546102af906114fb565b80156102fc5780601f106102d1576101008083540402835291602001916102fc565b820191906000526020600020905b8154815290600101906020018083116102df57829003601f168201915b5050505050905090565b600061031182610803565b506000908152600460205260409020546001600160a01b031690565b600061033882610587565b9050806001600160a01b0316836001600160a01b0316036103aa5760405162461bcd60e51b815260206004820152602160248201527f4552433732313a20617070726f76616c20746f2063757272656e74206f776e656044820152603960f91b60648201526084015b60405180910390fd5b336001600160a01b03821614806103c657506103c681336107d5565b6104385760405162461bcd60e51b815260206004820152603d60248201527f4552433732313a20617070726f76652063616c6c6572206973206e6f7420746f60448201527f6b656e206f776e6572206f7220617070726f76656420666f7220616c6c00000060648201526084016103a1565b6104428383610865565b505050565b3360009081527f2031468f0c30f7087de4da9398818763b546d7f89935fa65485c24ff1df26c09602090815260408083205460801b6001600160801b0319811684527f2031468f0c30f7087de4da9398818763b546d7f89935fa65485c24ff1df26bf79092528220547f2031468f0c30f7087de4da9398818763b546d7f89935fa65485c24ff1df26bf392036104f057604051637592296b60e01b815260040160405180910390fd5b6001600160801b031981166000818152600260205260409020546001600160a01b03161561053157604051631bbdf5c560e31b815260040160405180910390fd5b61044233826108d3565b6105453382610a5e565b6105615760405162461bcd60e51b81526004016103a190611535565b610442838383610abd565b6104428383836040518060200160405280600081525061068b565b6000818152600260205260408120546001600160a01b03168061026e5760405162461bcd60e51b8152602060048201526018602482015277115490cdcc8c4e881a5b9d985b1a59081d1bdad95b88125160421b60448201526064016103a1565b60006001600160a01b0382166106515760405162461bcd60e51b815260206004820152602960248201527f4552433732313a2061646472657373207a65726f206973206e6f7420612076616044820152683634b21037bbb732b960b91b60648201526084016103a1565b506001600160a01b031660009081526003602052604090205490565b606060018054610283906114fb565b610687338383610c21565b5050565b6106953383610a5e565b6106b15760405162461bcd60e51b81526004016103a190611535565b6106bd84848484610cef565b50505050565b6000818152600260205260409020546060906001600160a01b03166106fb57604051630a14c4b560e41b815260040160405180910390fd5b604051631b5b3e0960e21b8152608083901b6001600160801b031981166004830152906000903090636d6cf82490602401600060405180830381865afa158015610749573d6000803e3d6000fd5b505050506040513d6000823e601f3d908101601f1916820160405261077191908101906117e3565b90506107ad61077f85610d22565b61078883610e23565b6040516020016107999291906118bc565b604051602081830303815290604052610e82565b6040516020016107bd91906119a1565b60405160208183030381529060405292505050919050565b6001600160a01b03918216600090815260056020908152604080832093909416825291909152205460ff1690565b6000818152600260205260409020546001600160a01b03166108625760405162461bcd60e51b8152602060048201526018602482015277115490cdcc8c4e881a5b9d985b1a59081d1bdad95b88125160421b60448201526064016103a1565b50565b600081815260046020526040902080546001600160a01b0319166001600160a01b038416908117909155819061089a82610587565b6001600160a01b03167f8c5be1e5ebec7d5bd14f71427d1e84f3dd0314c0f7b2291e5b200ac8c7c3b92560405160405180910390a45050565b6001600160a01b0382166109295760405162461bcd60e51b815260206004820181905260248201527f4552433732313a206d696e7420746f20746865207a65726f206164647265737360448201526064016103a1565b6000818152600260205260409020546001600160a01b03161561098e5760405162461bcd60e51b815260206004820152601c60248201527f4552433732313a20746f6b656e20616c7265616479206d696e7465640000000060448201526064016103a1565b6000818152600260205260409020546001600160a01b0316156109f35760405162461bcd60e51b815260206004820152601c60248201527f4552433732313a20746f6b656e20616c7265616479206d696e7465640000000060448201526064016103a1565b6001600160a01b038216600081815260036020908152604080832080546001019055848352600290915280822080546001600160a01b0319168417905551839291907fddf252ad1be2c89b69c2b068fc378daa952ba7f163c4a11628f55a4df523b3ef908290a45050565b600080610a6a83610587565b9050806001600160a01b0316846001600160a01b03161480610a915750610a9181856107d5565b80610ab55750836001600160a01b0316610aaa84610306565b6001600160a01b0316145b949350505050565b826001600160a01b0316610ad082610587565b6001600160a01b031614610af65760405162461bcd60e51b81526004016103a1906119e6565b6001600160a01b038216610b585760405162461bcd60e51b8152602060048201526024808201527f4552433732313a207472616e7366657220746f20746865207a65726f206164646044820152637265737360e01b60648201526084016103a1565b826001600160a01b0316610b6b82610587565b6001600160a01b031614610b915760405162461bcd60e51b81526004016103a1906119e6565b600081815260046020908152604080832080546001600160a01b03199081169091556001600160a01b0387811680865260038552838620805460001901905590871680865283862080546001019055868652600290945282852080549092168417909155905184937fddf252ad1be2c89b69c2b068fc378daa952ba7f163c4a11628f55a4df523b3ef91a4505050565b816001600160a01b0316836001600160a01b031603610c825760405162461bcd60e51b815260206004820152601960248201527f4552433732313a20617070726f766520746f2063616c6c65720000000000000060448201526064016103a1565b6001600160a01b03838116600081815260056020908152604080832094871680845294825291829020805460ff191686151590811790915591519182527f17307eab39ab6107e8899845ad3d59bd9653f200f220920489ca2b5937696c31910160405180910390a3505050565b610cfa848484610abd565b610d0684848484610fd5565b6106bd5760405162461bcd60e51b81526004016103a190611a2b565b606081600003610d495750506040805180820190915260018152600360fc1b602082015290565b8160005b8115610d735780610d5d81611a93565b9150610d6c9050600a83611ac2565b9150610d4d565b60008167ffffffffffffffff811115610d8e57610d8e611375565b6040519080825280601f01601f191660200182016040528015610db8576020820181803683370190505b5090505b8415610ab557610dcd600183611ad6565b9150610dda600a86611ae9565b610de5906030611afd565b60f81b818381518110610dfa57610dfa611b10565b60200101906001600160f81b031916908160001a905350610e1c600a86611ac2565b9450610dbc565b6060610e3282600001516110d6565b610e3f836020015161111a565b610e4c846040015161115e565b610e5985606001516111a2565b604051602001610e6c9493929190611b26565b6040516020818303038152906040529050919050565b60608151600003610ea157505060408051602081019091526000815290565b6000604051806060016040528060408152602001611e0d6040913990506000600384516002610ed09190611afd565b610eda9190611ac2565b610ee5906004611bb9565b67ffffffffffffffff811115610efd57610efd611375565b6040519080825280601f01601f191660200182016040528015610f27576020820181803683370190505b509050600182016020820185865187015b80821015610f93576003820191508151603f8160121c168501518453600184019350603f81600c1c168501518453600184019350603f8160061c168501518453600184019350603f8116850151845350600183019250610f38565b5050600386510660018114610faf5760028114610fc257610fca565b603d6001830353603d6002830353610fca565b603d60018303535b509195945050505050565b60006001600160a01b0384163b156110cb57604051630a85bd0160e11b81526001600160a01b0385169063150b7a0290611019903390899088908890600401611bd0565b6020604051808303816000875af1925050508015611054575060408051601f3d908101601f1916820190925261105191810190611c0d565b60015b6110b1573d808015611082576040519150601f19603f3d011682016040523d82523d6000602084013e611087565b606091505b5080516000036110a95760405162461bcd60e51b81526004016103a190611a2b565b805181602001fd5b6001600160e01b031916630a85bd0160e11b149050610ab5565b506001949350505050565b60608151600003611100576040518060600160405280602f8152602001611e4d602f913992915050565b61110a8251610d22565b604051602001610e6c9190611c2a565b6060815160000361114457604051806060016040528060318152602001611ddc6031913992915050565b61114e8251610d22565b604051602001610e6c9190611c90565b6060815160000361118857604051806060016040528060358152602001611eb96035913992915050565b6111928251610d22565b604051602001610e6c9190611cf8565b606081516000036111cc576040518060600160405280603d8152602001611e7c603d913992915050565b6111d68251610d22565b604051602001610e6c9190611d64565b6001600160e01b03198116811461086257600080fd5b60006020828403121561120e57600080fd5b8135611219816111e6565b9392505050565b60005b8381101561123b578181015183820152602001611223565b50506000910152565b6000815180845261125c816020860160208601611220565b601f01601f19169290920160200192915050565b6020815260006112196020830184611244565b60006020828403121561129557600080fd5b5035919050565b80356001600160a01b03811681146112b357600080fd5b919050565b600080604083850312156112cb57600080fd5b6112d48361129c565b946020939093013593505050565b6000806000606084860312156112f757600080fd5b6113008461129c565b925061130e6020850161129c565b9150604084013590509250925092565b60006020828403121561133057600080fd5b6112198261129c565b6000806040838503121561134c57600080fd5b6113558361129c565b91506020830135801515811461136a57600080fd5b809150509250929050565b634e487b7160e01b600052604160045260246000fd5b6040516080810167ffffffffffffffff811182821017156113ae576113ae611375565b60405290565b60405160a0810167ffffffffffffffff811182821017156113ae576113ae611375565b604051601f8201601f1916810167ffffffffffffffff8111828210171561140057611400611375565b604052919050565b6000806000806080858703121561141e57600080fd5b6114278561129c565b9350602061143681870161129c565b935060408601359250606086013567ffffffffffffffff8082111561145a57600080fd5b818801915088601f83011261146e57600080fd5b81358181111561148057611480611375565b611492601f8201601f191685016113d7565b915080825289848285010111156114a857600080fd5b808484018584013760008482840101525080935050505092959194509250565b600080604083850312156114db57600080fd5b6114e48361129c565b91506114f26020840161129c565b90509250929050565b600181811c9082168061150f57607f821691505b60208210810361152f57634e487b7160e01b600052602260045260246000fd5b50919050565b6020808252602d908201527f4552433732313a2063616c6c6572206973206e6f7420746f6b656e206f776e6560408201526c1c881bdc88185c1c1c9bdd9959609a1b606082015260800190565b600067ffffffffffffffff82111561159c5761159c611375565b5060051b60200190565b80516001600160801b0319811681146112b357600080fd5b600082601f8301126115cf57600080fd5b815160206115e46115df83611582565b6113d7565b82815260079290921b8401810191818101908684111561160357600080fd5b8286015b8481101561166457608081890312156116205760008081fd5b61162861138b565b611631826115a6565b815261163e8583016115a6565b818601526040828101519082015260608083015190820152835291830191608001611607565b509695505050505050565b600082601f83011261168057600080fd5b815160206116906115df83611582565b82815260069290921b840181019181810190868411156116af57600080fd5b8286015b8481101561166457604080828a0312156116cd5760008081fd5b805181810181811067ffffffffffffffff821117156116ee576116ee611375565b82526116f9836115a6565b81528286015186820152845250918301916040016116b3565b600082601f83011261172357600080fd5b815160206117336115df83611582565b82815260a0928302850182019282820191908785111561175257600080fd5b8387015b858110156117d65781818a03121561176e5760008081fd5b6117766113b4565b61177f826115a6565b8152858201518682015260408083015164ffffffffff811681146117a35760008081fd5b9082015260606117b48382016115a6565b9082015260806117c58382016115a6565b908201528452928401928101611756565b5090979650505050505050565b6000602082840312156117f557600080fd5b815167ffffffffffffffff8082111561180d57600080fd5b908301906080828603121561182157600080fd5b61182961138b565b82518281111561183857600080fd5b611844878286016115be565b82525060208301518281111561185957600080fd5b6118658782860161166f565b60208301525060408301518281111561187d57600080fd5b6118898782860161166f565b6040830152506060830151828111156118a157600080fd5b6118ad87828601611712565b60608301525095945050505050565b7f7b226e616d65223a225374616b65686f6c64657220506f736974696f6e2023008152600083516118f481601f850160208801611220565b7f222c226465736372697074696f6e223a2254686973204e465420726570726573601f918401918201527f656e747320616c6c2061637469766520706f736974696f6e7320666f72207468603f820152701a5cc81cdd185ad95a1bdb19195c8b888b607a1b605f8201526c1130ba3a3934b13aba32b9911d60991b6070820152835161198781607d840160208801611220565b607d60f81b607d9290910191820152607e01949350505050565b7f646174613a6170706c69636174696f6e2f6a736f6e3b6261736536342c0000008152600082516119d981601d850160208701611220565b91909101601d0192915050565b60208082526025908201527f4552433732313a207472616e736665722066726f6d20696e636f72726563742060408201526437bbb732b960d91b606082015260800190565b60208082526032908201527f4552433732313a207472616e7366657220746f206e6f6e20455243373231526560408201527131b2b4bb32b91034b6b83632b6b2b73a32b960711b606082015260800190565b634e487b7160e01b600052601160045260246000fd5b600060018201611aa557611aa5611a7d565b5060010190565b634e487b7160e01b600052601260045260246000fd5b600082611ad157611ad1611aac565b500490565b8181038181111561026e5761026e611a7d565b600082611af857611af8611aac565b500690565b8082018082111561026e5761026e611a7d565b634e487b7160e01b600052603260045260246000fd5b605b60f81b815260008551611b42816001850160208a01611220565b8083019050600b60fa1b8060018301528651611b65816002850160208b01611220565b600292019182018190528551611b82816003850160208a01611220565b60039201918201528351611b9d816004840160208801611220565b605d60f81b600492909101918201526005019695505050505050565b808202811582820484141761026e5761026e611a7d565b6001600160a01b0385811682528416602082015260408101839052608060608201819052600090611c0390830184611244565b9695505050505050565b600060208284031215611c1f57600080fd5b8151611219816111e6565b7f7b2274726169745f74797065223a202253746f636b20506f736974696f6e732281526b1610113b30b63ab2911d101160a11b602082015260008251611c7781602c850160208701611220565b61227d60f01b602c939091019283015250602e01919050565b7f7b2274726169745f74797065223a202257617272616e7420506f736974696f6e81526d39911610113b30b63ab2911d101160911b602082015260008251611cdf81602e850160208701611220565b61227d60f01b602e939091019283015250603001919050565b7f7b2274726169745f74797065223a2022436f6e7665727469626c6520506f73698152713a34b7b739911610113b30b63ab2911d101160711b602082015260008251611d4b816032850160208701611220565b61227d60f01b6032939091019283015250603401919050565b7f7b2274726169745f74797065223a202245717569747920436f6d70656e73617481527f696f6e20506f736974696f6e73222c202276616c7565223a2022000000000000602082015260008251611dc281603a850160208701611220565b61227d60f01b603a939091019283015250603c0191905056fe7b2274726169745f74797065223a202257617272616e7420506f736974696f6e73222c202276616c7565223a202230227d4142434445464748494a4b4c4d4e4f505152535455565758595a6162636465666768696a6b6c6d6e6f707172737475767778797a303132333435363738392b2f7b2274726169745f74797065223a202253746f636b20506f736974696f6e73222c202276616c7565223a202230227d7b2274726169745f74797065223a202245717569747920436f6d70656e736174696f6e20506f736974696f6e73222c202276616c7565223a202230227d7b2274726169745f74797065223a2022436f6e7665727469626c6520506f736974696f6e73222c202276616c7565223a202230227d","linkReferences":{}},"methodIdentifiers":{"approve(address,uint256)":"095ea7b3","balanceOf(address)":"70a08231","getApproved(uint256)":"081812fc","isApprovedForAll(address,address)":"e985e9c5","mint()":"1249c58b","name()":"06fdde03","ownerOf(uint256)":"6352211e","safeTransferFrom(address,address,uint256)":"42842e0e","safeTransferFrom(address,address,uint256,bytes)":"b88d4fde","setApprovalForAll(address,bool)":"a22cb465","supportsInterface(bytes4)":"01ffc9a7","symbol()":"95d89b41","tokenURI(uint256)":"c87b56dd","transferFrom(address,address,uint256)":"23b872dd"},"id":40}