{"abi":[{"type":"constructor","inputs":[],"stateMutability":"nonpayable"},{"type":"function","name":"approve","inputs":[{"name":"to","type":"address","internalType":"address"},{"name":"tokenId","type":"uint256","internalType":"uint256"}],"outputs":[],"stateMutability":"nonpayable"},{"type":"function","name":"balanceOf","inputs":[{"name":"owner","type":"address","internalType":"address"}],"outputs":[{"name":"","type":"uint256","internalType":"uint256"}],"stateMutability":"view"},{"type":"function","name":"getApproved","inputs":[{"name":"tokenId","type":"uint256","internalType":"uint256"}],"outputs":[{"name":"","type":"address","internalType":"address"}],"stateMutability":"view"},{"type":"function","name":"isApprovedForAll","inputs":[{"name":"owner","type":"address","internalType":"address"},{"name":"operator","type":"address","internalType":"address"}],"outputs":[{"name":"","type":"bool","internalType":"bool"}],"stateMutability":"view"},{"type":"function","name":"mint","inputs":[],"outputs":[],"stateMutability":"nonpayable"},{"type":"function","name":"name","inputs":[],"outputs":[{"name":"","type":"string","internalType":"string"}],"stateMutability":"view"},{"type":"function","name":"ownerOf","inputs":[{"name":"tokenId","type":"uint256","internalType":"uint256"}],"outputs":[{"name":"","type":"address","internalType":"address"}],"stateMutability":"view"},{"type":"function","name":"safeTransferFrom","inputs":[{"name":"from","type":"address","internalType":"address"},{"name":"to","type":"address","internalType":"address"},{"name":"tokenId","type":"uint256","internalType":"uint256"}],"outputs":[],"stateMutability":"nonpayable"},{"type":"function","name":"safeTransferFrom","inputs":[{"name":"from","type":"address","internalType":"address"},{"name":"to","type":"address","internalType":"address"},{"name":"tokenId","type":"uint256","internalType":"uint256"},{"name":"data","type":"bytes","internalType":"bytes"}],"outputs":[],"stateMutability":"nonpayable"},{"type":"function","name":"setApprovalForAll","inputs":[{"name":"operator","type":"address","internalType":"address"},{"name":"approved","type":"bool","internalType":"bool"}],"outputs":[],"stateMutability":"nonpayable"},{"type":"function","name":"supportsInterface","inputs":[{"name":"interfaceId","type":"bytes4","internalType":"bytes4"}],"outputs":[{"name":"","type":"bool","internalType":"bool"}],"stateMutability":"view"},{"type":"function","name":"symbol","inputs":[],"outputs":[{"name":"","type":"string","internalType":"string"}],"stateMutability":"view"},{"type":"function","name":"tokenURI","inputs":[{"name":"tokenId","type":"uint256","internalType":"uint256"}],"outputs":[{"name":"","type":"string","internalType":"string"}],"stateMutability":"view"},{"type":"function","name":"transferFrom","inputs":[{"name":"from","type":"address","internalType":"address"},{"name":"to","type":"address","internalType":"address"},{"name":"tokenId","type":"uint256","internalType":"uint256"}],"outputs":[],"stateMutability":"nonpayable"},{"type":"event","name":"Approval","inputs":[{"name":"owner","type":"address","indexed":true,"internalType":"address"},{"name":"approved","type":"address","indexed":true,"internalType":"address"},{"name":"tokenId","type":"uint256","indexed":true,"internalType":"uint256"}],"anonymous":false},{"type":"event","name":"ApprovalForAll","inputs":[{"name":"owner","type":"address","indexed":true,"internalType":"address"},{"name":"operator","type":"address","indexed":true,"internalType":"address"},{"name":"approved","type":"bool","indexed":false,"internalType":"bool"}],"anonymous":false},{"type":"event","name":"Transfer","inputs":[{"name":"from","type":"address","indexed":true,"internalType":"address"},{"name":"to","type":"address","indexed":true,"internalType":"address"},{"name":"tokenId","type":"uint256","indexed":true,"internalType":"uint256"}],"anonymous":false},{"type":"error","name":"AccessControlUnauthorized","inputs":[{"name":"account","type":"address","internalType":"address"},{"name":"role","type":"bytes32","internalType":"bytes32"}]},{"type":"error","name":"AccessControlUnauthorizedOrInvestor","inputs":[{"name":"account","type":"address","internalType":"address"}]},{"type":"error","name":"AlreadyMinted","inputs":[]},{"type":"error","name":"NotStakeholder","inputs":[]},{"type":"error","name":"URIQueryForNonexistentToken","inputs":[]}],"bytecode":{"object":"0x60803462000323576001600160401b0390604090808201838111828210176200030d578252601481526020927f5374616b65686f6c64657220506f736974696f6e000000000000000000000000848301528251838101818110838211176200030d578452600681526553544b504f5360d01b858201528251908282116200030d5760008054926001958685811c9516801562000302575b89861014620002ee578190601f958681116200029b575b508990868311600114620002375784926200022b575b5050600019600383901b1c191690861b1781555b8151938411620002175784548581811c911680156200020c575b88821014620001f857838111620001b0575b50869284116001146200014a578394959650926200013e575b5050600019600383901b1c191690821b1790555b51611ca39081620003298239f35b0151905038806200011c565b9190601f1984169685845280842093905b8882106200019857505083859697106200017e575b505050811b01905562000130565b015160001960f88460031b161c1916905538808062000170565b8087859682949686015181550195019301906200015b565b8582528782208480870160051c8201928a8810620001ee575b0160051c019086905b828110620001e257505062000103565b838155018690620001d2565b92508192620001c9565b634e487b7160e01b82526022600452602482fd5b90607f1690620000f1565b634e487b7160e01b81526041600452602490fd5b015190503880620000c3565b8480528a85208994509190601f198416865b8d8282106200028457505084116200026a575b505050811b018155620000d7565b015160001960f88460031b161c191690553880806200025c565b8385015186558c9790950194938401930162000249565b9091508380528984208680850160051c8201928c8610620002e4575b918a91869594930160051c01915b828110620002d5575050620000ad565b8681558594508a9101620002c5565b92508192620002b7565b634e487b7160e01b83526022600452602483fd5b94607f169462000096565b634e487b7160e01b600052604160045260246000fd5b600080fdfe608080604052600436101561001357600080fd5b60003560e01c90816301ffc9a714610f485750806306fdde0314610e89578063081812fc14610e6b578063095ea7b314610cf15780631249c58b14610aba57806323b872dd14610a9157806342842e0e14610a695780636352211e14610a3957806370a08231146109a257806395d89b4114610897578063a22cb465146107c5578063b88d4fde1461073b578063c87b56dd146101145763e985e9c5146100b957600080fd5b3461010f57604036600319011261010f576100d2610ffb565b6100da611011565b9060018060a01b03809116600052600560205260406000209116600052602052602060ff604060002054166040519015158152f35b600080fd5b3461010f57602036600319011261010f576004356000908152600260205260409020546001600160a01b031615610729573360009081527f20a65b27cef39f8cbee4f7fb947dec892749a5832be62c5137636d27b859f46d602052604090205460ff16157f2031468f0c30f7087de4da9398818763b546d7f89935fa65485c24ff1df26bf381610704575b506106d2575b604051631b5b3e0960e21b81526004803560801b6001600160801b03191690820152600081602481305afa9081156106c657600091610422575b61041e6103b76103996103b2609e866101f9600435611bb4565b906102048151611829565b906102ca60256102176020840151611900565b92610232606061022a60408401516119db565b920151611abe565b6040519485926020840197605b60f81b8952610258815180926020602189019101610fb3565b840191600b60fa1b9283602182015261027b825180936020602285019101610fb3565b01826022820152610296825180936020602385019101610fb3565b019060238201526102b1825180936020602485019101610fb3565b01605d60f81b60248201520360058101845201826110ad565b6040519586937f7b226e616d65223a225374616b65686f6c64657220506f736974696f6e202300602086015261030a815180926020603f89019101610fb3565b7f222c226465736372697074696f6e223a2254686973204e465420726570726573603f918601918201527f656e747320616c6c2061637469766520706f736974696f6e7320666f72207468605f820152701a5cc81cdd185ad95a1bdb19195c8b888b607a1b607f8201526c1130ba3a3934b13aba32b9911d60991b60908201529151928390609d840190610fb3565b01607d60f81b609d82015203607e8101845201826110ad565b6116ac565b61040a603d60405180937f646174613a6170706c69636174696f6e2f6a736f6e3b6261736536342c00000060208301526103fa8151809260208686019101610fb3565b810103601d8101845201826110ad565b604051918291602083526020830190610fd6565b0390f35b3d9150816000823e61043482826110ad565b602081838101031261010f5780516001600160401b03811161010f57810191608083828401031261010f576040519261046c8461105c565b80516001600160401b03811161010f578101828401601f8201121561010f578051610496816115e1565b916104a460405193846110ad565b81835260208084019260071b82010190858701821161010f57602001915b81831061067057505050845260208101516001600160401b03811161010f578101828401601f8201121561010f57610503908385019060208151910161160d565b602085015260408101516001600160401b03811161010f578101828401601f8201121561010f5761053d908385019060208151910161160d565b60408501526060810151906001600160401b03821161010f570190808301601f8301121561010f57815190610571826115e1565b9361057f60405195866110ad565b8285526020850193828201602060a086028301011161010f579360208501945b602060a0860282010186106105c45750505050506060830191909152506103b76101df565b60a086858501031261010f57604051918260a08101106001600160401b0360a08501111761065a5760a083016040526105fc876115f8565b83526020870151602084015260408701519264ffffffffff8416840361010f57602060a09282829660408695015261063660608c016115f8565b606082015261064760808c016115f8565b608082015281520197019692505061059f565b634e487b7160e01b600052604160045260246000fd5b608083878901031261010f57602060809160405161068d8161105c565b610696866115f8565b81526106a38387016115f8565b8382015260408601516040820152606080870151908201528152019201916104c2565b6040513d6000823e3d90fd5b336001600160a01b036106e6600435611135565b16146101a55760405163ad41016d60e01b8152336004820152602490fd5b90506000805260205260406000203360005260205260ff60406000205416158161019f565b604051630a14c4b560e41b8152600490fd5b3461010f57608036600319011261010f57610754610ffb565b61075c611011565b606435916001600160401b03831161010f573660238401121561010f57826004013591610788836110ce565b9261079660405194856110ad565b808452366024828701011161010f5760208160009260246107c398018388013785010152604435916111fb565b005b3461010f57604036600319011261010f576107de610ffb565b6024359081151580920361010f576001600160a01b03169033821461085257336000526005602052604060002082600052602052604060002060ff1981541660ff83161790556040519081527f17307eab39ab6107e8899845ad3d59bd9653f200f220920489ca2b5937696c3160203392a3005b60405162461bcd60e51b815260206004820152601960248201527f4552433732313a20617070726f766520746f2063616c6c6572000000000000006044820152606490fd5b3461010f57600036600319011261010f57604051600060019081549182811c91818416918215610998575b6020948585108414610982578587948686529182600014610962575050600114610908575b506108f4925003836110ad565b61041e604051928284938452830190610fd6565b6000818152859250907fb10e2d527612073b26eecdfd717e6a320cf44b4afac2b0732d9fcbe2b7fa0cf65b85831061094a5750506108f49350820101856108e7565b80548389018501528794508693909201918101610933565b60ff1916858201526108f495151560051b85010192508791506108e79050565b634e487b7160e01b600052602260045260246000fd5b92607f16926108c2565b3461010f57602036600319011261010f576001600160a01b036109c3610ffb565b1680156109e25760005260036020526020604060002054604051908152f35b60405162461bcd60e51b815260206004820152602960248201527f4552433732313a2061646472657373207a65726f206973206e6f7420612076616044820152683634b21037bbb732b960b91b6064820152608490fd5b3461010f57602036600319011261010f576020610a57600435611135565b6040516001600160a01b039091168152f35b3461010f576107c3610a7a36611027565b9060405192610a8884611077565b600084526111fb565b3461010f576107c3610aa236611027565b91610ab5610ab08433611296565b611199565b61135e565b3461010f57600036600319011261010f573360009081527f46ddf1a90037197a25a2701fd5799aab0404e92a4c3ece6b11e607601ebd16a660209081526040909120547fb165298935924f540e4181c03493a5d686c54a0aaeb3f6216de85b7ffbba77389060ff1615610cd35750336000527f2031468f0c30f7087de4da9398818763b546d7f89935fa65485c24ff1df26c0a81526fffffffffffffffffffffffffffffffff1960406000205460801b1690816000527f2031468f0c30f7087de4da9398818763b546d7f89935fa65485c24ff1df26bf9815260406000205415610cc1576000828152600260205260409020546001600160a01b0316610caf573315610c6c57600290610beb610be584600052600260205260018060a01b0360406000205416151590565b15611595565b600083815260026020526040902054610c0e906001600160a01b03161515610be5565b336000526003815260406000206001815401905582600052526040600020336bffffffffffffffffffffffff60a01b8254161790553360007fddf252ad1be2c89b69c2b068fc378daa952ba7f163c4a11628f55a4df523b3ef8180a4005b6064906040519062461bcd60e51b825280600483015260248201527f4552433732313a206d696e7420746f20746865207a65726f20616464726573736044820152fd5b604051631bbdf5c560e31b8152600490fd5b604051637592296b60e01b8152600490fd5b60449060405190633cea3dfb60e11b82523360048301526024820152fd5b3461010f57604036600319011261010f57610d0a610ffb565b602435906001600160a01b038080610d2185611135565b16921691808314610e1c57803314908115610df7575b5015610d8c57600083815260046020526040902080546001600160a01b03191683179055610d6483611135565b167f8c5be1e5ebec7d5bd14f71427d1e84f3dd0314c0f7b2291e5b200ac8c7c3b925600080a4005b60405162461bcd60e51b815260206004820152603d60248201527f4552433732313a20617070726f76652063616c6c6572206973206e6f7420746f60448201527f6b656e206f776e6572206f7220617070726f76656420666f7220616c6c0000006064820152608490fd5b9050600052600560205260406000203360005260205260ff6040600020541684610d37565b60405162461bcd60e51b815260206004820152602160248201527f4552433732313a20617070726f76616c20746f2063757272656e74206f776e656044820152603960f91b6064820152608490fd5b3461010f57602036600319011261010f576020610a5760043561115b565b3461010f57600036600319011261010f576040516000805490600182811c91818416918215610f3e575b6020948585108414610982578587948686529182600014610962575050600114610ee457506108f4925003836110ad565b6000808052859250907f290decd9548b62a8d60345a988386fc84ba6bc95484008f6362f93160ef3e5635b858310610f265750506108f49350820101856108e7565b80548389018501528794508693909201918101610f0f565b92607f1692610eb3565b3461010f57602036600319011261010f576004359063ffffffff60e01b821680920361010f576020916380ac58cd60e01b8114908115610fa2575b8115610f91575b5015158152f35b6301ffc9a760e01b14905083610f8a565b635b5e139f60e01b81149150610f83565b60005b838110610fc65750506000910152565b8181015183820152602001610fb6565b90602091610fef81518092818552858086019101610fb3565b601f01601f1916010190565b600435906001600160a01b038216820361010f57565b602435906001600160a01b038216820361010f57565b606090600319011261010f576001600160a01b0390600435828116810361010f5791602435908116810361010f579060443590565b608081019081106001600160401b0382111761065a57604052565b602081019081106001600160401b0382111761065a57604052565b606081019081106001600160401b0382111761065a57604052565b90601f801991011681019081106001600160401b0382111761065a57604052565b6001600160401b03811161065a57601f01601f191660200190565b156110f057565b60405162461bcd60e51b815260206004820152601860248201527f4552433732313a20696e76616c696420746f6b656e20494400000000000000006044820152606490fd5b6000908152600260205260409020546001600160a01b03166111588115156110e9565b90565b60008181526002602052604090205461117e906001600160a01b031615156110e9565b6000908152600460205260409020546001600160a01b031690565b156111a057565b60405162461bcd60e51b815260206004820152602d60248201527f4552433732313a2063616c6c6572206973206e6f7420746f6b656e206f776e6560448201526c1c881bdc88185c1c1c9bdd9959609a1b6064820152608490fd5b9061121f93929161120f610ab08433611296565b61121a83838361135e565b611474565b1561122657565b60405162461bcd60e51b81528061123f60048201611243565b0390fd5b60809060208152603260208201527f4552433732313a207472616e7366657220746f206e6f6e20455243373231526560408201527131b2b4bb32b91034b6b83632b6b2b73a32b960711b60608201520190565b906001600160a01b0380806112aa84611135565b169316918383149384156112dd575b5083156112c7575b50505090565b6112d39192935061115b565b16143880806112c1565b909350600052600560205260406000208260005260205260ff6040600020541692386112b9565b1561130b57565b60405162461bcd60e51b815260206004820152602560248201527f4552433732313a207472616e736665722066726f6d20696e636f72726563742060448201526437bbb732b960d91b6064820152608490fd5b906113869161136c84611135565b6001600160a01b0393918416928492909183168414611304565b1691821561142357816113a39161139c86611135565b1614611304565b7fddf252ad1be2c89b69c2b068fc378daa952ba7f163c4a11628f55a4df523b3ef60008481526004602052604081206bffffffffffffffffffffffff60a01b9081815416905583825260036020526040822060001981540190558482526040822060018154019055858252600260205284604083209182541617905580a4565b60405162461bcd60e51b8152602060048201526024808201527f4552433732313a207472616e7366657220746f20746865207a65726f206164646044820152637265737360e01b6064820152608490fd5b92939190803b1561158b576114c6946040518092630a85bd0160e11b9485835233600484015260018060a01b03809816602484015260448301526080606483015281806020998a956084830190610fd6565b03916000988991165af1849181611547575b50611536575050503d60001461152e573d6114f2816110ce565b9061150060405192836110ad565b81528091833d92013e5b8051918261152b5760405162461bcd60e51b81528061123f60048201611243565b01fd5b50606061150a565b6001600160e01b0319161492509050565b9091508581813d8311611584575b61155f81836110ad565b8101031261158057516001600160e01b0319811681036115805790386114d8565b8480fd5b503d611555565b5050915050600190565b1561159c57565b60405162461bcd60e51b815260206004820152601c60248201527f4552433732313a20746f6b656e20616c7265616479206d696e746564000000006044820152606490fd5b6001600160401b03811161065a5760051b60200190565b51906001600160801b03198216820361010f57565b929192611619826115e1565b604092611628845192836110ad565b819581835260208093019160061b84019381851161010f57915b84831061165157505050505050565b858383031261010f57855190868201908282106001600160401b0383111761169757879286928452611682866115f8565b81528286015183820152815201920191611642565b60246000634e487b7160e01b81526041600452fd5b805115611815576040516116bf81611092565b604081527f4142434445464748494a4b4c4d4e4f505152535455565758595a61626364656660208201527f6768696a6b6c6d6e6f707172737475767778797a303132333435363738392b2f604082015281516002928382018092116117ff5760039182900480851b94906001600160fe1b038116036117ff579261175b611745866110ce565b9561175360405197886110ad565b8087526110ce565b6020860190601f190136823793829183518401925b8381106117ae575050505051068060011461179b57600214611790575090565b603d90600019015390565b50603d9081600019820153600119015390565b85600491979293949701918251600190603f9082828260121c16880101518453828282600c1c16880101518385015382828260061c1688010151888501531685010151878201530195929190611770565b634e487b7160e01b600052601160045260246000fd5b5060405161182281611077565b6000815290565b8051156118ae5761183a9051611bb4565b611158604e60405180937f7b2274726169745f74797065223a202253746f636b20506f736974696f6e732260208301526b1610113b30b63ab2911d101160a11b6040830152611893815180926020604c86019101610fb3565b810161227d60f01b604c82015203602e8101845201826110ad565b506040516118bb81611092565b602f81527f7b2274726169745f74797065223a202253746f636b20506f736974696f6e732260208201526e2c202276616c7565223a202230227d60881b604082015290565b805115611987576119119051611bb4565b611158605060405180937f7b2274726169745f74797065223a202257617272616e7420506f736974696f6e60208301526d39911610113b30b63ab2911d101160911b604083015261196c815180926020604e86019101610fb3565b810161227d60f01b604e8201520360308101845201826110ad565b5060405161199481611092565b603181527f7b2274726169745f74797065223a202257617272616e7420506f736974696f6e60208201527073222c202276616c7565223a202230227d60781b604082015290565b805115611a66576119ec9051611bb4565b611158605460405180937f7b2274726169745f74797065223a2022436f6e7665727469626c6520506f73696020830152713a34b7b739911610113b30b63ab2911d101160711b6040830152611a4b815180926020605286019101610fb3565b810161227d60f01b60528201520360348101845201826110ad565b50604051611a7381611092565b603581527f7b2274726169745f74797065223a2022436f6e7665727469626c6520506f736960208201527474696f6e73222c202276616c7565223a202230227d60581b604082015290565b805115611b5457611acf9051611bb4565b611158605c60405180937f7b2274726169745f74797065223a202245717569747920436f6d70656e73617460208301527f696f6e20506f736974696f6e73222c202276616c7565223a20220000000000006040830152611b39815180926020605a86019101610fb3565b810161227d60f01b605a82015203603c8101845201826110ad565b50604051611b6181611092565b603d81527f7b2274726169745f74797065223a202245717569747920436f6d70656e73617460208201527f696f6e20506f736974696f6e73222c202276616c7565223a202230227d000000604082015290565b8015611c7557600081805b611c5d5750611bcd816110ce565b90611bdb60405192836110ad565b808252601f19611bea826110ce565b013660208401375b80928015611c565760001982019182116117ff578193600a9260309084840682018092116117ff5785511115611c405760f81b6001600160f81b03191660001a908401601f01530491611bf2565b634e487b7160e01b600052603260045260246000fd5b5050905090565b9060001981146117ff576001600a9101910480611bbf565b50604051604081018181106001600160401b0382111761065a5760405260018152600360fc1b60208201529056","linkReferences":{}},"methodIdentifiers":{"approve(address,uint256)":"095ea7b3","balanceOf(address)":"70a08231","getApproved(uint256)":"081812fc","isApprovedForAll(address,address)":"e985e9c5","mint()":"1249c58b","name()":"06fdde03","ownerOf(uint256)":"6352211e","safeTransferFrom(address,address,uint256)":"42842e0e","safeTransferFrom(address,address,uint256,bytes)":"b88d4fde","setApprovalForAll(address,bool)":"a22cb465","supportsInterface(bytes4)":"01ffc9a7","symbol()":"95d89b41","tokenURI(uint256)":"c87b56dd","transferFrom(address,address,uint256)":"23b872dd"},"id":51}