{"abi":[{"type":"function","name":"getConvertiblePosition","inputs":[{"name":"securityId","type":"bytes16","internalType":"bytes16"}],"outputs":[{"name":"","type":"tuple","internalType":"struct ConvertibleActivePosition","components":[{"name":"stakeholder_id","type":"bytes16","internalType":"bytes16"},{"name":"investment_amount","type":"uint256","internalType":"uint256"}]}],"stateMutability":"view"},{"type":"function","name":"issueConvertible","inputs":[{"name":"stakeholder_id","type":"bytes16","internalType":"bytes16"},{"name":"investment_amount","type":"uint256","internalType":"uint256"},{"name":"security_id","type":"bytes16","internalType":"bytes16"}],"outputs":[],"stateMutability":"nonpayable"},{"type":"event","name":"TxCreated","inputs":[{"name":"txType","type":"uint8","indexed":false,"internalType":"enum TxType"},{"name":"txData","type":"bytes","indexed":false,"internalType":"bytes"}],"anonymous":false},{"type":"error","name":"InvalidAmount","inputs":[]},{"type":"error","name":"NoStakeholder","inputs":[{"name":"stakeholder_id","type":"bytes16","internalType":"bytes16"}]}],"bytecode":{"object":"0x6080806040523461001657610398908161001c8239f35b600080fdfe60806040908082526004908136101561001757600080fd5b60009160e0918335831c928363ddd8ed5e146100d25750505063e9f4a2281461003f57600080fd5b346100cf5760203660031901126100cf578161005961034a565b91806020835161006881610366565b82815201526001600160801b031980931681527f2031468f0c30f7087de4da9398818763b546d7f89935fa65485c24ff1df26c006020522090602060018451926100b184610366565b845460801b1693848452015491019081528251918252516020820152f35b80fd5b8592935034610346576060366003190112610346576100ef61034a565b60443593906001600160801b031980861691602435918388036103425780821697888b526020977f2031468f0c30f7087de4da9398818763b546d7f89935fa65485c24ff1df26bf78952868c20541561032d5750831561031d57855161015481610366565b89815260018c888b8401918883528981527f2031468f0c30f7087de4da9398818763b546d7f89935fa65485c24ff1df26c008d5220925160801c8584541617835551910155888b527f2031468f0c30f7087de4da9398818763b546d7f89935fa65485c24ff1df26bff8852858b20908154916801000000000000000083101561030a57600183018082558310156102f7578c52888c208260011c01916001600160801b03608084549260071b169260801c831b921b1916179055838a527f2031468f0c30f7087de4da9398818763b546d7f89935fa65485c24ff1df26c018752848a209160801c908254161790558251958587015282860152606085015260608452608084019484861067ffffffffffffffff8711176102e45750908185879352600a865260a08501528351928360c0860152825b8481106102cf578486018301849052837f88aa35e399ceb8d6b2e810abb3df607c140128e7c089c428f212598bda6a7eb7601f8701601f1916880188900360600189a180f35b85810180830151908401528793508101610289565b634e487b7160e01b875260419052602486fd5b634e487b7160e01b8d5260328c5260248dfd5b634e487b7160e01b8d5260418c5260248dfd5b855163162908e360e11b81528a90fd5b63b4586dfb60e01b81528a81018a9052602490fd5b8980fd5b8480fd5b600435906001600160801b03198216820361036157565b600080fd5b6040810190811067ffffffffffffffff82111761038257604052565b634e487b7160e01b600052604160045260246000fd","linkReferences":{}},"methodIdentifiers":{"getConvertiblePosition(bytes16)":"e9f4a228","issueConvertible(bytes16,uint256,bytes16)":"ddd8ed5e"},"id":43}