{"abi":[{"type":"function","name":"getConvertiblePosition","inputs":[{"name":"securityId","type":"bytes16","internalType":"bytes16"}],"outputs":[{"name":"","type":"tuple","internalType":"struct ConvertibleActivePosition","components":[{"name":"stakeholder_id","type":"bytes16","internalType":"bytes16"},{"name":"investment_amount","type":"uint256","internalType":"uint256"}]}],"stateMutability":"view"},{"type":"function","name":"issueConvertible","inputs":[{"name":"stakeholder_id","type":"bytes16","internalType":"bytes16"},{"name":"investment_amount","type":"uint256","internalType":"uint256"},{"name":"security_id","type":"bytes16","internalType":"bytes16"}],"outputs":[],"stateMutability":"nonpayable"},{"type":"event","name":"TxCreated","inputs":[{"name":"txType","type":"uint8","indexed":false,"internalType":"enum TxType"},{"name":"txData","type":"bytes","indexed":false,"internalType":"bytes"}],"anonymous":false},{"type":"error","name":"AccessControlUnauthorized","inputs":[{"name":"account","type":"address","internalType":"address"},{"name":"role","type":"bytes32","internalType":"bytes32"}]},{"type":"error","name":"AccessControlUnauthorizedOrInvestor","inputs":[{"name":"account","type":"address","internalType":"address"}]},{"type":"error","name":"InvalidAmount","inputs":[]},{"type":"error","name":"NoStakeholder","inputs":[{"name":"stakeholder_id","type":"bytes16","internalType":"bytes16"}]}],"bytecode":{"object":"0x60808060405234610016576104dd908161001c8239f35b600080fdfe60406080815260048036101561001457600080fd5b60009060e0908235821c918263ddd8ed5e1461007c57505063e9f4a2281461003b57600080fd5b34610079576020366003190112610079575061005d61005861033d565b61038b565b60208251916001600160801b0319815116835201516020820152f35b80fd5b84919250346103395760603660031901126103395761009961033d565b6001600160801b031992604435929160249085851690823590828703610335576100c2336104a0565b156102fa5787811697888b526020977f2031468f0c30f7087de4da9398818763b546d7f89935fa65485c24ff1df26bfb8952868c2054156102e45783156102d457865160018a898f8e61011486610359565b85527f2031468f0c30f7087de4da9398818763b546d7f89935fa65485c24ff1df26c04838601938a85528b83525220925160801c8584541617835551910155898c527f2031468f0c30f7087de4da9398818763b546d7f89935fa65485c24ff1df26c038952868c2090815491680100000000000000008310156102c257600183018082558310156102b0578d52898d208260011c01916001600160801b03608084549260071b169260801c831b921b1916179055838b527f2031468f0c30f7087de4da9398818763b546d7f89935fa65485c24ff1df26c058852858b209160801c908254161790558351968688015283870152606086015260608552608085019585871067ffffffffffffffff88111761029f575050908185879352600a865260a08501528351928360c0860152825b84811061028a578486018301849052837f88aa35e399ceb8d6b2e810abb3df607c140128e7c089c428f212598bda6a7eb7601f8701601f1916880188900360600189a180f35b85810180830151908401528793508101610244565b634e487b7160e01b88526041905286fd5b634e487b7160e01b8e5260328d52878efd5b634e487b7160e01b8e5260418d52878efd5b865163162908e360e11b81528b90fd5b865163b4586dfb60e01b8152808c018b90528690fd5b8451633cea3dfb60e11b815233818b01527f97667070c54ef182b0f5858b034beac1b6f3089aa2d3188bb1e8929f4fa9b92981860152604490fd5b8980fd5b8380fd5b600435906001600160801b03198216820361035457565b600080fd5b6040810190811067ffffffffffffffff82111761037557604052565b634e487b7160e01b600052604160045260246000fd5b604080519161039983610359565b600092838152836020809201526001600160801b031980921684527f2031468f0c30f7087de4da9398818763b546d7f89935fa65485c24ff1df26c0481528284209360018451956103e987610359565b84815460801b168752015482860152610401336104a0565b8015610465575b61045e577f2031468f0c30f7087de4da9398818763b546d7f89935fa65485c24ff1df26c0c849233835252205460801b9080845116911603610448575090565b5163ad41016d60e01b8152336004820152602490fd5b5050505090565b508080527f2031468f0c30f7087de4da9398818763b546d7f89935fa65485c24ff1df26bf38252838120338252825260ff8482205416610408565b6001600160a01b031660009081527f20a65b27cef39f8cbee4f7fb947dec892749a5832be62c5137636d27b859f46d602052604090205460ff169056","linkReferences":{}},"methodIdentifiers":{"getConvertiblePosition(bytes16)":"e9f4a228","issueConvertible(bytes16,uint256,bytes16)":"ddd8ed5e"},"id":47}