{"abi":[{"type":"function","name":"getConvertiblePosition","inputs":[{"name":"securityId","type":"bytes16","internalType":"bytes16"}],"outputs":[{"name":"","type":"tuple","internalType":"struct ConvertibleActivePosition","components":[{"name":"stakeholder_id","type":"bytes16","internalType":"bytes16"},{"name":"investment_amount","type":"uint256","internalType":"uint256"}]}],"stateMutability":"view"},{"type":"function","name":"issueConvertible","inputs":[{"name":"stakeholder_id","type":"bytes16","internalType":"bytes16"},{"name":"investment_amount","type":"uint256","internalType":"uint256"},{"name":"security_id","type":"bytes16","internalType":"bytes16"},{"name":"convertible_type","type":"string","internalType":"string"},{"name":"seniority","type":"uint256","internalType":"uint256"},{"name":"custom_id","type":"string","internalType":"string"},{"name":"security_law_exemptions_mapping","type":"string","internalType":"string"},{"name":"conversion_triggers_mapping","type":"string","internalType":"string"}],"outputs":[],"stateMutability":"nonpayable"},{"type":"event","name":"TxCreated","inputs":[{"name":"txType","type":"uint8","indexed":false,"internalType":"enum TxType"},{"name":"txData","type":"bytes","indexed":false,"internalType":"bytes"}],"anonymous":false},{"type":"error","name":"InvalidAmount","inputs":[]},{"type":"error","name":"NoStakeholder","inputs":[{"name":"stakeholder_id","type":"bytes16","internalType":"bytes16"}]}],"bytecode":{"object":"0x6080806040523461001657610518908161001c8239f35b600080fdfe6080604052600436101561001257600080fd5b60003560e01c806379c0a658146100cc5763e9f4a2281461003257600080fd5b346100c75760203660031901126100c757604061004d610496565b60006020835161005c816104db565b82815201526001600160801b03198091166000527f2031468f0c30f7087de4da9398818763b546d7f89935fa65485c24ff1df26c006020528160002090602060018451926100a9846104db565b845460801b1693848452015491019081528251918252516020820152f35b600080fd5b346100c7576101003660031901126100c7576100e6610496565b6044356001600160801b0319811690036100c75760643567ffffffffffffffff81116100c75761011a9036906004016104ad565b919060a43567ffffffffffffffff81116100c75761013c9036906004016104ad565b60c43567ffffffffffffffff81116100c75761015c9036906004016104ad565b959067ffffffffffffffff60e435116100c75761017e3660e4356004016104ad565b6001600160801b039891981988166000527f2031468f0c30f7087de4da9398818763b546d7f89935fa65485c24ff1df26bf7602052604060002054156104765760243515610464576040516101d2816104db565b6001600160801b03198916815260016020820160243581526001600160801b0319604435166000527f2031468f0c30f7087de4da9398818763b546d7f89935fa65485c24ff1df26c006020526040600020925160801c6001600160801b0319845416178355519101556001600160801b031988166000527f2031468f0c30f7087de4da9398818763b546d7f89935fa65485c24ff1df26bff602052604060002098895491680100000000000000008310156104385760018301808c5583101561044e576103616103a09961038d976103739560809e60005260206000208160011c01908f82549160071b16906001600160801b0360443560801c831b921b19161790556001600160801b0319604435166000527f2031468f0c30f7087de4da9398818763b546d7f89935fa65485c24ff1df26c0160205260406000208d8f1c6001600160801b03198254161790556101006040519e8f9e8f906001600160801b031916602082015260243560408201526001600160801b031960443516606082015201526101208d01916104f7565b8a8103601f190160a08c0152916104f7565b60843560c0890152878103601f190160e0890152916104f7565b848103601f1901610100860152916104f7565b601f199190038181018352601f0116810167ffffffffffffffff8111828210176104385780604052600a815260406020820152815180604083015260005b818110610422577f88aa35e399ceb8d6b2e810abb3df607c140128e7c089c428f212598bda6a7eb783606081856000838284010152601f80199101168101030190a1005b80602080928601015160608286010152016103de565b634e487b7160e01b600052604160045260246000fd5b634e487b7160e01b600052603260045260246000fd5b60405163162908e360e11b8152600490fd5b63b4586dfb60e01b60809081526001600160801b03198916608452602490fd5b600435906001600160801b0319821682036100c757565b9181601f840112156100c75782359167ffffffffffffffff83116100c757602083818601950101116100c757565b6040810190811067ffffffffffffffff82111761043857604052565b908060209392818452848401376000828201840152601f01601f191601019056","linkReferences":{}},"methodIdentifiers":{"getConvertiblePosition(bytes16)":"e9f4a228","issueConvertible(bytes16,uint256,bytes16,string,uint256,string,string,string)":"79c0a658"},"id":36}