{"abi":[{"type":"function","name":"getConvertiblePosition","inputs":[{"name":"securityId","type":"bytes16","internalType":"bytes16"}],"outputs":[{"name":"","type":"tuple","internalType":"struct ConvertibleActivePosition","components":[{"name":"stakeholder_id","type":"bytes16","internalType":"bytes16"},{"name":"investment_amount","type":"uint256","internalType":"uint256"}]}],"stateMutability":"view"},{"type":"function","name":"issueConvertible","inputs":[{"name":"stakeholder_id","type":"bytes16","internalType":"bytes16"},{"name":"investment_amount","type":"uint256","internalType":"uint256"},{"name":"security_id","type":"bytes16","internalType":"bytes16"},{"name":"convertible_type","type":"string","internalType":"string"},{"name":"seniority","type":"uint256","internalType":"uint256"},{"name":"custom_id","type":"string","internalType":"string"},{"name":"security_law_exemptions_mapping","type":"string","internalType":"string"},{"name":"conversion_triggers_mapping","type":"string","internalType":"string"}],"outputs":[],"stateMutability":"nonpayable"},{"type":"event","name":"TxCreated","inputs":[{"name":"txType","type":"uint8","indexed":false,"internalType":"enum TxType"},{"name":"txData","type":"bytes","indexed":false,"internalType":"bytes"}],"anonymous":false},{"type":"error","name":"AccessControlUnauthorized","inputs":[{"name":"account","type":"address","internalType":"address"},{"name":"role","type":"bytes32","internalType":"bytes32"}]},{"type":"error","name":"AccessControlUnauthorizedOrInvestor","inputs":[{"name":"account","type":"address","internalType":"address"}]},{"type":"error","name":"InvalidAmount","inputs":[]},{"type":"error","name":"NoStakeholder","inputs":[{"name":"stakeholder_id","type":"bytes16","internalType":"bytes16"}]}],"bytecode":{"object":"0x6080806040523461001657610662908161001c8239f35b600080fdfe6080604052600436101561001257600080fd5b60003560e01c806379c0a658146100765763e9f4a2281461003257600080fd5b3461007157602036600319011261007157604061005561005061048e565b610510565b60208251916001600160801b0319815116835201516020820152f35b600080fd5b34610071576101003660031901126100715761009061048e565b6044356001600160801b0319811690036100715760643567ffffffffffffffff8111610071576100c49036906004016104a5565b919060a43567ffffffffffffffff8111610071576100e69036906004016104a5565b60c43567ffffffffffffffff8111610071576101069036906004016104a5565b959060e43567ffffffffffffffff8111610071576101289036906004016104a5565b61013498919833610625565b15610450576001600160801b031988166000527f2031468f0c30f7087de4da9398818763b546d7f89935fa65485c24ff1df26bfb6020526040600020541561042e576024351561041c5760405161018a816104d3565b6001600160801b03198916815260016020820160243581526001600160801b0319604435166000527f2031468f0c30f7087de4da9398818763b546d7f89935fa65485c24ff1df26c046020526040600020925160801c6001600160801b0319845416178355519101556001600160801b031988166000527f2031468f0c30f7087de4da9398818763b546d7f89935fa65485c24ff1df26c03602052604060002098895491680100000000000000008310156103f05760018301808c5583101561040657610319610358996103459761032b9560809e60005260206000208160011c01908f82549160071b16906001600160801b0360443560801c831b921b19161790556001600160801b0319604435166000527f2031468f0c30f7087de4da9398818763b546d7f89935fa65485c24ff1df26c0560205260406000208d8f1c6001600160801b03198254161790556101006040519e8f9e8f906001600160801b031916602082015260243560408201526001600160801b031960443516606082015201526101208d01916104ef565b8a8103601f190160a08c0152916104ef565b60843560c0890152878103601f190160e0890152916104ef565b848103601f1901610100860152916104ef565b601f199190038181018352601f0116810167ffffffffffffffff8111828210176103f05780604052600a815260406020820152815180604083015260005b8181106103da577f88aa35e399ceb8d6b2e810abb3df607c140128e7c089c428f212598bda6a7eb783606081856000838284010152601f80199101168101030190a1005b8060208092860101516060828601015201610396565b634e487b7160e01b600052604160045260246000fd5b634e487b7160e01b600052603260045260246000fd5b60405163162908e360e11b8152600490fd5b60405163b4586dfb60e01b81526001600160801b031989166004820152602490fd5b604051633cea3dfb60e11b81523360048201527f97667070c54ef182b0f5858b034beac1b6f3089aa2d3188bb1e8929f4fa9b9296024820152604490fd5b600435906001600160801b03198216820361007157565b9181601f840112156100715782359167ffffffffffffffff8311610071576020838186019501011161007157565b6040810190811067ffffffffffffffff8211176103f057604052565b908060209392818452848401376000828201840152601f01601f1916010190565b604080519161051e836104d3565b600092838152836020809201526001600160801b031980921684527f2031468f0c30f7087de4da9398818763b546d7f89935fa65485c24ff1df26c04815282842093600184519561056e876104d3565b84815460801b16875201548286015261058633610625565b80156105ea575b6105e3577f2031468f0c30f7087de4da9398818763b546d7f89935fa65485c24ff1df26c0c849233835252205460801b90808451169116036105cd575090565b5163ad41016d60e01b8152336004820152602490fd5b5050505090565b508080527f2031468f0c30f7087de4da9398818763b546d7f89935fa65485c24ff1df26bf38252838120338252825260ff848220541661058d565b6001600160a01b031660009081527f20a65b27cef39f8cbee4f7fb947dec892749a5832be62c5137636d27b859f46d602052604090205460ff169056","linkReferences":{}},"methodIdentifiers":{"getConvertiblePosition(bytes16)":"e9f4a228","issueConvertible(bytes16,uint256,bytes16,string,uint256,string,string,string)":"79c0a658"},"id":52}