{"abi":[{"type":"function","name":"adjustAuthorizedShares","inputs":[{"name":"stockClassId","type":"bytes16","internalType":"bytes16"},{"name":"newSharesAuthorized","type":"uint256","internalType":"uint256"}],"outputs":[],"stateMutability":"nonpayable"},{"type":"function","name":"createStockClass","inputs":[{"name":"_id","type":"bytes16","internalType":"bytes16"},{"name":"_class_type","type":"string","internalType":"string"},{"name":"_price_per_share","type":"uint256","internalType":"uint256"},{"name":"_initial_share_authorized","type":"uint256","internalType":"uint256"}],"outputs":[],"stateMutability":"nonpayable"},{"type":"event","name":"StockClassAuthorizedSharesAdjusted","inputs":[{"name":"stockClassId","type":"bytes16","indexed":true,"internalType":"bytes16"},{"name":"newSharesAuthorized","type":"uint256","indexed":false,"internalType":"uint256"}],"anonymous":false},{"type":"event","name":"StockClassCreated","inputs":[{"name":"id","type":"bytes16","indexed":true,"internalType":"bytes16"},{"name":"classType","type":"string","indexed":true,"internalType":"string"},{"name":"pricePerShare","type":"uint256","indexed":true,"internalType":"uint256"},{"name":"initialSharesAuthorized","type":"uint256","indexed":false,"internalType":"uint256"}],"anonymous":false},{"type":"event","name":"TxCreated","inputs":[{"name":"txType","type":"uint8","indexed":false,"internalType":"enum TxType"},{"name":"txData","type":"bytes","indexed":false,"internalType":"bytes"}],"anonymous":false},{"type":"error","name":"InvalidSharesAuthorized","inputs":[]},{"type":"error","name":"StockClassAlreadyExists","inputs":[{"name":"stock_class_id","type":"bytes16","internalType":"bytes16"}]},{"type":"error","name":"StockClassNotFound","inputs":[{"name":"stock_class_id","type":"bytes16","internalType":"bytes16"}]}],"bytecode":{"object":"0x608060405234801561001057600080fd5b506106ca806100206000396000f3fe608060405234801561001057600080fd5b50600436106100365760003560e01c80634afd58fa1461003b57806367ede62814610050575b600080fd5b61004e6100493660046103b0565b610063565b005b61004e61005e366004610482565b6101ff565b6001600160801b0319841660009081527f2031468f0c30f7087de4da9398818763b546d7f89935fa65485c24ff1df26bf960205260409020547f2031468f0c30f7087de4da9398818763b546d7f89935fa65485c24ff1df26bf390156100ed57604051631339dd8760e21b81526001600160801b0319861660048201526024015b60405180910390fd5b6040805160a0810182526001600160801b031987811682526020808301888152938301879052600060608401819052608080850188905260058781018054600180820183559185529490932086519490910201805490941692901c919091178255925191929091908201906101629082610535565b5060408281015160028301556060830151600383015560809092015160049091015560058201546001600160801b03198716600090815260068401602052829020555183906101b2908690610619565b604051908190038120848252906001600160801b03198816907fc7496d70298fcc793e1d058617af680232585e302f0185b14bba498b247a9c1d9060200160405180910390a45050505050565b6001600160801b0319821660009081527f2031468f0c30f7087de4da9398818763b546d7f89935fa65485c24ff1df26bf960205260408120547f2031468f0c30f7087de4da9398818763b546d7f89935fa65485c24ff1df26bf39181900361028657604051634734e78560e01b81526001600160801b0319851660048201526024016100e4565b600060058301610297600184610635565b815481106102a7576102a761065c565b90600052602060002090600502019050838160040181905550846fffffffffffffffffffffffffffffffff19167faa2496f65161bfe6107d5ae2865fe60c5760e90627cdd8a472be95944d035f488560405161030591815260200190565b60405180910390a261033960028560405160200161032591815260200190565b604051602081830303815290604052610340565b5050505050565b7f88aa35e399ceb8d6b2e810abb3df607c140128e7c089c428f212598bda6a7eb78282604051610371929190610672565b60405180910390a15050565b80356001600160801b03198116811461039557600080fd5b919050565b634e487b7160e01b600052604160045260246000fd5b600080600080608085870312156103c657600080fd5b6103cf8561037d565b9350602085013567ffffffffffffffff808211156103ec57600080fd5b818701915087601f83011261040057600080fd5b8135818111156104125761041261039a565b604051601f8201601f19908116603f0116810190838211818310171561043a5761043a61039a565b816040528281528a602084870101111561045357600080fd5b826020860160208301376000928101602001929092525095989597505050506040840135936060013592915050565b6000806040838503121561049557600080fd5b61049e8361037d565b946020939093013593505050565b600181811c908216806104c057607f821691505b6020821081036104e057634e487b7160e01b600052602260045260246000fd5b50919050565b601f82111561053057600081815260208120601f850160051c8101602086101561050d5750805b601f850160051c820191505b8181101561052c57828155600101610519565b5050505b505050565b815167ffffffffffffffff81111561054f5761054f61039a565b6105638161055d84546104ac565b846104e6565b602080601f83116001811461059857600084156105805750858301515b600019600386901b1c1916600185901b17855561052c565b600085815260208120601f198616915b828110156105c7578886015182559484019460019091019084016105a8565b50858210156105e55787850151600019600388901b60f8161c191681555b5050505050600190811b01905550565b60005b838110156106105781810151838201526020016105f8565b50506000910152565b6000825161062b8184602087016105f5565b9190910192915050565b8181038181111561065657634e487b7160e01b600052601160045260246000fd5b92915050565b634e487b7160e01b600052603260045260246000fd5b6000600f841061069257634e487b7160e01b600052602160045260246000fd5b8382526040602083015282518060408401526106b58160608501602087016105f5565b601f01601f191691909101606001939250505056","linkReferences":{}},"methodIdentifiers":{"adjustAuthorizedShares(bytes16,uint256)":"67ede628","createStockClass(bytes16,string,uint256,uint256)":"4afd58fa"},"id":41}