{"abi":[{"type":"function","name":"adjustAuthorizedShares","inputs":[{"name":"stockClassId","type":"bytes16","internalType":"bytes16"},{"name":"newSharesAuthorized","type":"uint256","internalType":"uint256"}],"outputs":[],"stateMutability":"nonpayable"},{"type":"function","name":"createStockClass","inputs":[{"name":"_id","type":"bytes16","internalType":"bytes16"},{"name":"_class_type","type":"string","internalType":"string"},{"name":"_price_per_share","type":"uint256","internalType":"uint256"},{"name":"_initial_share_authorized","type":"uint256","internalType":"uint256"}],"outputs":[],"stateMutability":"nonpayable"},{"type":"event","name":"StockClassAuthorizedSharesAdjusted","inputs":[{"name":"stockClassId","type":"bytes16","indexed":true,"internalType":"bytes16"},{"name":"newSharesAuthorized","type":"uint256","indexed":false,"internalType":"uint256"}],"anonymous":false},{"type":"event","name":"StockClassCreated","inputs":[{"name":"id","type":"bytes16","indexed":true,"internalType":"bytes16"},{"name":"classType","type":"string","indexed":true,"internalType":"string"},{"name":"pricePerShare","type":"uint256","indexed":true,"internalType":"uint256"},{"name":"initialSharesAuthorized","type":"uint256","indexed":false,"internalType":"uint256"}],"anonymous":false},{"type":"event","name":"TxCreated","inputs":[{"name":"txType","type":"uint8","indexed":false,"internalType":"enum TxType"},{"name":"txData","type":"bytes","indexed":false,"internalType":"bytes"}],"anonymous":false},{"type":"error","name":"InvalidSharesAuthorized","inputs":[]},{"type":"error","name":"StockClassAlreadyExists","inputs":[{"name":"stock_class_id","type":"bytes16","internalType":"bytes16"}]},{"type":"error","name":"StockClassNotFound","inputs":[{"name":"stock_class_id","type":"bytes16","internalType":"bytes16"}]}],"bytecode":{"object":"0x60808060405234610016576105d7908161001c8239f35b600080fdfe6080604052600436101561001257600080fd5b60003560e01c80634afd58fa1461019c576367ede6281461003257600080fd5b346101975760403660031901126101975761004b610515565b602435906001600160801b031916806000527f2031468f0c30f7087de4da9398818763b546d7f89935fa65485c24ff1df26bf9602052604060002054801561017e5760001981019081116101685760046100a58492610535565b5001557faa2496f65161bfe6107d5ae2865fe60c5760e90627cdd8a472be95944d035f486020604051848152a2604051906020820190815260208252604082019082821067ffffffffffffffff831117610152577f88aa35e399ceb8d6b2e810abb3df607c140128e7c089c428f212598bda6a7eb79260609183604052600284526040838301526101438251809281608086015260a0850190610593565b601f01601f19168101030190a1005b634e487b7160e01b600052604160045260246000fd5b634e487b7160e01b600052601160045260246000fd5b604051634734e78560e01b815260048101839052602490fd5b600080fd5b34610197576080366003190112610197576101b5610515565b67ffffffffffffffff60243581811161019757366023820112156101975780600401359082821161015257601f19603f601f19601f850116011660800160808110848211176101525760405281608052366024838301011161019757600091602091819060240160a03760800101526001600160801b0319908183166000527f2031468f0c30f7087de4da9398818763b546d7f89935fa65485c24ff1df26bf96020526040600020546104fb5760405160a081018181108382111761015257604052828416815260208101916080835260006040830152604435606083015260643560808301526000805160206105b78339815191525468010000000000000000811015610152578060016102da92016000805160206105b783398151915255610535565b9390936104e557825160801c85855416178455518051918211610152576001840154600181811c911680156104db575b60208210146104c557601f811161047e575b50602090601f8311600114610409579180600494926080946000926103fe575b50508160011b916000199060031b1c19161760018501555b604081015160028501556060810151600385015501519101556000805160206105b7833981519152548183166000527f2031468f0c30f7087de4da9398818763b546d7f89935fa65485c24ff1df26bf9602052604060002055604051806080516103c381836020608001610593565b8101039020907fc7496d70298fcc793e1d058617af680232585e302f0185b14bba498b247a9c1d6020604051926064358452604435951692a4005b01519050888061033c565b906001850160005260206000209160005b601f19851681106104665750926004949260019260809583601f1981161061044d575b505050811b016001850155610354565b015160001960f88460031b161c1916905588808061043d565b9192602060018192868501518155019401920161041a565b600185016000526020600020601f840160051c8101602085106104be575b601f830160051c820181106104b257505061031c565b6000815560010161049c565b508061049c565b634e487b7160e01b600052602260045260246000fd5b90607f169061030a565b634e487b7160e01b600052600060045260246000fd5b604051631339dd8760e21b81528284166004820152602490fd5b600435906fffffffffffffffffffffffffffffffff198216820361019757565b6000805160206105b783398151915290815481101561057d57600591600052027fee6f7b31ced919e4b28e9b6e4406f8a625ca3bdeb0e9e0c4c4bc61059574b3180190600090565b634e487b7160e01b600052603260045260246000fd5b60005b8381106105a65750506000910152565b818101518382015260200161059656fe2031468f0c30f7087de4da9398818763b546d7f89935fa65485c24ff1df26bf8","linkReferences":{}},"methodIdentifiers":{"adjustAuthorizedShares(bytes16,uint256)":"67ede628","createStockClass(bytes16,string,uint256,uint256)":"4afd58fa"},"id":41}