{"abi":[{"type":"function","name":"generateDeterministicUniqueID","inputs":[{"name":"stakeholderId","type":"bytes16","internalType":"bytes16"},{"name":"nonce","type":"uint256","internalType":"uint256"}],"outputs":[{"name":"","type":"bytes16","internalType":"bytes16"}],"stateMutability":"view"},{"type":"event","name":"TxCreated","inputs":[{"name":"index","type":"uint256","indexed":false,"internalType":"uint256"},{"name":"txType","type":"uint8","indexed":false,"internalType":"enum TxType"},{"name":"txData","type":"bytes","indexed":false,"internalType":"bytes"}],"anonymous":false}],"bytecode":{"object":"0x608080604052346100195760b0908161001f823930815050f35b600080fdfe60806004361015600e57600080fd5b600090813560e01c63bc68dd4e14602457600080fd5b604036600319011260ac576fffffffffffffffffffffffffffffffff196004358181169081900360a8576020830190815242603084015244605084015260243560708401526070835260a083019280841067ffffffffffffffff8511176094576020945083604052519020168152f35b634e487b7160e01b85526041600452602485fd5b8380fd5b5080fd","linkReferences":{}},"methodIdentifiers":{"generateDeterministicUniqueID(bytes16,uint256)":"bc68dd4e"},"id":62}