{"abi":[{"type":"function","name":"generateDeterministicUniqueID","inputs":[{"name":"stakeholderId","type":"bytes16","internalType":"bytes16"},{"name":"nonce","type":"uint256","internalType":"uint256"}],"outputs":[{"name":"","type":"bytes16","internalType":"bytes16"}],"stateMutability":"view"},{"type":"event","name":"TxCreated","inputs":[{"name":"index","type":"uint256","indexed":false,"internalType":"uint256"},{"name":"txType","type":"uint8","indexed":false,"internalType":"enum TxType"},{"name":"txData","type":"bytes","indexed":false,"internalType":"bytes"}],"anonymous":false}],"bytecode":{"object":"0x60df610039600b82828239805160001a60731461002c57634e487b7160e01b600052600060045260246000fd5b30600052607381538281f3fe730000000000000000000000000000000000000000301460806040526004361060335760003560e01c8063bc68dd4e146038575b600080fd5b608b604336600460a8565b604080516001600160801b0319939093166020808501919091524260308501524460508501526070808501939093528151808503909301835260909093019052805191012090565b6040516001600160801b0319909116815260200160405180910390f35b6000806040838503121560ba57600080fd5b82356001600160801b03198116811460d157600080fd5b94602093909301359350505056","linkReferences":{}},"methodIdentifiers":{"generateDeterministicUniqueID(bytes16,uint256)":"bc68dd4e"},"id":56}